:10040500C0F9A4B0999282F880908883C6A1868E9F
:1003AB00810A00810B00C1008802FFFFFFFFFFFFE6
:0803BB00FFFF81000081010039
:10027600780D74AAF2D2AF1204157F017E00120126
:10028600EF120370780474BFF27807F23000FDC2F3
:1002960000E4780CF2780CE2FFC3940750121203C4
:1002A600DD780CE2240EF8EFF2780CE204F280E539
:1002B600780EE2FF18E26F60D37810E2FEC4540FA6
:1002C600900405937809F2EE540F9318F2780FE232
:1002D600FEC4540F937806F2EE540F9318F2780E7C
:1002E600E2FEC4540F937803F2EE540F9318F2789B
:0502F6000DEFF28097FE
:0F041500E5A0541F44A0F5A05380AF53A01F22B1
:0401EF00AB07AA06AA
:1001F300781612014A000E1000AE02AF03E4FCFDB4
:100203007816E2FB08E2F908E2FA08E2CBF81200FA
:100213000EE47BE87A03F9F8120099781612013E8E
:100223007816E2FB08E2F908E2FA08E2CBF8C3E445
:100233009BFFE49AFE740199FDE498FC7816120181
:100243003E7816E2FC08E2FD08E2FE08E2FF7808C9
:1002530012012B780AEFF27816080808E2780BF2FD
:100263005389F043890118E2F58C08E2F58AD2A993
:02027300D28C2B
:010275002266
:1002FB00E5A0541F44E0F5A07580FF53A01FE5A0B7
:10030B00541F44C0F5A07800E2FF7480A807088052
:10031B0002C313D8FCF58053A01FE5A0541F44E083
:10032B00F5A074022FF8E2F58053A01F7800E204C9
:05033B00F2E25407F29C
:01034000229A
:03000B00020341AC
:0B034100C0E0C0D075D000C000C007B5
:10034C00780AE2F58C08E2F58A1202FB7801E204E5
:0B035C00F2E2C394C84004E4F2D200B7
:09036700D007D000D0D0D0E03264
:07000300001211170306189B
:10038E00C2977E01EE60135F6004D2A38002C2A307
:0C039E00D297C297EE25E0FE80EAD2A3C1
:0103AA002230
:1003C400E4FFC2977E01EE600F30A3024FFFD29785
:0803D400C297EE25E0FE80EE69
:0103DC0022FE
:1003F200D293EF25E04480FF12038EAF0512038EE5
:03040200C2932280
:1003DD00E4FED293EF25E04481FF12038E1203C495
:0403ED00C293C2A352
:0103F10022E9
:10037000C293C297E4FD7F071203F2E4FCAF04ECE2
:0D03800090000393FD1203F20CECB407F0A3
:01038D00224D
:0300000002016397
:0C016300787FE4F6D8FD7581200201AA27
:10000E00E88FF0A4CC8BF0A42CFCE98EF0A42CFC91
:10001E008AF0EDA42CFCEA8EF0A4CDA8F08BF0A40F
:10002E002DCC3825F0FDE98FF0A42CCD35F0FCEB6E
:10003E008EF0A4FEA9F0EB8FF0A4CFC5F02ECD3933
:0F004E00FEE43CFCEAA42DCE35F0FDE43CFC22A0
:10005D0075F008758200EF2FFFEE33FECD33CDCC5A
:10006D0033CCC58233C5829BED9AEC99E5829840DD
:10007D000CF582EE9BFEED9AFDEC99FC0FD5F0D6BA
:10008D00E4CEFBE4CDFAE4CCF9A88222B800C1B9E4
:10009D000059BA002DEC8BF084CFCECDFCE5F0CB22
:1000AD00F97818EF2FFFEE33FEED33FDEC33FCEB5B
:1000BD0033FB10D703994004EB99FB0FD8E5E4F916
:1000CD00FA227818EF2FFFEE33FEED33FDEC33FC03
:1000DD00C933C910D7059BE99A4007EC9BFCE99AF7
:1000ED00F90FD8E0E4C9FAE4CCFB2275F010EF2F3C
:1000FD00FFEE33FEED33FDCC33CCC833C810D7073C
:10010D009BEC9AE899400AED9BFDEC9AFCE899F876
:0E011D000FD5F0DAE4CDFBE4CCFAE4C8F92209
:10012B00E8600FECC313FCED13FDEE13FEEF13FFB2
:03013B00D8F122D6
:0C013E00ECF208EDF208EEF208EFF222FD
:10014A00D083D082E493F208740193F20874029384
:09015A00F208740393F2740473BB
:10016F00020276E493A3F8E493A34003F68001F22E
:10017F0008DFF48029E493A3F85407240CC8C33391
:10018F00C4540F4420C8834004F456800146F6DF60
:10019F00E4800B01020408102040809003ABE47E42
:1001AF00019360BCA3FF543F30E509541FFEE49355
:1001BF00A360010ECF54C025E060A840B8E493A31C
:1001CF00FAE493A3F8E493A3C8C582C8CAC583CA47
:1001DF00F0A3C8C582C8CAC583CADFE9DEE780BEFF
:0103C3000039
:00000001FF
