:10057400810300810400C180C101C10281000082A5
:0305840001000073
:1006C800785974AAF2D2AF120AA87F017E001204E8
:1006D800791209761205E83000257858E27020C2B0
:1006E800007BFE7A00795A12065A7860E2FF785940
:1006F800E26F600BD20412080F7860E27859F2308A
:1007080003D23001CFC201300215C202784FE2FF96
:100718002447F874FFF274462FF874FFF280B5D2BC
:0807280002C20412080F80ACAC
:0F0AA800E5A0541F44A0F5A05380AF53A01F2218
:04047900AB07AA061D
:10047D0078621202F2000E1000AE02AF03E4FCFD32
:10048D007862E2FB08E2F908E2FA08E2CBF8120121
:10049D00B6E47BE87A03F9F812024178621202E6BB
:1004AD007862E2FB08E2F908E2FA08E2CBF8C3E46D
:1004BD009BFFE49AFE740199FDE498FC78621202A8
:1004CD00E67862E2FC08E2FD08E2FE08E2FF780849
:1004DD001202D37803EFF27862080808E27804F28A
:1004ED005389F043890118E2F58C08E2F58AD2A907
:0204FD00D28C9F
:0104FF0022DA
:03000B00020500EB
:10050000C0E0C0F0C083C082C0D075D000C000C0C1
:0D05100001C002C003C004C005C006C00742
:10051D007803E2F58C08E2F58A12030B1207C9780D
:10052D0000E204F27802E22401F218E23400F2183B
:10053D00E2C394C84004E4F2D200C37802E294E826
:0C054D0018E294034006E4F208F2D20128
:10055900D007D006D005D004D003D002D001D000F6
:0B056900D0D0D082D083D0F0D0E032A0
:08000300001803011040000485
:1009DF00D2A37E01EE60135F6004D2A38002C2A394
:0C09EF00D297C297EE25E0FE80EAD2A36A
:0109FB0022D9
:100A4A00E4FF7E01EE600F30A3024FFFD297C297F8
:060A5A00EE25E0FE80EE37
:010A60002273
:100A6100D293EF25E04480FF1209DFAF051209DFC1
:030A7100C293220B
:100A8700D293EF25E04481FF1209DF120A4AC2938D
:010A9700223C
:0A0853007872EBF208EAF208E9F20D
:10085D00D2937FBE1209DFE4FD7872E2FB0808E255
:10086D00F92401F218E2FA3400F2120104FF120920
:08087D00DF0DEDB407E3C293A7
:010885002250
:0A0886007870EBF208EAF208E9F2DC
:10089000D2937FBF1209DFE4FD120A4A7870E2FBAF
:1008A00008E2FA08E2F98D82758300EF12014A0D21
:0808B000EDB407E5C293C2A3F9
:0108B800221D
:0A065A007865EBF208EAF208E9F215
:100664007BFE7A007968120886786EE22400FFE443
:100674003420F97865E2FB08E2FA08E2C98FF01247
:100684000197786CE2FF7865E2FB08E2FA08E2F988
:10069400900002EF12014A786BE290000312014AC3
:1006A400786AE290000412014A7869E29000051227
:1006B400014A7868E290000612014A786DE29000DF
:0406C4000702014ADE
:10078100E47871F212016C18F290000212011D78E6
:100791006EF290000312011D786DF29000041201B7
:1007A1001D786CF290000512011D786BF290000625
:1007B10012011D786AF290000712011D786FF27B19
:0807C100FE7A00796A02085378
:1009760078627C007DFE7BFF7A0079037E007F082B
:100986001200DEC293C297E4FD7F07120A617BFE66
:070996007A0079620207817B
:100587009036010101010101010101010101010190
:100597000101902631323319343536183738391777
:1005A700301B0D1690050101010101010101010137
:1005B7000101010101018115009016FFFFFFFFFFF7
:0B05C700FFFFFFFFFFFFFFFFFFFFFF34
:1005E800E47862F2E47863F27863E2C394045056E4
:1005F800E2FF18E2FE25E025E024362FF8E2FDEEC2
:1006080025E025E024052FF8E2FF6D6032EF601346
:100618007863E2FF18E225E025E024262FF8E2FFC0
:100628001207307863E2FF18E2FE25E025E0243661
:100638002FF8E2FDEE25E025E024052FF8EDF2780D
:1006480063E204F280A27862E204F2E2C394044016
:01065800930E
:01065900227E
:10030B007815E21460101460131460162403701631
:10031B00C2B0D2B38010C2B1D2B0800AC2B2D2B1D5
:10032B008004C2B3D2B27815E2FF25E025E0241693
:10033B00F8E225E0FEA2C4E4334EFEEF25E025E013
:10034B002416F8EEF27815E2FF25E025E02417F8E5
:10035B00E225E0FEA2C2E4334EFEEF25E025E024C9
:10036B0017F8EEF27815E2FF25E025E02418F8E205
:10037B0025E0FEA2B5E4334EFEEF25E025E0241880
:10038B00F8EEF27815E2FF25E025E02419F8E225D6
:10039B00E0FEA2B4E4334EFEEF25E025E02419F88D
:1003AB00EEF2E4FF7815E2FE25E025E024162FF8A7
:1003BB00E2540FFDBD0F0EEE25E025E024362FF89D
:1003CB007401F2800EED700BEE25E025E024362F44
:1003DB00F8E4F20FEFB404CC7815E204F2E2540324
:0103EB00F21F
:0103EC0022EE
:100A9800C0F9A4B0999282F880908883C6A1868E06
:1005D200814F00C1038847FFFFFFFFFFFFFFFF813D
:0205E2004600D1
:1007C900E5A0541F44E0F5A07580FF53A01FE5A0E4
:1007D900541F44C0F5A07846E2FF7480A80708803A
:1007E90002C313D8FCF58053A01FE5A0541F44E0B1
:1007F900F5A074472FF8E2F58053A01F7846E2046C
:05080900F2E25407F2C9
:01080E0022C7
:030AC200D203223A
:030AC500C2032247
:1009C100EFB40106784F7407F222EFB40206784FB4
:0E09D1007404F222EFB40305784F7401F22291
:0305E4008158003B
:0B099D00E2540FFD1F1209A87DBF1FD0
:1009A800EDB4BF0874472FF874BFF222ED900A988F
:0909B80093FE74472FF8EEF222C1
:10080F003004097BFE7A00795012065A7854E2C4FC
:10081F00540FFD7F071209A8785412099D7855E2ED
:10082F00C4540FFD7F041209A8785512099D7856FC
:10083F00E2C4540FFD7F011209A87856E2540FFD50
:04084F001F0209A8D3
:1009FC007858E224FE600B14600C2402700D7F0109
:0C0A0C0080067F0280027F031209C122D5
:1008EA00ED640170160FEF540FFEBE0A06EF54F0C6
:1008FA002410FFEF64247017FF80140FEF540FFECB
:10090A00BE0A06EF54F02410FFEFB46002E4FF229F
:1008B900ED640170171FEF540FFEBE0F06EF54F0E1
:1008C9004409FFEF64F970187F2380141FEF540F58
:1008D900FEBE0F06EF54F04409FFEFB4F9027F5949
:0108E90022EC
:10091A007858E224FE600F1460142402701B785485
:10092A00E2FF7D01800E7855E2FFE4FD80067856ED
:0E093A00E2FFE4FD1208EAEFF2C20402080F29
:100948007858E224FE600F1460142402701B785457
:10095800E2FF7D01800E7855E2FFE4FD80067856BF
:0E096800E2FFE4FD1208B9EFF2C20402080F2C
:100A18007858E2FF6012C394035005E204F280059F
:090A280078587401F21209FC2255
:100A31007858E2FF6012D394014005E214F2800578
:090A410078587403F21209FC223A
:0B0AB70078587401F21209FC020AC218
:100A7400E47858F23004097BFE7A00795012078139
:030A8400020AC59E
:100730007864EFF2C394304006E2D39439404178B4
:1007400064E2B4190302091A7864E2B418030209D6
:10075000487864E2B41703020A317864E2B41603FD
:10076000020A187864E2B40D0C7858E27003020AA9
:10077000B7D20480087864E2B41B05C204120A747C
:010780002256
:030000000203ED0B
:0C03ED00787FE4F6D8FD7581200204340E
:10000E00E709F608DFFA8046E709F208DFFA803ED4
:10001E0088828C83E709F0A3DFFA8032E309F608C1
:10002E00DFFA8078E309F208DFFA807088828C8329
:10003E00E309F0A3DFFA806489828A83E0A3F608DD
:10004E00DFFA805889828A83E0A3F208DFFA804CB7
:10005E0080D280FA80C680D4806980F2803380108E
:10006E0080A680EA809A80A880DA80E280CA8033F7
:10007E0089828A83ECFAE493A3C8C582C8CCC5836F
:10008E00CCF0A3C8C582C8CCC583CCDFE9DEE7803F
:10009E000D89828A83E493A3F608DFF9ECFAA9F0BE
:1000AE00EDFB2289828A83ECFAE0A3C8C582C8CC14
:1000BE00C583CCF0A3C8C582C8CCC583CCDFEADE2D
:1000CE00E880DB89828A83E493A3F208DFF980CC8F
:1000DE0088F0EF60010E4E60C388F0ED2402B40488
:1000EE000050B9F582EB2402B4040050AF2323452F
:0600FE00822390005E73F6
:10010400BB010689828A83E0225002E722BBFE02F9
:09011400E32289828A83E493222C
:10011D00BB010CE58229F582E5833AF583E0225097
:10012D0006E92582F8E622BBFE06E92582F8E222E1
:0D013D00E58229F582E5833AF583E49322FB
:10014A00F8BB010DE58229F582E5833AF583E8F0EB
:10015A00225006E92582C8F622BBFE05E92582C897
:02016A00F2227F
:10016C00BB010A89828A83E0F5F0A3E0225006875E
:10017C00F009E71922BBFE07E3F5F009E319228920
:0B018C00828A83E493F5F07401932253
:10019700BB010A89828A83F0E5F0A3F0225006F7B3
:0F01A70009A7F01922BBFE06F3E5F009F31922B0
:1001B600E88FF0A4CC8BF0A42CFCE98EF0A42CFCE8
:1001C6008AF0EDA42CFCEA8EF0A4CDA8F08BF0A466
:1001D6002DCC3825F0FDE98FF0A42CCD35F0FCEBC5
:1001E6008EF0A4FEA9F0EB8FF0A4CFC5F02ECD398A
:0F01F600FEE43CFCEAA42DCE35F0FDE43CFC22F7
:1002050075F008758200EF2FFFEE33FECD33CDCCB0
:1002150033CCC58233C5829BED9AEC99E582984033
:100225000CF582EE9BFEED9AFDEC99FC0FD5F0D610
:10023500E4CEFBE4CDFAE4CCF9A88222B800C1B93A
:100245000059BA002DEC8BF084CFCECDFCE5F0CB78
:10025500F97818EF2FFFEE33FEED33FDEC33FCEBB1
:1002650033FB10D703994004EB99FB0FD8E5E4F96C
:10027500FA227818EF2FFFEE33FEED33FDEC33FC59
:10028500C933C910D7059BE99A4007EC9BFCE99A4D
:10029500F90FD8E0E4C9FAE4CCFB2275F010EF2F92
:1002A500FFEE33FEED33FDCC33CCC833C810D70792
:1002B5009BEC9AE899400AED9BFDEC9AFCE899F8CD
:0E02C5000FD5F0DAE4CDFBE4CCFAE4C8F92260
:1002D300E8600FECC313FCED13FDEE13FEEF13FF09
:0302E300D8F1222D
:0C02E600ECF208EDF208EEF208EFF22254
:1002F200D083D082E493F208740193F208740293DB
:09030200F208740393F274047311
:1003F9000206C8E493A3F8E493A34003F68001F24C
:1004090008DFF48029E493A3F85407240CC8C33304
:10041900C4540F4420C8834004F456800146F6DFD3
:10042900E4800B0102040810204080900574E47EEA
:10043900019360BCA3FF543F30E509541FFEE493C8
:10044900A360010ECF54C025E060A840B8E493A38F
:10045900FAE493A3F8E493A3C8C582C8CAC583CABA
:10046900F0A3C8C582C8CAC583CADFE9DEE780BE72
:0105E7000013
:00000001FF
