:100AEB00323020202D20202D20200020203A2020C5
:040AFB003A2020007D
:0E07E300810100810200810B00C180810000B5
:10078700784D74AAF2D2AF120BD97F017E00120501
:100797009D120A45120B137BFF7A0A79EBE4FD7F62
:1007A700031209E57BFF7A0A79F67D017F041209B6
:1007B700E51206A73000FA780BE270F5C2007BFE5F
:1007C7007A0079031207197809E2FF784DE26F6022
:0C07D700E01209707809E2784DF280D53C
:040A6800E2FBE4FDCC
:100A6C00EBC4540F24307851F2EB540F243008F2BD
:0C0A7C00E408F27BFE7A0079510209E5E3
:100970007803087F05120A6878057F08120A6878EC
:1009800006E2FBE4FD7F0B120A6C7807E2FB7D01B7
:100990007F04120A6C7808E2FB7D017F07120A6C63
:0B09A0007809E2FB7D017F0A020A6C6F
:10062400780BE214B40C00507990063B75F003A4E7
:10063400C58325F0C5837302065F0206630206695B
:1006440002066F02067502067B0206810206870215
:10065400068D02069302069902069FE4FD8026E4B5
:10066400FD7F06803AE4FD7F088034E4FD7F098045
:100674002EE4FD7F0B8028E4FD7F0C80227D017F2A
:1006840004801C7D017F0580167D017F0780107D1D
:10069400017F08800A7D017F0A80047D017F0B129F
:0306A4000B962290
:100B2700EF54F0C39490500674102FFF8004EF54D5
:030B37000FFF228B
:100BB900EF540FC3940950030F8004EF54F0FF2240
:100B3A00EF54F0D39400400674F02FFF8004EF4482
:030B4A0090FF22F7
:100BC900EF540FD3940040031F8004EF4409FF2220
:1003ED00780BE214B40C00400302047990040775F5
:1003FD00F003A4C58325F0C5837302042B020435D5
:10040D0002044502044902044D020451020455023E
:10041D00045902045D02046102046502047078034C
:10042D0008E2FF120B278008780308E2FF120BB9D0
:10043D0018E4F208EFF280347805801E78058025E7
:10044D00780680167806801D7807800E780780154F
:10045D00780880067808800D7809E2FF120B27EFE7
:10046D00F280097809E2FF120BB9EFF2120970025E
:02047D00062453
:10047F00780BE214B40C00400302050B900499753D
:10048F00F003A4C58325F0C583730204BD0204C71E
:10049F000204D70204DB0204DF0204E30204E702D2
:1004AF0004EB0204EF0204F30204F70205027803DF
:1004BF0008E2FF120B3A8008780308E2FF120BC91B
:1004CF0018E4F208EFF280347805801E7805802555
:1004DF00780680167806801D7807800E78078015BD
:1004EF00780880067808800D7809E2FF120B3AEF42
:1004FF00F280097809E2FF120BC9EFF212097002BC
:02050F000624C0
:100AA200780BE2FF6012C3940C5005E204F2800559
:090AB200780B7401F212062422F3
:100ABB00780BE2FF6012D394014005E214F280053B
:090ACB00780B740CF212062422CF
:0B0BE800780B7402F2120ABB020BF83B
:100B4D00E4780BF23001097BFE7A0079031208E19B
:030B5D00020BFD8B
:100890007850EFF2C394304006E2D3943940417867
:1008A00050E2B426030203ED7850E2B428030204B8
:1008B0007F7850E2B42503020ABB7850E2B42703E4
:1008C000020AA27850E2B40D0C780BE27003020B1E
:1008D000E8D20180087850E2B41B05C201120B4D2A
:0108E00022F5
:0F0BD900E5A0541F44A0F5A05380AF53A01F22E6
:04059D00AB07AA06F8
:1005A100784E1202F2000E1000AE02AF03E4FCFD21
:1005B100784EE2FB08E2F908E2FA08E2CBF8120110
:1005C100B6E47BE87A03F9F8120241784E1202E6AA
:1005D100784EE2FB08E2F908E2FA08E2CBF8C3E45C
:1005E1009BFFE49AFE740199FDE498FC784E120297
:1005F100E6784EE2FC08E2FD08E2FE08E2FF780838
:100601001202D37801EFF2784E080808E27802F27C
:100611005389F043890118E2F58C08E2F58AD2A9E1
:02062100D28C79
:0106230022B4
:03000B0002083DAB
:10083D00C0E0C0F0C083C082C0D075D000C000C081
:0D084D0001C002C003C004C005C006C00702
:10085A007801E2F58C08E2F58A12030B7800E204CB
:0B086A00F2E2C394C84004E4F2D200A4
:10087500D007D006D005D004D003D002D001D000D7
:0B088500D0D0D082D083D0F0D0E03281
:08000300001803011040000485
:100AFF00E4FEC297EF1392A3EFC313FFD2970EEE4C
:030B0F00B408EF38
:010B120022C0
:100AD400E4FFFEC297EFC313FF30A3034480FFD2A9
:060AE400970EEEB408EDD0
:010AEA0022E9
:100A8800C29300C29700D29300EF25E04480FF1282
:0A0A98000AFFAF05120AFFC2932205
:100A1C00E4FEC29300C29700D29300EF25E044811C
:100A2C00FF120AFF120AD4C29300C293C29700D2DB
:080A3C009700C2A300D2A30041
:010A4400228F
:0A09AB00785EEBF208EAF208E9F2C8
:1009B500C29300C29700D293007FBE120AFFE4FDE6
:1009C500785EE2FB0808E2F92401F218E2FA340045
:0F09D500F2120104FF120AFF0DEDB408E3C29302
:0109E40022F0
:0A0929007859EBF208EAF208E9F24F
:10093300C29300C29700D293007FBF120AFFE4FD67
:10094300120AD47859E2FB08E2FA08E2F98D8275BB
:100953008300EF12014A0DEDB408E5C29300C29380
:0C096300C29700D29700C2A300D2A300EC
:01096F002265
:0A071900784EEBF208EAF208E9F26C
:100723007BFE7A0079511209297857E22400FFE40D
:100733003420F9784EE2FB08E2FA08E2C98FF0129E
:1007430001977855E2FF784EE2FB08E2FA08E2F9F6
:10075300900002EF12014A7854E290000312014A1A
:100763007853E290000412014A7852E29000051295
:10077300014A7851E290000612014A7856E290004D
:040783000702014A1E
:1008E100E4785DF212016C18F290000212011D7899
:1008F1005AF290000312011D7859F290000412017E
:100901001D7858F290000512011D7857F2900006EB
:1009110012011D7856F290000712011D785BF27BDF
:08092100FE7A0079560209ABD1
:100A4500784E7C007DFE7BFF7A0079037E007F086F
:100A55001200DEE4FD7F07120A887BFE7A00794EDC
:030A65000208E1A3
:100B60007580FFC2A0D2A1D292AF80C292EF20E7DF
:010B7000F68E
:010B71002261
:100B7200AE07120B60C2A0C2A1AF068F80D292C292
:020B82009222BD
:100B8400AE07120B60D2A0C2A1AF068F80D292C270
:020B94009222AB
:100B9600ED7004AC078004EF2440FCEC4480FF02B7
:020BA6000B72D0
:1009E5007855EBF208EAF208E9F2120B967855E22F
:1009F500FB08E2FA08E2F9120104601A7855E2FBF5
:100A05000808E2F92401F218E2FA3400F2120104AE
:070A1500FF120B8480D722C1
:100BA800120B96AF031BEF60077F20120B8480F3B4
:010BB800221A
:050BF3007F01020B72FE
:050BF8007F0F020B72EB
:050BFD007F0C020B72E9
:100B13007F38120B727F0C120B727F06120B727FDF
:040B230001020B724E
:1007F100903D01010101010101010101010101011D
:100801000101902D313233263435362537383928D8
:10081100301B0D27900C01010101010101010101B2
:10082100010101010101811C00901DFFFFFFFFFF7C
:0B083100FFFFFFFFFFFFFFFFFFFFFFC7
:1006A700E4784EF2E4784FF2784FE2C39404505660
:1006B700E2FF18E2FE25E025E0243D2FF8E2FDEEFB
:1006C70025E025E0240C2FF8E2FF6D6032EF601380
:1006D700784FE2FF18E225E025E0242D2FF8E2FF0E
:1006E700120890784FE2FF18E2FE25E025E0243D4E
:1006F7002FF8E2FDEE25E025E0240C2FF8EDF27847
:100707004FE204F280A2784EE204F2E2C39404407E
:01071700934E
:0107180022BE
:10030B00781CE2146010146013146016240370162A
:10031B00C2B0D2B38010C2B1D2B0800AC2B2D2B1D5
:10032B008004C2B3D2B2781CE2FF25E025E0241D85
:10033B00F8E225E0FEA2C4E4334EFEEF25E025E013
:10034B00241DF8EEF2781CE2FF25E025E0241EF8D0
:10035B00E225E0FEA2C2E4334EFEEF25E025E024C9
:10036B001EF8EEF2781CE2FF25E025E0241FF8E2F0
:10037B0025E0FEA2B5E4334EFEEF25E025E0241F79
:10038B00F8EEF2781CE2FF25E025E02420F8E225C8
:10039B00E0FEA2B4E4334EFEEF25E025E02420F886
:1003AB00EEF2E4FF781CE2FE25E025E0241D2FF899
:1003BB00E2540FFDBD0F0EEE25E025E0243D2FF896
:1003CB007401F2800EED700BEE25E025E0243D2F3D
:1003DB00F8E4F20FEFB404CC781CE204F2E254031D
:0103EB00F21F
:0103EC0022EE
:03000000020511E5
:0C051100787FE4F6D8FD758120020558C3
:10000E00E709F608DFFA8046E709F208DFFA803ED4
:10001E0088828C83E709F0A3DFFA8032E309F608C1
:10002E00DFFA8078E309F208DFFA807088828C8329
:10003E00E309F0A3DFFA806489828A83E0A3F608DD
:10004E00DFFA805889828A83E0A3F208DFFA804CB7
:10005E0080D280FA80C680D4806980F2803380108E
:10006E0080A680EA809A80A880DA80E280CA8033F7
:10007E0089828A83ECFAE493A3C8C582C8CCC5836F
:10008E00CCF0A3C8C582C8CCC583CCDFE9DEE7803F
:10009E000D89828A83E493A3F608DFF9ECFAA9F0BE
:1000AE00EDFB2289828A83ECFAE0A3C8C582C8CC14
:1000BE00C583CCF0A3C8C582C8CCC583CCDFEADE2D
:1000CE00E880DB89828A83E493A3F208DFF980CC8F
:1000DE0088F0EF60010E4E60C388F0ED2402B40488
:1000EE000050B9F582EB2402B4040050AF2323452F
:0600FE00822390005E73F6
:10010400BB010689828A83E0225002E722BBFE02F9
:09011400E32289828A83E493222C
:10011D00BB010CE58229F582E5833AF583E0225097
:10012D0006E92582F8E622BBFE06E92582F8E222E1
:0D013D00E58229F582E5833AF583E49322FB
:10014A00F8BB010DE58229F582E5833AF583E8F0EB
:10015A00225006E92582C8F622BBFE05E92582C897
:02016A00F2227F
:10016C00BB010A89828A83E0F5F0A3E0225006875E
:10017C00F009E71922BBFE07E3F5F009E319228920
:0B018C00828A83E493F5F07401932253
:10019700BB010A89828A83F0E5F0A3F0225006F7B3
:0F01A70009A7F01922BBFE06F3E5F009F31922B0
:1001B600E88FF0A4CC8BF0A42CFCE98EF0A42CFCE8
:1001C6008AF0EDA42CFCEA8EF0A4CDA8F08BF0A466
:1001D6002DCC3825F0FDE98FF0A42CCD35F0FCEBC5
:1001E6008EF0A4FEA9F0EB8FF0A4CFC5F02ECD398A
:0F01F600FEE43CFCEAA42DCE35F0FDE43CFC22F7
:1002050075F008758200EF2FFFEE33FECD33CDCCB0
:1002150033CCC58233C5829BED9AEC99E582984033
:100225000CF582EE9BFEED9AFDEC99FC0FD5F0D610
:10023500E4CEFBE4CDFAE4CCF9A88222B800C1B93A
:100245000059BA002DEC8BF084CFCECDFCE5F0CB78
:10025500F97818EF2FFFEE33FEED33FDEC33FCEBB1
:1002650033FB10D703994004EB99FB0FD8E5E4F96C
:10027500FA227818EF2FFFEE33FEED33FDEC33FC59
:10028500C933C910D7059BE99A4007EC9BFCE99A4D
:10029500F90FD8E0E4C9FAE4CCFB2275F010EF2F92
:1002A500FFEE33FEED33FDCC33CCC833C810D70792
:1002B5009BEC9AE899400AED9BFDEC9AFCE899F8CD
:0E02C5000FD5F0DAE4CDFBE4CCFAE4C8F92260
:1002D300E8600FECC313FCED13FDEE13FEEF13FF09
:0302E300D8F1222D
:0C02E600ECF208EDF208EEF208EFF22254
:1002F200D083D082E493F208740193F208740293DB
:09030200F208740393F274047311
:10051D00020787E493A3F8E493A34003F68001F266
:10052D0008DFF48029E493A3F85407240CC8C333DF
:10053D00C4540F4420C8834004F456800146F6DFAE
:10054D00E4800B01020408102040809007E3E47E54
:10055D00019360BCA3FF543F30E509541FFEE493A3
:10056D00A360010ECF54C025E060A840B8E493A36A
:10057D00FAE493A3F8E493A3C8C582C8CAC583CA95
:10058D00F0A3C8C582C8CAC583CADFE9DEE780BE4D
:01083C0000BB
:00000001FF
