:1004DC00313233193435361837383917301B0D167D
:1003F10010290101010101010101010101010101B5
:1004010001011008010101010101010101010101C5
:10041100010101010118001019FFFFFFFFFFFFFF9C
:09042100FFFFFFFFFFFFFFFFFFDB
:10031B00E4F539E4F53AE53925E025E02408253AFA
:10032B00F8E6FFE53925E025E02429253AF8E66FC4
:10033B00603DEF6020E53925E025E024DCF582E423
:10034B003404F583E582253AF582E43583F583E4BD
:10035B0093FF1204FBE53925E025E02429253AF823
:10036B00E6FFE53925E025E02408253AF8A6070540
:10037B003AE53AC39404409E0539E539C3940440E9
:01038B0092DF
:01038C00224E
:10013E00E51814601014601314601624037016C2B0
:10014E00B0D2B38010C2B1D2B0800AC2B2D2B180E6
:10015E0004C2B3D2B2E51825E025E02419F8E6254D
:10016E00E0FFA2C4E4334FFFE51825E025E0241993
:10017E00F8A607E51825E025E0241AF8E625E0FFA5
:10018E00A2C2E4334FFFE51825E025E0241AF8A6B5
:10019E0007E51825E025E0241BF8E625E0FFA2B5CB
:1001AE00E4334FFFE51825E025E0241BF8A607E50C
:1001BE001825E025E0241CF8E625E0FFA2B4E43380
:1001CE004FFFE51825E025E0241CF8A607E4FFE51F
:1001DE001825E025E024192FF8E6540FFEBE0F0E69
:1001EE00E51825E025E024292FF87601800FEE7022
:1001FE000CE51825E025E024292FF8E4F60FBF04BE
:06020E00CE051853180391
:0102140022C7
:1004C000D2AF1204EC7F017E0012038D7F007E000C
:0C04D0007D007C001202A112031B80FBC7
:0F04EC00E5A0541F44A0F5A053A0AF53A01F22BA
:10038D00753C00753B10753A0E753900E4FCFDABFC
:10039D003CAA3BA93AA83912000EE47BE87A03F98E
:1003AD00F81200998F3C8E3B8D3A8C39C3E4953C05
:1003BD00F53CE4953BF53B7401953AF53AE49539F6
:1003CD00F539AF3CAE3BAD3AFC780812012B8F519D
:1003DD00853C525389F043890185518C85528AD2CF
:0303ED00A9D28C06
:0103F00022EA
:03000B0002043BB1
:10043B00C0E0C0F0C083C082C0D075D000C000C087
:10044B0001C002C003C004C005C006C00785518CA3
:10045B0085528A12013E12047FD007D006D005D0F8
:10046B0004D003D002D001D000D0D0D082D083D022
:04047B00F0D0E032AB
:03042A000153007B
:0E04FB00BF310B0553AF53E4FCFDFE1202A10E
:0105090022CF
:0A050A00C0F8A4B0889282F8809037
:0D042D000849FFFFFFFFFFFFFFFF01480030
:10047F00E5A0541F44E0F5A07580FF53A01FE5A031
:10048F00541F44C0F5A0AF487480A807088002C36A
:10049F0013D8FCF58053A01FE5A0541F44E0F5A02E
:1004AF0074492548F8E6F58053A01F0548534807BF
:0104BF00221A
:0802A1008F3E8E3D8D3C8C3B2D
:1002A900E4F547E47B0AFAF9F8AF3EAE3DAD3CAC64
:1002B9003B120099AF03743F2547F8A607AF3EAE3E
:1002C9003DAD3CAC3BE47B0AFAF9F81200998F3E4C
:1002D9008E3D8D3C8C3B0547E547B408C6754707FD
:1002E900743F2547F8E6700A74492547F876FFD523
:1002F90047EEC3E547648094804016743F2547F86C
:10030900E690050A93FF74492547F8A60715478023
:01031900E102
:01031A0022C0
:03000000020215E4
:0C021500787FE4F6D8FD75815302025C8E
:10000E00E88FF0A4CC8BF0A42CFCE98EF0A42CFC91
:10001E008AF0EDA42CFCEA8EF0A4CDA8F08BF0A40F
:10002E002DCC3825F0FDE98FF0A42CCD35F0FCEB6E
:10003E008EF0A4FEA9F0EB8FF0A4CFC5F02ECD3933
:0F004E00FEE43CFCEAA42DCE35F0FDE43CFC22A0
:10005D0075F008758200EF2FFFEE33FECD33CDCC5A
:10006D0033CCC58233C5829BED9AEC99E5829840DD
:10007D000CF582EE9BFEED9AFDEC99FC0FD5F0D6BA
:10008D00E4CEFBE4CDFAE4CCF9A88222B800C1B9E4
:10009D000059BA002DEC8BF084CFCECDFCE5F0CB22
:1000AD00F97818EF2FFFEE33FEED33FDEC33FCEB5B
:1000BD0033FB10D703994004EB99FB0FD8E5E4F916
:1000CD00FA227818EF2FFFEE33FEED33FDEC33FC03
:1000DD00C933C910D7059BE99A4007EC9BFCE99AF7
:1000ED00F90FD8E0E4C9FAE4CCFB2275F010EF2F3C
:1000FD00FFEE33FEED33FDCC33CCC833C810D7073C
:10010D009BEC9AE899400AED9BFDEC9AFCE899F876
:0E011D000FD5F0DAE4CDFBE4CCFAE4C8F92209
:10012B00E8600FECC313FCED13FDEE13FEEF13FFB2
:03013B00D8F122D6
:100221000204C0E493A3F8E493A34003F68001F22F
:1002310008DFF48029E493A3F85407240CC8C333DE
:10024100C4540F4420C8834004F456800146F6DFAD
:10025100E4800B01020408102040809003F1E47E49
:10026100019360BCA3FF543F30E509541FFEE493A2
:10027100A360010ECF54C025E060A840B8E493A369
:10028100FAE493A3F8E493A3C8C582C8CAC583CA94
:10029100F0A3C8C582C8CAC583CADFE9DEE780BE4C
:01043A0000C1
:00000001FF
