:1011BF00313233193435361837383917301B0D168D
:10056800C105902101010101010101010101010100
:1005780001010101900001010101010101010101D5
:100588000101010101018110009011FFFFFFFFFF30
:0B059800FFFFFFFFFFFFFFFFFFFFFF63
:1007A100E47899F2E4789AF2789AE2C39404506674
:1007B100E2FF18E2FE25E025E024212FF8E2FDEE1C
:1007C10025E025E024002FF8E2FF6D6026EF60238D
:1007D100789AE2FF18E225E025E024BFF582E434AF
:1007E10011F583E5822FF582E43583F583E493FFE8
:1007F100120F23789AE2FF18E2FE25E025E024217A
:100801002FF8E2FDEE25E025E024002FF8EDF27847
:100811009AE204F280927899E204F2E2C3940440ED
:010821008353
:0108220022B3
:1003B8007810E21460101460131460162403701689
:1003C800C2B0D2B38010C2B1D2B0800AC2B2D2B128
:1003D8008004C2B3D2B27810E2FF25E025E02411F0
:1003E800F8E225E0FEA2C4E4334EFEEF25E025E066
:1003F8002411F8EEF27810E2FF25E025E02412F847
:10040800E225E0FEA2C2E4334EFEEF25E025E0241B
:1004180012F8EEF27810E2FF25E025E02413F8E266
:1004280025E0FEA2B5E4334EFEEF25E025E02413D7
:10043800F8EEF27810E2FF25E025E02414F8E22532
:10044800E0FEA2B4E4334EFEEF25E025E02414F8E4
:10045800EEF2E4FF7810E2FE25E025E024112FF803
:10046800E2540FFDBD0F18EE25E025E024212FF8FA
:100478007401F2EE6403701EEF701BC2058017ED65
:100488007014EE25E025E024212FF8E4F2EEB40301
:1004980005EF7002D2050FEFB404B97810E204F248
:0404A800E25403F225
:0104AC00222D
:1005A3008A32C0F9A4B0999282F88090883CFFFF08
:0905B300FFFFFFFFFFFF81310093
:100DA100E5A0541F44E0F5A07580FF53A01FE5A006
:100DB100541F44C0F5A07831E2FF7480A807088071
:100DC10002C313D8FCF58053A01FE5A0541F44E0D3
:100DD100F5A0743C2FF8E2F58053A01F7831E204AE
:050DE100F2E25407F2EC
:010DE60022EA
:070A3F00789CEEF208EFF2D3
:100A4600E4FB789CE2FE08E2FF7C007D0A12018E40
:100A5600749E2BF8EDF2789CE2FE08E2FF7C007DA6
:100A66000A12018E789CEEF208EFF20BEBB404D278
:100A76007B03749E2BF8E27009743C2BF874FFF22A
:100A8600DBF0C3EB648094804013749E2BF8E22461
:0D0A960032F8E2FF743C2BF8EFF21B80E514
:010AA3002230
:1005BC00816200C104C102C103C101815800814C98
:1005CC0001845019324B64885901F401F401F4018F
:1005DC00F4814EFFC18082440000824600008248B4
:0805EC000000814A00814B0070
:10071E007BFE7A007954789D7404F2E4FD1209D9B7
:10072E00E47861F27861E2FD2454F8E275F064A495
:10073E00FFED25E02459F8E5F0F208EFF27861E2DA
:10074E0004F2E2B404DED2AF1211DF7F017E00129A
:10075E00069512115D1207A1300105C201120E8A13
:10076E007862E27016300708300405C204120C16C7
:10077E003005051210F080031211897862E2B4017F
:10078E00D4300205C202120CC23003C9C203120DCC
:03079E00E780C22F
:100E8A007F03120D117858EFF2D3940C5006784C68
:100E9A007401F2227858E2FFD394185006784C7401
:100EAA0002F222EFD39424784C50047403F2227491
:030EBA0004F2221D
:100CC200300020C2007876E2FFB40106784374FF58
:100CD200800BEF64027037783F74FFF218F218F25B
:100CE20018F222D2007876E2FFB40114784374BF7E
:100CF200F2786BE22432F8E27842F21874BFF22200
:0E0D0200EFB4020A7874E2FE08E2FF120A3F24
:010D100022C0
:100DE700E47861F27861E2FB25E02459F8E2FE0835
:100DF700E2FF7C007D6412018E74542BF8EFF278C9
:100E070061E204F2E2B404DC7BFE7A007954789D57
:080E17007404F2E4FD020AA4D8
:0F11DF00E5A0541F44A0F5A05380AF53A01F22DA
:04069500AB07AA06FF
:10069900789912039F000E1000AE02AF03E4FCFD2F
:1006A9007899E2FB08E2F908E2FA08E2CBF81202CB
:1006B90063E47BE87A03F9F81202EE78991203935E
:1006C9007899E2FB08E2F908E2FA08E2CBF8C3E418
:1006D9009BFFE49AFE740199FDE498FC7899120352
:1006E900937899E2FC08E2FD08E2FE08E2FF780847
:1006F900120380784DEFF27899080808E2784FF2F2
:100709005389F0438901784DE2F58C784FE2F58AF7
:04071900D2A9D28C03
:01071D0022B9
:10115D00538EBF53890F438910758BF7758DFFC261
:06116D008FD28ED2AB22EE
:03000B000204AD3F
:1004AD00C0E0C0F0C083C082C0D075D000C000C015
:0D04BD0001C002C003C004C005C006C00796
:1004CA00784DE2F58C784FE2F58A784AE204F2E256
:1004DA00C394C84004E4F2D2017862E2B4013978E4
:1004EA0047E22401F218E23400F27849E22401F2E8
:1004FA0018E23400F2C318E2942018E2940340068A
:10050A00E4F208F2D202C37849E294D018E29407DE
:10051A004006E4F208F2D2033007227845E22401C9
:10052A00F218E23400F27874E2FE08E2FFC378457A
:10053A00E29F18E29E4006E4F208F2D2041203B8DF
:03054A00120DA1EE
:10054D00D007D006D005D004D003D002D001D00002
:0B055D00D0D0D082D083D0F0D0E032AC
:03001B00020C6F65
:0F0C6F00C0E0C0F0C0D075D000C000C006C00704
:100C7E00758DFF758BF7784BE204F2E275F06584A3
:100C8E00AFF0EFF208E2244FF8E2FEEFC39EE5A0CC
:100C9E00541F44804007F5A07580FF8007F5A078AB
:070CAE004EE2F58053A01F88
:0D0CB500D007D006D000D0D0D0F0D0E03273
:1005F400816B01C10781760081670081680181698F
:0406040000816A0007
:100B03003006097BFE7A00796C1209707870E2FF77
:100B1300C4540F2432F8E27843F2EF540F2432F82E
:100B2300E27842F21874BFF27871E2FFC4540F24E2
:100B330032F8E27840F2EF540F2432F8E2783FF2D1
:100B43001874BFF27872E2FFC4540F2432F8E278CB
:0D0B53003DF2EF540F2432F8E2783CF2221C
:100893007BFE7A007963120FB71211737963E3FE5B
:1008A30009E37804CEA2E713CE13D8F8F3EE796305
:1008B300F37863E2FE08E2FFD39400EE6480948051
:1008C3004010EF9463EE64809480500608EEF208C3
:1008D300EFF27865E2FA08E2FB7C007D0AFFAE02E4
:1008E3001201E374322FF8E2783DF27C007D0AAF07
:0E08F30003AE021201E374322DF8E2783CF2FB
:0109010022D3
:10118900784374FFF218F218F218F218F218F218EC
:04119900F218F22234
:1010AF00784374BFF2786BE22432F8E27842F21898
:1010BF0074BFF21874FFF27874E2FE08E2FF020ABE
:0110CF003FE1
:1010F000784374FFF218F218F218F218F218F21886
:0E11000074BFF2784CE22432F8E2783CF2221E
:100F55007876E2C39402501EE204F278627401F2DC
:100F6500786BE225E02457F8E2FF08E27874CFF2C7
:100F750008EFF20210AFE47876F27862F212118986
:010F85002249
:100B60007876E264017023786BE2C39404500BE260
:100B700004F2E225E02457F88007786B7401F278DC
:100B800059E2FF08E27874CF80297876E2B4022A2D
:100B9000C318E294B018E29404501F08E22464F2EF
:100BA00018E23400F2E2FE08E2FF786BE225E0246E
:0B0BB00057F8EEF208EFF21210AF222F
:100BBB007876E264017023786BE2D39401400BE208
:100BCB0014F2E225E02457F88007786B7404F2786E
:100BDB005FE2FF08E27874CF80297876E2B4022ACC
:100BEB00D318E2949018E29401401F08E2249CF27F
:100BFB0018E234FFF2E2FE08E2FF786BE225E02414
:0B0C0B0057F8EEF208EFF21210AF22D3
:100F2300789BEFF2BF3103B20722789BE2B434031C
:100F3300020F55789BE2B437097862E2B4011202DA
:100F43000B60789BE2B430097862E2B40103120BC0
:020F5300BB22BF
:100E55007867E2FFD394075022E5A0541F4480F53C
:100E6500A07401A807088002C333D8FCF4F5807884
:100E75004EF253A01F7867E204F222E47867F27815
:040E85006B7402F296
:010E89002246
:100E1F007868E2FFD394075022E5A0541F4480F571
:100E2F00A07480A807088002C313D8FCF4F580785B
:100E3F004EF253A01F7868E204F22278687401F230
:050E4F00786B7403F252
:010E5400227B
:100823007869E2FF7014E204F2E5A0541F4480F5F6
:10083300A075807E784E747E8051EFB4011678697E
:10084300E204F2E5A0541F4480F5A07580BD784E04
:1008530074BD80377869E2FFB40214E204F2E5A0C4
:10086300541F4480F5A07580DB784E74DB801CEF49
:10087300B4031CE47869F2786B7404F2E5A0541FA6
:0F0883004480F5A07580E7784E74E7F253A01F0C
:010892002243
:10090200786AE2FF7014E204F2E5A0541F4480F515
:10091200A07580E7784E74E7804FEFB40116786ACD
:10092200E204F2E5A0541F4480F5A07580DB784E06
:1009320074DB8035786AE2FFB40214E204F2E5A0C7
:10094200541F4480F5A07580BD784E74BD801AEFA7
:10095200B4031AE4786AF20804F2E5A0541F448052
:0D096200F5A075807E784E747EF253A01FC4
:01096F002265
:100C1600786BE2B401107859E2FF08E27874CFF2FB
:100C260008EFF2120E55786BE2B40210785BE2FF21
:100C360008E27874CFF208EFF2120E1F786BE2B476
:100C46000310785DE2FF08E27874CFF208EFF21243
:100C56000823786BE2B40410785FE2FF08E2787448
:090C6600CFF208EFF2120902229C
:1009D9007899EBF208EAF208E9F208EDF212119DB2
:1009E9007FA0120FE540051211AE80F1789CE2FF5D
:1009F900120FE512119D7FA1120FE5789DE2D394A4
:100A090001401F1210107899E2FB0808E2F924014D
:100A1900F218E2FA3400F2EF12015A789DE214F268
:100A290080D91210397899E2FB08E2FA08E2F9EF65
:060A390012015A0211AE89
:100AA4007899EBF208EAF208E9F208EDF2789DE2AF
:100AB400D39400404912119D7FA0120FE540051206
:100AC40011AE80F1789CE2FF120FE5789DE2D39499
:100AD4000040267899E2FB0808E2F92401F218E2C2
:100AE400FA3400F2120114FF120FE5789DE214F2B9
:0F0AF40018E204F2E2540770D21211AE80AF2262
:0A11CF001211D9D2A01211D9C2A04A
:0511D900007F0BDFFEAA
:0111DE0022EE
:10119D00D2A0D2A11211D9C2A11211D9C2A002118D
:0111AD00D968
:1011AE00C2A0C2A11211D9D2A01211D9D2A102117C
:0111BE00D957
:020FE500AE0755
:100FE7007D80ED60125E6004D2A18002C2A1121161
:100FF700CFEDC313FD80EBD2A11211D9D2A0A2A1CC
:08100700920B1211D4A20BB3ED
:01100F0022BE
:10101000E4FED2A11211D97D80ED6015D2A012118B
:10102000D930A1024EFEC2A01211D9EDC313FD802A
:08103000E8C2A11211CFAF06C6
:011038002295
:10103900E4FED2A11211D97D80ED6015D2A0121162
:10104900D930A1024EFEC2A01211D9EDC313FD8001
:08105900E8D2A11211CFAF068D
:01106100226C
:040D11007899EFF2EC
:100D150012119D7F90120FE540061211AE7F002241
:100D25007899E24440FF120FE512119D7F91120F51
:100D3500E5121010121039789AEFF21211AE789A66
:100D4500E275F030A4FFAEF07C007DFF12018E78D5
:030D55009AEFF220
:010D58002278
:100EBD007877EFF2E275F0FFA4FFAEF07C007D30A5
:100ECD0012018E7877EFF212119D7F90120FE5408F
:100EDD0002800C7F40120FE57877E2FF120FE512CA
:030EED0011AE2221
:0B000E000000000000000000DFF622F0
:10110E00C2947FFA12000E7FFA12000ED2947F3C28
:0C111E0012000EA29492083094FDA2086A
:01112A0022A2
:02108A00AE07AF
:10108C007D01ED601DC2947F0212000E5E6004D2E1
:10109C00948002C2947F3C12000ED294ED25E0FDA8
:0210AC0080E0E2
:0110AE00221F
:10106200E4FE7D01ED601EC2947F0212000ED29456
:101072007F0212000E3094024EFE7F3C12000EEDF3
:0710820025E0FD80DFAF0651
:011089002244
:1011730012110E920920090A7FCC12108A7F4412A1
:05118300108AA209B36F
:011188002244
:100FB70012110E920A200A227FCC12108A7FBE12CB
:100FC700108A121062AC07121062EFFEAD047C00AB
:0D0FD700E42DFFEC3E8FF0120244A20AB39D
:010FE40022EA
:08000300001803311119000679
:10112B007E01EE60135F6004D2A38002C2A3D2974C
:0A113B00C297EE25E0FE80EAD2A381
:011145002287
:10114600E4FF7E01EE600F30A3024FFFD297C297F5
:06115600EE25E0FE80EE34
:01115C002270
:0A0EF0007878EBF208EAF208E9F264
:100EFA00D2937FBE12112BE4FD7878E2FB0808E258
:100F0A00F92401F218E2FA3400F2120114FF121164
:080F1A002B0DEDB408E3C293B6
:010F220022AC
:0A0F8600787BEBF208EAF208E9F2CA
:100F9000D2937FBF12112BE4FD121146787BE2FB46
:100FA00008E2FA08E2F98D82758300EF12016C0DF8
:060FB000EDB408E5C29358
:010FB6002218
:100D5900E47885F212021918F290000212012D7836
:100D690082F290000312012D7881F29000041201A1
:100D79002D7880F290000512012D787FF2900006FF
:100D890012012D787EF290000712012D7883F27BF3
:080D9900FE7A00797E020EF0E3
:0A0970007886EBF208EAF208E9F2DB
:10097A007BFE7A007989120F86788FE2FF7886E209
:10098A00FB08E2FA08E2F9E48FF0120244788DE2F9
:10099A00FF7886E2FB08E2FA08E2F9900002EF1219
:1009AA00016C788CE290000312016C788BE2900063
:1009BA000412016C788AE290000512016C7889E2CF
:0F09CA0090000612016C788EE290000702016C1B
:1010D00078917C007DFE7BFF7A0079037E007F089B
:1010E0001200EEC293C2977BFE7A007991020D59ED
:03000000020609EC
:0C060900787FE4F6D8FD758121020650D0
:10001E00E709F608DFFA8046E709F208DFFA803EC4
:10002E0088828C83E709F0A3DFFA8032E309F608B1
:10003E00DFFA8078E309F208DFFA807088828C8319
:10004E00E309F0A3DFFA806489828A83E0A3F608CD
:10005E00DFFA805889828A83E0A3F208DFFA804CA7
:10006E0080D280FA80C680D4806980F2803380107E
:10007E0080A680EA809A80A880DA80E280CA8033E7
:10008E0089828A83ECFAE493A3C8C582C8CCC5835F
:10009E00CCF0A3C8C582C8CCC583CCDFE9DEE7802F
:1000AE000D89828A83E493A3F608DFF9ECFAA9F0AE
:1000BE00EDFB2289828A83ECFAE0A3C8C582C8CC04
:1000CE00C583CCF0A3C8C582C8CCC583CCDFEADE1D
:1000DE00E880DB89828A83E493A3F208DFF980CC7F
:1000EE0088F0EF60010E4E60C388F0ED2402B40478
:1000FE000050B9F582EB2402B4040050AF2323451F
:06010E00822390006E73D5
:10011400BB010689828A83E0225002E722BBFE02E9
:09012400E32289828A83E493221C
:10012D00BB010CE58229F582E5833AF583E0225087
:10013D0006E92582F8E622BBFE06E92582F8E222D1
:0D014D00E58229F582E5833AF583E49322EB
:10015A00BB010689828A83F0225002F722BBFE0184
:02016A00F3227E
:10016C00F8BB010DE58229F582E5833AF583E8F0C9
:10017C00225006E92582C8F622BBFE05E92582C875
:02018C00F2225D
:10018E00BC000BBE0029EF8DF084FFADF022E4CC55
:10019E00F875F008EF2FFFEE33FEEC33FCEE9DEC1E
:1001AE00984005FCEE9DFE0FD5F0E9E4CEFD22ED64
:1001BE00F8F5F0EE8420D21CFEADF075F008EF2FAE
:1001CE00FFED33FD4007985006D5F0F222C398FD9F
:0501DE000FD5F0EA223C
:1001E300C2D5EC30E709B2D5E4C39DFDE49CFCEE37
:1001F30030E715B2D5E4C39FFFE49EFE12018EC320
:10020300E49DFDE49CFC800312018E30D507C3E41A
:060213009FFFE49EFE22A5
:10021900BB010A89828A83E0F5F0A3E022500687B0
:10022900F009E71922BBFE07E3F5F009E319228972
:0B023900828A83E493F5F074019322A5
:10024400BB010A89828A83F0E5F0A3F0225006F705
:0F02540009A7F01922BBFE06F3E5F009F3192202
:10026300E88FF0A4CC8BF0A42CFCE98EF0A42CFC3A
:100273008AF0EDA42CFCEA8EF0A4CDA8F08BF0A4B8
:100283002DCC3825F0FDE98FF0A42CCD35F0FCEB17
:100293008EF0A4FEA9F0EB8FF0A4CFC5F02ECD39DC
:0F02A300FEE43CFCEAA42DCE35F0FDE43CFC2249
:1002B20075F008758200EF2FFFEE33FECD33CDCC03
:1002C20033CCC58233C5829BED9AEC99E582984086
:1002D2000CF582EE9BFEED9AFDEC99FC0FD5F0D663
:1002E200E4CEFBE4CDFAE4CCF9A88222B800C1B98D
:1002F2000059BA002DEC8BF084CFCECDFCE5F0CBCB
:10030200F97818EF2FFFEE33FEED33FDEC33FCEB03
:1003120033FB10D703994004EB99FB0FD8E5E4F9BE
:10032200FA227818EF2FFFEE33FEED33FDEC33FCAB
:10033200C933C910D7059BE99A4007EC9BFCE99A9F
:10034200F90FD8E0E4C9FAE4CCFB2275F010EF2FE4
:10035200FFEE33FEED33FDCC33CCC833C810D707E4
:100362009BEC9AE899400AED9BFDEC9AFCE899F81F
:0E0372000FD5F0DAE4CDFBE4CCFAE4C8F922B2
:10038000E8600FECC313FCED13FDEE13FEEF13FF5B
:03039000D8F1227F
:0C039300ECF208EDF208EEF208EFF222A6
:10039F00D083D082E493F208740193F2087402932D
:0903AF00F208740393F274047364
:1006150002071EE493A3F8E493A34003F68001F2D6
:1006250008DFF48029E493A3F85407240CC8C333E6
:10063500C4540F4420C8834004F456800146F6DFB5
:10064500E4800B0102040810204080900568E47ED8
:10065500019360BCA3FF543F30E509541FFEE493AA
:10066500A360010ECF54C025E060A840B8E493A371
:10067500FAE493A3F8E493A3C8C582C8CAC583CA9C
:10068500F0A3C8C582C8CAC583CADFE9DEE780BE54
:0106080000F1
:00000001FF
