:040B5D0001051E3C34
:1004D500C101C100011C00011800011A0001190029
:1004E500011B00011D010A0D0000000000000000B5
:1004F5000000011700010800010900010A00010BB5
:0405050000010C00E5
:10072900E4F524F523F522F521D2AFC294D2931230
:100739000A97120B037F017E0012054F7F327E005C
:100749001205C8E4FBFA7D01FCFFFE120A55E4FB21
:10075900FAFDFC7F01FE120A55754BBF1206B6E57C
:100769001DB40212300005C2001206413001EDC26B
:100779000112092980E6E51DB403E11208F080DCC5
:1008B4008F27E527B43402802DE527B4350DE51CD8
:1008C4007003751C01751D02020641E527B4360E3E
:1008D40005171208F0E517B40A11E4F51722E52705
:0C08E400B43708751D011208328F1C2269
:10092900E508C3940A50297B007A00792512095FEA
:100939005021E526AE257804CEA2E713CE13D8F8C8
:10094900F5268E25FF740D2508F8A60705088003EE
:06095900751D03020B03F3
:1008320078287C007D007BFF7A0B795D7E007F0447
:100842001200EEE50914600C14600914600A240316
:100852007017800005098003E4F50974282509F85A
:10086200E6FFE4FCFDFE1203B174282509F8E6FF59
:010872002263
:1008F000754DFF754CFF754BBFE517FD7C00E4FBA4
:10090000FA7F05FE120A55740D2517F8E6FF75F0FB
:100910000A84E5F0900B4D93F549EF75F00A847564
:09092000F00A84E5F093F54A2287
:100641007BFE7A0079001207897804E2C4540FFD19
:100651007C00E4FBFA7F05FE120A557804E2540F90
:10066100FD7C007B017A007F047E00120A5578052B
:10067100E2C4540FFD7C00E4FBFA7F03FE120A552D
:100681007805E2540FFD7C007B017A007F027E0039
:10069100120A557806E2C4540FFD7C00E4FBFA7F90
:1006A10001FE120A557806E2540FFD7C00E4FBFAC4
:0506B100FFFE020A55E6
:10054F0075280075271075260E752500E4FCFDAB88
:10055F0028AA27A926A8251201ADE47BE87A03F97A
:10056F00F81202388F288E278D268C25C3E4952804
:10057F00F528E49527F52774019526F526E49525AA
:10058F00F525E5282412F528E43527F527E4352647
:10059F00F526E43525F525AF28AE27AD26FC7808DE
:1005AF001202CA8F1885281A5389F04389018518BA
:0805BF008C851A8AD2A9D28CA6
:0105C7002211
:1005C80075280075271075260E752500E4FCFDAB0F
:1005D80028AA27A926A8251201ADE47BE87A03F901
:1005E800F81202388F288E278D268C25C3E495288B
:1005F800F528E49527F52774019526F526E4952531
:10060800F525E5282412F528E43527F527E43526CD
:10061800F526E43525F525AF28AE27AD26FC780864
:100628001202CA8F1985281B53890F43891085190F
:080638008D851B8BD2ABD28E25
:010640002297
:03000B000207E009
:1007E000C0E0C0F0C083C082C0D075D000C000C0DF
:0D07F00001C002C003C004C005C006C00760
:1007FD0085188C851A8A120A761202DD050AE50A19
:0A080D00C394C84005D200750A002C
:10081700D007D006D005D004D003D002D001D00035
:0B082700D0D0D082D083D0F0D0E032DF
:03001B000209B720
:0409B700C0E0C0D00C
:1009BB0085198D851B8B050BE50BC39414401075A6
:0F09CB000B00050CE50C951C4005750C00D201C6
:0509DA00D0D0D0E03296
:100B3D00313233263435362537383928301B0D27D9
:10050900901801010101010101010101010101012C
:10051900010190080101010101010101010101012C
:10052900010101010137001038FFFFFFFFFFFFFF45
:09053900FFFFFFFFFFFFFFFFFFC2
:1006B600E4F525E4F526E52525E025E0241825269C
:1006C600F8E2FFE52525E025E024082526F8E2FEE8
:1006D6006F603DEE6020E52525E025E0243DF582AE
:1006E600E4340BF583E5822526F582E43583F5832C
:1006F600E493FF1208B4E52525E025E02418252615
:10070600F8E2FFE52525E025E024082526F8EFF2A6
:100716000526E526C39404409D0525E525C39404D6
:02072600409100
:0107280022AE
:1002DD00E53725E025E02438F8E625E0FFA2A4E483
:1002ED00334FFFE53725E025E02438F8A607E5373D
:1002FD0025E025E02439F8E625E0FFA2A5E4334FFB
:10030D00FFE53725E025E02439F8A607E53725E098
:10031D0025E0243AF8E625E0FFA2A6E4334FFFE5F9
:10032D003725E025E0243AF8A607E53725E025E056
:10033D00243BF8E625E0FFA2A7E4334FFFE5372580
:10034D00E025E0243BF8A607E4FFE53725E025E0AE
:10035D0024382FF8E6540FFE700EE53725E025E022
:10036D0024182FF8E4F28010BE0F0DE53725E02597
:10037D00E024182FF87401F20FBF04CE0537533760
:10038D0003E53714600F1460111460132403701308
:10039D00D2A0C2A322D2A3C2A222D2A2C2A122D291
:0303AD00A1C2A04A
:0103B000222A
:100B4D00C0F9A4B0999282F880908883C6A1868E50
:0C0542000749FFFFFFFFFFFFFF0148001B
:0803B1008F2F8E2E8D2D8C2C58
:1003B900E4F530E47B0AFAF9F8AF2FAE2EAD2DAC97
:1003C9002C120238AF0374312530F8A607AF2FAECF
:1003D9002EAD2DAC2CE47B0AFAF9F81202388F2FD6
:1003E9008E2E8D2D8C2C0530E530B406C675300562
:1003F90074312530F8E6700FE530640260097449FC
:100409002530F876FF800AE530B402082449F876E9
:10041900BFD530DCC3E53064809480401674312543
:1004290030F8E6900B4D93FF74492530F8A607156F
:0F0439003080E1E54AB4FF07900B4DE493F54A9C
:010448002291
:100A55008E288F29ED900B4D93FFAE2974492EF802
:100A6500A607EB4A600874492EF8E6547FF6AF05F1
:010A7500225E
:100A76007580FFE59054F84548F59074492548F887
:100A8600E6F580E548C394065003054822E4F54898
:010A9600223D
:080003002014010123595003F0
:100AD1007E01EE60135F6004D2B48002C2B4D2B56D
:0A0AE100C2B5EE25E0FE80EAD2B4B3
:010AEB0022E8
:100AEC00E4FF7E01EE600F30B4024207D2B5C2B50E
:060AFC00EE25E0FE80EE95
:010B020022D0
:100B1900D297EF25E04480FF120AD1AF05120AD11E
:030B2900C297224E
:100B2C00D297EF25E04481FF120AD1120AECC2974A
:010B3C002296
:0609DF008B2D8A2E892FEA
:1009E500D2977FBE120AD1E4FDAB2DAA2EA92F8D79
:1009F50082758300120114FF120AD10DBD08EAC2E7
:010A05009759
:010A060022CD
:060A07008B338A348935AF
:100A0D00D2977FBF120AD1E4FD120AECAB33AA34A0
:100A1D00A9358D82758300EF1201410DBD08EAC223
:010A2D009731
:010A2E0022A5
:060789008B288A29892A51
:10078F007B007A00792B120A07E42531FFE434202D
:10079F00AB28AA29A92A8FF012018EAB28AA29A962
:1007AF002A900002E52F120141900003E52E12015D
:1007BF0041900004E52D120141900005E52C120136
:1007CF0041900006E52B120141900007E530020130
:0107DF0041D8
:10087300E4F52C120163F52B900007120114F52AFD
:10088300900002120114F529900003120114F528B7
:10089300900004120114F527900005120114F526A7
:1008A300900006120114F5257B007A0079250209D0
:0108B300DF65
:100A9700C297C2B5E4FF120B2CEF30E710E4FD7FDD
:0D0AA70007120B197BFF7A00790312087308
:010AB400221F
:0B000E000000000000000000DFF622F0
:100AB500C2AFC2B27F3212000ED2B27F0612000E52
:0B0AC500A2B2920330B2FDD2AFA20338
:010AD0002203
:020A2F00AE0710
:100A3100C2AF7D01ED601AC2B200005E7004C2B2A5
:100A41008002D2B27F0612000ED2B2ED25E0FD8007
:030A5100E3D2AF3E
:010A5400227F
:10098D00C2AF7D01ED601EC2B20000D2B2000020E8
:10099D00B205F452068003ED42067F0612000EEDFD
:0909AD0025E0FD80DFD2AFAF06AA
:0109B600221E
:100B0300120AB5920220020A7FCC120A2F7F4412E6
:050B13000A2FA202B34D
:010B180022BA
:10095F00120AB592022002227FCC120A2F7FBE12FA
:10096F000A2F12098DAC0712098DEFFEAD047C0022
:0D097F00E42DFFEC3E8FF012018EA202B3BA
:01098C002248
:03000000020449AE
:0C044900787FE4F6D8FD75814F02049026
:10001E00E709F608DFFA8046E709F208DFFA803EC4
:10002E0088828C83E709F0A3DFFA8032E309F608B1
:10003E00DFFA8078E309F208DFFA807088828C8319
:10004E00E309F0A3DFFA806489828A83E0A3F608CD
:10005E00DFFA805889828A83E0A3F208DFFA804CA7
:10006E0080D280FA80C680D4806980F2803380107E
:10007E0080A680EA809A80A880DA80E280CA8033E7
:10008E0089828A83ECFAE493A3C8C582C8CCC5835F
:10009E00CCF0A3C8C582C8CCC583CCDFE9DEE7802F
:1000AE000D89828A83E493A3F608DFF9ECFAA9F0AE
:1000BE00EDFB2289828A83ECFAE0A3C8C582C8CC04
:1000CE00C583CCF0A3C8C582C8CCC583CCDFEADE1D
:1000DE00E880DB89828A83E493A3F208DFF980CC7F
:1000EE0088F0EF60010E4E60C388F0ED2402B40478
:1000FE000050B9F582EB2402B4040050AF2323451F
:06010E00822390006E73D5
:10011400BB010CE58229F582E5833AF583E02250A0
:1001240006E92582F8E622BBFE06E92582F8E222EA
:0D013400E58229F582E5833AF583E4932204
:10014100F8BB010DE58229F582E5833AF583E8F0F4
:10015100225006E92582C8F622BBFE05E92582C8A0
:02016100F22288
:10016300BB010A89828A83E0F5F0A3E02250068767
:10017300F009E71922BBFE07E3F5F009E319228929
:0B018300828A83E493F5F0740193225C
:10018E00BB010A89828A83F0E5F0A3F0225006F7BC
:0F019E0009A7F01922BBFE06F3E5F009F31922B9
:1001AD00E88FF0A4CC8BF0A42CFCE98EF0A42CFCF1
:1001BD008AF0EDA42CFCEA8EF0A4CDA8F08BF0A46F
:1001CD002DCC3825F0FDE98FF0A42CCD35F0FCEBCE
:1001DD008EF0A4FEA9F0EB8FF0A4CFC5F02ECD3993
:0F01ED00FEE43CFCEAA42DCE35F0FDE43CFC2200
:1001FC0075F008758200EF2FFFEE33FECD33CDCCBA
:10020C0033CCC58233C5829BED9AEC99E58298403C
:10021C000CF582EE9BFEED9AFDEC99FC0FD5F0D619
:10022C00E4CEFBE4CDFAE4CCF9A88222B800C1B943
:10023C000059BA002DEC8BF084CFCECDFCE5F0CB81
:10024C00F97818EF2FFFEE33FEED33FDEC33FCEBBA
:10025C0033FB10D703994004EB99FB0FD8E5E4F975
:10026C00FA227818EF2FFFEE33FEED33FDEC33FC62
:10027C00C933C910D7059BE99A4007EC9BFCE99A56
:10028C00F90FD8E0E4C9FAE4CCFB2275F010EF2F9B
:10029C00FFEE33FEED33FDCC33CCC833C810D7079B
:1002AC009BEC9AE899400AED9BFDEC9AFCE899F8D6
:0E02BC000FD5F0DAE4CDFBE4CCFAE4C8F92269
:1002CA00E8600FECC313FCED13FDEE13FEEF13FF12
:0302DA00D8F12236
:10045500020729E493A3F8E493A34003F68001F28D
:1004650008DFF48029E493A3F85407240CC8C333A8
:10047500C4540F4420C8834004F456800146F6DF77
:10048500E4800B01020408102040809004D5E47E2E
:10049500019360BCA3FF543F30E509541FFEE4936C
:1004A500A360010ECF54C025E060A840B8E493A333
:1004B500FAE493A3F8E493A3C8C582C8CAC583CA5E
:1004C500F0A3C8C582C8CAC583CADFE9DEE780BE16
:01054E0000AC
:00000001FF
