:0B0D12000000000000000000DFF622DF
:100C6400C2AFC2947FFA120D127FFA120D12D294FF
:100C74007F3C120D12A29492023094FDD2AFA202D4
:010C8400224D
:020C1400AE0729
:100C1600C2AF7D01ED601DC2947F02120D125E60AF
:100C260004D2948002C2947F3C120D12D294ED2518
:060C3600E0FD80E0D2AFFA
:010C3C002295
:100BE800E4FEC2AF7D01ED601EC2947F02120D12B9
:100BF800D2947F02120D123094024EFE7F3C120DE9
:0B0C080012ED25E0FD80DFD2AFAF064B
:010C130022BE
:100CB700120C64920120010A7FCC120C147F44129B
:050CC7000C14A201B3B2
:010CCC002205
:100B8D00120C6492012001227FCC120C147FBE1234
:100B9D000C14120BE8AC07120BE8EFFEAD047C0051
:0D0BAD00E42DFFEC3E8FF01201CDA201B34C
:010BBA002218
:080003000018032123595003EA
:100C85007E01EE60135F6004D2A38002C2A3D297F7
:0A0C9500C297EE25E0FE80EAD2A32C
:010C9F002232
:100CA000E4FF7E01EE600F30A3024FFFD297C297A0
:060CB000EE25E0FE80EEDF
:010CB600221B
:100CCD00D293EF25E04480FF120C85AF05120C8501
:030CDD00C293229D
:100CE000D293EF25E04481FF120C85120CA0C29331
:020CF000C2A39D
:010CF20022DF
:0A0B27007880EBF208EAF208E9F228
:100B3100D2937FBE120C85E4FD7880E2FB0808E2C7
:100B4100F92401F218E2FA3400F2120104FF120C46
:080B5100850DEDB408E3C29329
:010B59002279
:0A0B5A00787EEBF208EAF208E9F2F7
:100B6400D2937FBF120C85E4FD120CA0787EE2FBC9
:100B740008E2FA08E2F98D82758300EF12014A0D4A
:080B8400EDB408E5C293C2A321
:010B8C002246
:100A6300E4787FF21201A218F290000212011D78BD
:100A73007CF290000312011D787BF29000041201B6
:100A83001D787AF290000512011D7879F290000624
:100A930012011D7878F290000712011D787DF27B18
:080AA300FE7A007978020B27AE
:0A0902007873EBF208EAF208E9F25C
:10090C007BFE7A007976120B5A787CE2FF7873E2E0
:10091C00FB08E2FA08E2F9E48FF01201CD787AE2F2
:10092C00FF7873E2FB08E2FA08E2F9900002EF129A
:10093C00014A7879E290000312014A7878E290003B
:10094C000412014A7877E290000512014A7876E2A7
:0F095C0090000612014A787BE290000702014AE0
:100C3D0078707C007DFE7BFF7A0079037E007F0853
:100C4D001200DEC293C297E4FD7F07120CCD7BFE2E
:070C5D007A007970020A63BE
:100CF300313233193435361837383917301B0D165E
:10072D0090210101010101010101010101010101FD
:10073D00010190000101010101010101010101010E
:10074D00010101018110009011FFFFFFFFFFFFFF6D
:09075D00FFFFFFFFFFFFFFFFFF9C
:1006AC00E47870F2E47871F27871E2C394045065E6
:1006BC00E2FF18E2FE25E025E024002FF8E2FDEE33
:1006CC0025E025E024212FF8E26D6042ED602378CF
:1006DC0071E2FF18E225E025E024F3F582E4340C06
:1006EC00F583E5822FF582E43583F583E493FF12DD
:1006FC00096B7871E2FF18E2FE25E025E024212F3A
:10070C00F8E2FDEE25E025E024002FF8EDF27871FB
:10071C00E204F280937870E204F2E2C39404408421
:01072C0022AA
:100396007810E214601014601314601624037016AB
:1003A600C2B0D2B38010C2B1D2B0800AC2B2D2B14A
:1003B6008004C2B3D2B27810E2FF25E025E0241112
:1003C600F8E225E0FEA2C4E4334EFEEF25E025E088
:1003D6002411F8EEF27810E2FF25E025E02412F869
:1003E600E225E0FEA2C2E4334EFEEF25E025E0243E
:1003F60012F8EEF27810E2FF25E025E02413F8E289
:1004060025E0FEA2B5E4334EFEEF25E025E02413F9
:10041600F8EEF27810E2FF25E025E02414F8E22554
:10042600E0FEA2B4E4334EFEEF25E025E02414F806
:10043600EEF2E4FF7810E2FE25E025E024112FF825
:10044600E2540FFDBD0F0EEE25E025E024212FF826
:100456007401F2800EED700BEE25E025E024212FCD
:10046600F8E4F20FEFB404CC7810E204F2E254039D
:01047600F293
:010477002262
:10076600813400813701C104C10381310082320026
:010776000082
:10082200D200D2AF120D037F017E00120625120BF9
:10083200BB120C3D120CB71206AC7834E2B40117AD
:10084200300307C203D201120A183004EA2006E775
:10085200C2041209C580E07834E2B402DAC201129D
:1008620007AB3003D23005CFC203300012C200E51D
:10087200A0541F4480F5A07580FE53A01F80B8D2FB
:1008820000E5A0541F4480F5A07580FF53A01F808F
:01089200A6BF
:0F0D0300E5A0541F44A0F5A05380AF53A01F22BA
:04062500AB07AA066F
:100629007870120328000E1000AE02AF03E4FCFD3F
:100639007870E2FB08E2F908E2FA08E2CBF8120165
:10064900ECE47BE87A03F9F8120277787012031C5C
:100659007870E2FB08E2F908E2FA08E2CBF8C3E4B1
:100669009BFFE49AFE740199FDE498FC78701203EB
:100679001C7870E2FC08E2FD08E2FE08E2FF780857
:100689001203097835EFF27870080808E27836F233
:100699005389F043890118E2F58C08E2F58AD2A959
:0206A900D28CF1
:0106AB00222C
:03000B0002059D4E
:10059D00C0E0C0F0C083C082C0D075D000C000C024
:0D05AD0001C002C003C004C005C006C007A5
:1005BA007835E2F58C08E2F58A7833E22401F218FC
:1005CA00E23400F218E204F2120396120AAB78310E
:1005DA00E2C394C84004E4F2D2037833E2B4E820D8
:1005EA0018E2B4031BE4F208F22006147837E20496
:1005FA00F27859E2FF7837E2C39F4004E4F2D2046A
:10060A00D007D006D005D004D003D002D001D00044
:0B061A00D0D0D082D083D0F0D0E032EE
:10077700815901943C0000000000000000000000C7
:10078700000000000000000000C106C10581500004
:06079700813A00813B00E5
:100A18003001097BFE7A0079511209027857E2FF0A
:100A2800540F900D2793785BF2EFC4540F9308F29C
:100A38000874BFF27856E2FF540F93785EF2EFC461
:100A4800540F9308F20874BFF27855E2FF540F93DD
:0B0A58007861F2EFC4540F9308F22203
:10089300120CB77BFE7A007938120B8D7938E3FEA0
:1008A30009E37804CEA2E713CE13D8F8F3EE793830
:1008B300F37F07745B2FF874FFF21FEFB402F47831
:1008C30038E2FA08E2FB7C007D0AFFAE0212016CFB
:1008D30074272DF582740D3CF583E493785CF27CE8
:1008E300007D0AAF03AE0212016C74272FF58274E8
:0E08F3000D3EF583E493785DF2785B74C6F2F7
:0109010022D3
:1009C500783AE2C3940A503D120CB77BFE7A00795F
:1009D50070120B8D503C7970E3FE09E37804CEA2CA
:1009E500E713CE13D8F8F3EE7970F37870E2FE08CA
:1009F500E2FF783AE225E0243CF8EEF208EFF278DF
:100A05003AE204F222E4783AF2D206D20578347456
:020A150002F2EB
:010A170022BC
:100BBB007F07745B2FF874FFF21FEFB402F4785DBC
:100BCB0074BFF27859E2FF75F00A84900D27937881
:0C0BDB005CF2EF75F00A84E5F09318F26C
:010BE70022EB
:100AF100783BE21460111460151460192403701A14
:100B010078597405F280137859741EF2800C785963
:100B1100743CF2800578597401F2783BE204F2E208
:060B21005403F2020BBBBD
:0A0D1D0078347401F2D201020A18C2
:1007AB00786274BFF27850E2FF75F00A84900D27DF
:1007BB00937861F2EF75F00A84E5F09318F21874F0
:1007CB00FFF218F21874BFF27850E225E0243CF8DF
:1007DB00E2FA08E2FB7C007D0AFFAE0212016C74A8
:1007EB00272FF582740D3EF583E493785CF27C0041
:1007FB007D0AAF03AE0212016C74272DF582740DC6
:10080B003CF583E493785BF230010B7850E204F211
:07081B00E2B40A02E4F2223C
:10096B007872EFF2BF30087834E2704D020AF178FA
:10097B0072E2B437087834E2703F020D1D7872E2F0
:10098B00F9B4341C7834E26402702EC205E5A0542D
:10099B001F4480F5A07580FF53A01FD2010207AB47
:1009AB00E9B431157834E2B4020FE4F2785904F269
:0A09BB00E47850F2C206120BBB22D2
:0A0D2700C0F9A4B0999282F8809000
:0D079D00885BFFFFFFFFFFFFFFFF815A0099
:100AAB00E5A0541F44E0F5A07580FF53A01FE5A0FF
:100ABB00541F44C0F5A0785AE2FF7480A807088041
:100ACB0002C313D8FCF58053A01FE5A0541F44E0CC
:100ADB00F5A0745B2FF8E2F58053A01F785AE2045F
:050AEB00F2E25407F2E5
:010AF00022E3
:05047800786312031C73
:10047D00E4786FF2E47B0AFAF9F8C0007863E2FCE5
:10048D0008E2FD08E2FE08E2FFD000120277786F65
:10049D00E22467F8EBF27863E2FC08E2FD08E2FE85
:1004AD0008E2FFE47B0AFAF9F81202777863120387
:1004BD001C786FE204F2E2B408BA786F7407F27830
:1004CD006FE2FFD364809480401774672FF8E27059
:1004DD0010786FE2245BF874FFF2786FE214F2800B
:1004ED00DE786FE2C3648094804018E2FF2467F8E1
:1004FD00E2900D2793FE745B2FF8EEF2786FE21405
:03050D00F280DE9B
:0105100022C8
:03000000020511E5
:0C051100787FE4F6D8FD758120020558C3
:10000E00E709F608DFFA8046E709F208DFFA803ED4
:10001E0088828C83E709F0A3DFFA8032E309F608C1
:10002E00DFFA8078E309F208DFFA807088828C8329
:10003E00E309F0A3DFFA806489828A83E0A3F608DD
:10004E00DFFA805889828A83E0A3F208DFFA804CB7
:10005E0080D280FA80C680D4806980F2803380108E
:10006E0080A680EA809A80A880DA80E280CA8033F7
:10007E0089828A83ECFAE493A3C8C582C8CCC5836F
:10008E00CCF0A3C8C582C8CCC583CCDFE9DEE7803F
:10009E000D89828A83E493A3F608DFF9ECFAA9F0BE
:1000AE00EDFB2289828A83ECFAE0A3C8C582C8CC14
:1000BE00C583CCF0A3C8C582C8CCC583CCDFEADE2D
:1000CE00E880DB89828A83E493A3F208DFF980CC8F
:1000DE0088F0EF60010E4E60C388F0ED2402B40488
:1000EE000050B9F582EB2402B4040050AF2323452F
:0600FE00822390005E73F6
:10010400BB010689828A83E0225002E722BBFE02F9
:09011400E32289828A83E493222C
:10011D00BB010CE58229F582E5833AF583E0225097
:10012D0006E92582F8E622BBFE06E92582F8E222E1
:0D013D00E58229F582E5833AF583E49322FB
:10014A00F8BB010DE58229F582E5833AF583E8F0EB
:10015A00225006E92582C8F622BBFE05E92582C897
:02016A00F2227F
:10016C00C2D5EC30E709B2D5E4C39DFDE49CFCEEAE
:10017C0030E715B2D5E4C39FFFE49EFE120341C3E2
:10018C00E49DFDE49CFC800312034130D507C3E4DD
:06019C009FFFE49EFE221D
:1001A200BB010A89828A83E0F5F0A3E02250068728
:1001B200F009E71922BBFE07E3F5F009E3192289EA
:0B01C200828A83E493F5F0740193221D
:1001CD00BB010A89828A83F0E5F0A3F0225006F77D
:0F01DD0009A7F01922BBFE06F3E5F009F319227A
:1001EC00E88FF0A4CC8BF0A42CFCE98EF0A42CFCB2
:1001FC008AF0EDA42CFCEA8EF0A4CDA8F08BF0A430
:10020C002DCC3825F0FDE98FF0A42CCD35F0FCEB8E
:10021C008EF0A4FEA9F0EB8FF0A4CFC5F02ECD3953
:0F022C00FEE43CFCEAA42DCE35F0FDE43CFC22C0
:10023B0075F008758200EF2FFFEE33FECD33CDCC7A
:10024B0033CCC58233C5829BED9AEC99E5829840FD
:10025B000CF582EE9BFEED9AFDEC99FC0FD5F0D6DA
:10026B00E4CEFBE4CDFAE4CCF9A88222B800C1B904
:10027B000059BA002DEC8BF084CFCECDFCE5F0CB42
:10028B00F97818EF2FFFEE33FEED33FDEC33FCEB7B
:10029B0033FB10D703994004EB99FB0FD8E5E4F936
:1002AB00FA227818EF2FFFEE33FEED33FDEC33FC23
:1002BB00C933C910D7059BE99A4007EC9BFCE99A17
:1002CB00F90FD8E0E4C9FAE4CCFB2275F010EF2F5C
:1002DB00FFEE33FEED33FDCC33CCC833C810D7075C
:1002EB009BEC9AE899400AED9BFDEC9AFCE899F897
:0E02FB000FD5F0DAE4CDFBE4CCFAE4C8F9222A
:10030900E8600FECC313FCED13FDEE13FEEF13FFD2
:03031900D8F122F6
:0C031C00ECF208EDF208EEF208EFF2221D
:10032800D083D082E493F208740193F208740293A4
:09033800F208740393F2740473DB
:10051D00020822E493A3F8E493A34003F68001F2CA
:10052D0008DFF48029E493A3F85407240CC8C333DF
:10053D00C4540F4420C8834004F456800146F6DFAE
:10054D00E4800B010204081020408090072DE47E0A
:10055D00019360BCA3FF543F30E509541FFEE493A3
:10056D00A360010ECF54C025E060A840B8E493A36A
:10057D00FAE493A3F8E493A3C8C582C8CAC583CA95
:10058D00F0A3C8C582C8CAC583CADFE9DEE780BE4D
:0107AA00004E
:10034100BC000BBE0029EF8DF084FFADF022E4CCA0
:10035100F875F008EF2FFFEE33FEEC33FCEE9DEC69
:10036100984005FCEE9DFE0FD5F0E9E4CEFD22EDAF
:10037100F8F5F0EE8420D21CFEADF075F008EF2FF9
:10038100FFED33FD4007985006D5F0F222C398FDEA
:050391000FD5F0EA2287
:00000001FF
