:10092100810C00C101C102C103810100810D00825E
:100931000800018206000A82040000820A0000C148
:040941000081000031
:10099E00788B740BF2E408F208F2D2AF12121E7FBB
:1009AE00017E0012081812122D1210E312089F3049
:1009BE000149C201780CE2700312057B780AE2FE4F
:1009CE0008E2FFC37807E29F18E29E5004E4FF801E
:1009DE0027780AE2FE08E2FFC37807E29FFD18E2DD
:1009EE009EFCE41201197BCD7ACC794C783E120034
:1009FE000E120152788DEFF2120F7A3003AEC2034F
:050A0E00120E6180A73B
:100E610020000FD200E5A0541F4480F5A07580FE3C
:100E7100800DC200E5A0541F4480F5A07580FF538A
:100E8100A01F780DE204F2E2C394064015E4F2C219
:100E9100027801F2E5A0541F4480F5A07580FF534C
:020EA100A01F90
:010EA300222C
:1010E300E4788FF218F2788EE2FDC3940A50157BF0
:1010F300FE7A00798F78967401F2120C88788EE26A
:0411030004F280E290
:0111070022C5
:0F121E00E5A0541F44A0F5A05380AF53A01F229A
:04081800AB07AA067A
:10081C00788E120562000E1000AE02AF03E4FCFDF0
:10082C00788EE2FB08E2F908E2FA08E2CBF812044F
:10083C0018E47BE87A03F9F81204A3788E120556B3
:10084C00788EE2FB08E2F908E2FA08E2CBF8C3E49E
:10085C009BFFE49AFE740199FDE498FC788E1205D6
:10086C0056788EE2FC08E2FD08E2FE08E2FF78080A
:10087C001205437802EFF2788E080808E27803F24A
:10088C005389F043890118E2F58C08E2F58AD2A964
:02089C00D28CFC
:01089E002237
:0612430000007F21DFFE28
:011249002282
:0B122D0053890F438910C28FC28E222C
:10119C007890E2FF14F2EF600CD290121243C290DE
:0511AC0012124380EB6C
:0111B100221B
:10057B00E4788EF208F2F58DF58B12119CD28E2059
:10058B008F032091FAC28E7861E27872F21874FFB1
:10059B00F2308F0CC28F7804E2FF08E208CF80267E
:1005AB00AF8DEFFEAD8B7C00E42DFFEC3EFEAD0777
:1005BB00FCE41201197B967A43798B783C12000E7E
:1005CB001201527806EEF208EFF27806E2FA08E230
:1005DB00FB7C007D0AFFAE0212034374612DF8E22F
:1005EB00786BF27C007D0AAF03AE021203437C00F2
:1005FB007D0A12034374612DF8E2786CF27806E2FF
:10060B00FA08E2FB7C007D64FFAE021203437C0020
:10061B007D0A12034374612DF8E2786DF27809E2DA
:10062B00700218E2700F7804E2FF08E2788ECFF2C6
:10063B0008EFF2800C7805E22B798FF318E23A1968
:10064B00F3788EE2FA08E2FB7C007D0AFFAE021221
:10065B00034374612DF8E2786EF27C007D0AAF03E0
:10066B00AE021203437C007D0A12034374612DF822
:10067B00E2786FF2788EE2FE08E2FF7C007D641276
:10068B0003437C007D0A12034374612DF8E27870FA
:0E069B00F27806E2FF08E27804CFF208EFF2F0
:0106A900222E
:03000B00020A8264
:100A8200C0E0C0F0C083C082C0D075D000C000C03A
:0D0A920001C002C003C004C005C006C007BB
:100A9F007802E2F58C08E2F58A7800E204F230027F
:100AAF000E08E204F2E2C394C84004E4F2D20378E1
:100ABF0000E2C394C84004E4F2D2011206AA120E57
:010ACF001B0B
:100AD000D007D006D005D004D003D002D001D0007A
:0B0AE000D0D0D082D083D0F0D0E03224
:0B1238000000000000000000DFF622B4
:10114D00C2947FFA1212387FFA121238D2947F3C71
:0C115D00121238A29492043094FDA204F7
:011169002263
:02110800AE0730
:10110A007D01ED601DC2947F021212385E6004D226
:10111A00948002C2947F3C121238D294ED25E0FDED
:02112A0080E063
:01112C0022A0
:1010BB00E4FE7D01ED601EC2947F02121238D294C1
:1010CB007F021212383094024EFE7F3C121238ED22
:0710DB0025E0FD80DFAF06F8
:0110E20022EB
:1011B20012114D920520050A7FCC1211087F4412AC
:0511C2001108A205B3B5
:0111C7002205
:1010100012114D92062006227FCC1211087FBE12BB
:1010200011081210BBAC071210BBEFFEAD047C0020
:0D103000E42DFFEC3E8FF01203F9A206B391
:01103D002290
:080003000018033100000006A3
:10116A007E01EE60135F6004D2A38002C2A3D2970D
:0A117A00C297EE25E0FE80EAD2A342
:011184002248
:10118500E4FF7E01EE600F30A3024FFFD297C297B6
:06119500EE25E0FE80EEF5
:01119B002231
:0A0F4700780EEBF208EAF208E9F276
:100F5100D2937FBE12116AE4FD780EE2FB0808E22B
:100F6100F92401F218E2FA3400F21202C9FF121157
:080F71006A0DEDB408E3C29320
:010F79002255
:0A0FDF007811EBF208EAF208E9F2DB
:100FE900D2937FBF12116AE4FD1211857811E2FBD9
:100FF90008E2FA08E2F98D82758300EF1203210DE8
:06100900EDB408E5C293FE
:01100F0022BE
:100D4400E4781BF21203CE18F29000021202E27849
:100D540018F29000031202E27817F29000041202D3
:100D6400E27816F29000051202E27815F29000067D
:100D74001202E27814F29000071202E27819F27B70
:080D8400FE7A007914020F470A
:0A0AEB00781CEBF208EAF208E9F2C9
:100AF5007BFE7A00791F120FDF7825E2FF781CE272
:100B0500FB08E2FA08E2F9E48FF01203F97823E230
:100B1500FF781CE2FB08E2FA08E2F9900002EF1206
:100B250003217822E29000031203217821E290004C
:100B3500041203217820E2900005120321781FE2B8
:0F0B45009000061203217824E29000070203219A
:10112D0078277C007DFE7BFF7A0079037E007F08A7
:10113D001202A3C293C2977BFE7A007927020D4457
:1011FE00313233193435361837383917301B0D164E
:1009450090500101010101010101010101010101B4
:100955000101902F010101010101010101010101C5
:1009650001010101813F009040FFFFFFFFFFFFFFF5
:09097500FFFFFFFFFFFFFFFFFF82
:10089F00E4788EF2E4788FF2788FE2C39404506696
:1008AF00E2FF18E2FE25E025E024502FF8E2FDEEEE
:1008BF0025E025E0242F2FF8E2FF6D6026EF60235F
:1008CF00788FE2FF18E225E025E024FEF582E4347C
:1008DF0011F583E5822FF582E43583F583E493FFE9
:1008EF00120BBB788FE2FF18E2FE25E025E02450C3
:1008FF002FF8E2FDEE25E025E0242F2FF8EDF2781A
:10090F008FE204F28092788EE204F2E2C394044004
:01091F008354
:0109200022B4
:1006AA00783FE21460101460131460162403701665
:1006BA00C2B0D2B38010C2B1D2B0800AC2B2D2B133
:1006CA008004C2B3D2B2783FE2FF25E025E024409D
:1006DA00F8E225E0FEA2C4E4334EFEEF25E025E071
:1006EA002440F8EEF2783FE2FF25E025E02441F8C5
:1006FA00E225E0FEA2C2E4334EFEEF25E025E02427
:10070A0041F8EEF2783FE2FF25E025E02442F8E2E4
:10071A0025E0FEA2B5E4334EFEEF25E025E02442B3
:10072A00F8EEF2783FE2FF25E025E02443F8E225DF
:10073A00E0FEA2B4E4334EFEEF25E025E02443F8C0
:10074A00EEF2E4FF783FE2FE25E025E024402FF8B0
:10075A00E2540FFDBD0F0EEE25E025E024502FF8E0
:10076A007401F2800EED700BEE25E025E024502F87
:10077A00F8E4F20FEFB404CC783FE204F2E2540357
:01078A00F27C
:01078B00224B
:10097E008A61C0F9A4B0999282F88090886BFFFFCB
:09098E00FFFFFFFFFFFF81600085
:100E1B00E5A0541F44E0F5A07580FF53A01FE5A08B
:100E2B00541F44C0F5A07860E2FF7480A8070880C7
:100E3B0002C313D8FCF58053A01FE5A0541F44E058
:100E4B00F5A0746B2FF8E2F58053A01F7860E204D5
:050E5B00F2E25407F271
:010E6000226F
:100DD400E4FEEF75F00A8474732EF8E5F0F2EF7513
:100DE400F00A84FF0EEEB408E97E0774732EF8E26D
:100DF4007009746B2EF874FFF2DEF0C3EE64809415
:100E040080401374732EF8E22461F8E2FF746B2EB1
:060E1400F8EFF21E80E57C
:010E1A0022B5
:06099700817F0081800059
:100CE7003007097BFE7A007981120AEB7885E2FFEB
:100CF700C4540F2461F8E27872F2EF540F2461F8BC
:100D0700E27871F21874BFF27886E2FFC4540F24B8
:100D170061F8E2786FF2EF540F2461F8E2786EF22F
:100D27001874BFF27887E2FFC4540F2461F8E278A1
:0D0D37006CF2EF540F2461F8E2786BF222A9
:100A13007BFE7A00797B1210101211B2797BE3FE10
:100A230009E37804CEA2E713CE13D8F8F3EE797B6B
:100A3300F3787BE2FE08E2FFD39400EE64809480B7
:100A43004010EF9463EE64809480500608EEF20841
:100A5300EFF2787DE2FA08E2FB7C007D0AFFAE024A
:100A630012039874612FF8E2786CF27C007D0AAF70
:0E0A730003AE0212039874612DF8E2786BF264
:010A81002252
:1011C800786B74FFF208F208F208F208F208F208E5
:0411D800F208F22205
:100B5400787FE2FF75F00A842461F8E27872F2EF9C
:100B640075F00A84746125F0F8E27871F27BFE7AFC
:100B7400007991787FE2FD78967401F2120C227864
:100B840091E2FF75F00A84746125F0F8E2786BF263
:100B9400EF75F00A8475F00A84746125F0F8E27840
:100BA4006CF27891E275F0648475F00A84746125BE
:060BB400F0F8E2786DF29A
:010BBA002218
:100FAD007872748EF2780AE2FA08E2FB7C007D0A10
:100FBD00FFAE0212034374612DF8E2786BF27C00F0
:100FCD007D0AAF03AE0212034374612FF8E2786C11
:020FDD00F222FE
:100F1300780CE2F970177402F2E5A0541F4480F5CF
:100F2300A075807F53A01F1211C8020FADE9B40250
:100F330012E4780CF2E5A0541F4480F5A07580FFFD
:040F430053A01F2276
:100EDE007806E2FE08E2FFC394FFEE940050047819
:100EEE0091EFF27BFE7A0079917880E2FD7896742C
:100EFE0001F2120C88D2027880E204F2E2C3940A64
:040F0E004002E4F2C7
:010F120022BC
:100EA400780CE2701A04F2E5A0541F4480F5A07592
:100EB40080BF53A01FE47880F21211C8020B54784B
:100EC4000CE2B40114E4F2E5A0541F4480F5A075CB
:0A0ED40080FF53A01FE4787FF22294
:100BBB007890EFF2BF300D780CE2705A120EDEE433
:100BCB00780DF2227890E2B43703020EA47890E20B
:100BDB0064317039780CE2B40110787FE204F2E2F0
:100BEB00C3940A4002E4F2120B54780CE2B40226CE
:100BFB00780BE2240AF218E23400F2C308E29464A0
:100C0B0018E294004004E4F208F2020FAD7890E28F
:070C1B00B43403120F132291
:100C22007892EBF208EAF208E9F208EDF21211DC2E
:100C32007FA012103E40051211ED80F17895E2FF7F
:100C420012103E1211DC7FA112103E7896E2D3946C
:100C520001401F1210697892E2FB0808E2F92401B0
:100C6200F218E2FA3400F2EF12030F7896E214F26D
:100C720080D91210927892E2FB08E2FA08E2F9EFC8
:060C820012030F0211ED48
:100C88007892EBF208EAF208E9F208EDF27896E2D7
:100C9800D3940040491211DC7FA012103E40051287
:100CA80011ED80F17895E2FF12103E7896E2D39428
:100CB8000040267892E2FB0808E2F92401F218E2E3
:100CC800FA3400F21202C9FF12103E7896E214F2CA
:0F0CD80018E204F2E2540770D21211ED80AF223D
:0A120E00121218D2A0121218C2A08A
:05121800007F0BDFFE6A
:01121D0022AE
:1011DC00D2A0D2A1121218C2A1121218C2A00212CD
:0111EC0018EA
:1011ED00C2A0C2A1121218D2A0121218D2A10212BC
:0111FD0018D9
:02103E00AE07FB
:101040007D80ED60125E6004D2A18002C2A1121206
:101050000EEDC313FD80EBD2A1121218D2A0A2A1F3
:081060009208121213A208B35A
:011068002265
:10106900E4FED2A11212187D80ED6015D2A01212F1
:101079001830A1024EFEC2A0121218EDC313FD8052
:08108900E8C2A112120EAF062D
:01109100223C
:10109200E4FED2A11212187D80ED6015D2A01212C8
:1010A2001830A1024EFEC2A0121218EDC313FD8029
:0810B200E8D2A112120EAF06F4
:0110BA002213
:040D8C007889EFF281
:100D90001211DC7F9012103E40061211ED7F0022EE
:100DA0007889E24440FF12103E1211DC7F9112104C
:100DB0003E121069121092788AEFF21211ED788AC1
:100DC000E275F032A4FFAEF07C007DFF12034378A1
:030DD0008AEFF2B5
:010DD30022FD
:100F7A00788EEFF2E275F0FFA4FFAEF07C007D32CE
:100F8A00120343788EEFF21211DC7F9012103E406A
:100F9A0002800C7F4012103E788EE2FF12103E1241
:030FAA0011ED2224
:10000E00EC4D6011E8497017ED33EC3304600DE4EC
:10001E00FCFFFEFD22E933E8330470F80201BE1244
:10002E00018958046009E4CC248150062850090245
:10003E0001C82840030201C5C0E0EB4A7044B980F4
:10004E0006D0E0FB0201B4EF4E701CBD8008EBFF42
:10005E00EAFEE9FD80EBE98DF0A4FEE5F00200F783
:10006E00E9CDF9EAFEEBFFEF89F0A4FCE5F0CE89CD
:10007E00F0A42EFFE435F0CD89F0A42DFEE435F08A
:10008E008067EF4E7005BD80D780C3EF8BF0A4ACB8
:10009E00F0EE8BF0A42CFCE435F0F8EF8AF0A42CF3
:1000AE00E5F038FCE433CB8DF0A42CFCE5F03BF806
:1000BE00EE8AF0A42CFCE5F038F8E433CF89F0A4F6
:1000CE002CFCE5F038CF3400CE89F0A42FFFE5F0FC
:1000DE003EFEE433C98DF0A42EFEE5F039CD8AF054
:1000EE00A42FFFE5F03EFEE43DFD33D0E0FB5007CC
:1000FE000BBB000F0201C8EC2CFCEF33FFEE33FEFE
:06010E00ED33FD0201A02B
:1001140075F020800E75F010800575F0087D007E66
:10012400007F003392D530D503120535EC334010EF
:10013400EF33FFEE33FEED33FDEC33FCD5F0ED226F
:0E014400E5F0247EA2D513CC92E7CDCEFF22AB
:10015200EDD2E7CD33EC3392D524814006E4FFFEA5
:10016200FDFC22FCE4CFCECDCC24E0501174FF8004
:10017200EDC3CC13CCCD13CDCE13CECF13CF0470A1
:07018200F030D5DE02053567
:10018900E9D2E7C933E833F892D5EDD2E7CD33ECBC
:0701990033FC5002B2D52235
:1001A000EC30E7100FBF000C0EBE00080DBD0004C0
:1001B0000BEB6014A2D5EB13FCED92E7FD2274FF6C
:1001C000FCFDFEFF22E480F8A2D574FF13FC7D80C5
:0301D000E480EFD9
:0300000002078C68
:0C078C00787FE4F6D8FD7581210207D3C8
:1001D300E709F608DFFA8046E709F208DFFA803E0E
:1001E30088828C83E709F0A3DFFA8032E309F608FB
:1001F300DFFA8078E309F208DFFA807088828C8363
:10020300E309F0A3DFFA806489828A83E0A3F60816
:10021300DFFA805889828A83E0A3F208DFFA804CF0
:1002230080D280FA80C680D4806980F280338010C7
:1002330080A680EA809A80A880DA80E280CA803330
:1002430089828A83ECFAE493A3C8C582C8CCC583A8
:10025300CCF0A3C8C582C8CCC583CCDFE9DEE78078
:100263000D89828A83E493A3F608DFF9ECFAA9F0F7
:10027300EDFB2289828A83ECFAE0A3C8C582C8CC4D
:10028300C583CCF0A3C8C582C8CCC583CCDFEADE66
:10029300E880DB89828A83E493A3F208DFF980CCC8
:1002A30088F0EF60010E4E60C388F0ED2402B404C1
:1002B3000050B9F582EB2402B4040050AF23234568
:0602C30082239002237368
:1002C900BB010689828A83E0225002E722BBFE0233
:0902D900E32289828A83E4932266
:1002E200BB010CE58229F582E5833AF583E02250D1
:1002F20006E92582F8E622BBFE06E92582F8E2221B
:0D030200E58229F582E5833AF583E4932234
:10030F00BB010689828A83F0225002F722BBFE01CD
:02031F00F322C7
:10032100F8BB010DE58229F582E5833AF583E8F012
:10033100225006E92582C8F622BBFE05E92582C8BE
:02034100F222A6
:10034300BC000BBE0029EF8DF084FFADF022E4CC9E
:10035300F875F008EF2FFFEE33FEEC33FCEE9DEC67
:10036300984005FCEE9DFE0FD5F0E9E4CEFD22EDAD
:10037300F8F5F0EE8420D21CFEADF075F008EF2FF7
:10038300FFED33FD4007985006D5F0F222C398FDE8
:050393000FD5F0EA2285
:10039800C2D5EC30E709B2D5E4C39DFDE49CFCEE80
:1003A80030E715B2D5E4C39FFFE49EFE120343C3B2
:1003B800E49DFDE49CFC800312034330D507C3E4AD
:0603C8009FFFE49EFE22EF
:1003CE00BB010A89828A83E0F5F0A3E022500687FA
:1003DE00F009E71922BBFE07E3F5F009E3192289BC
:0B03EE00828A83E493F5F074019322EF
:1003F900BB010A89828A83F0E5F0A3F0225006F74F
:0F04090009A7F01922BBFE06F3E5F009F319224B
:10041800E88FF0A4CC8BF0A42CFCE98EF0A42CFC83
:100428008AF0EDA42CFCEA8EF0A4CDA8F08BF0A401
:100438002DCC3825F0FDE98FF0A42CCD35F0FCEB60
:100448008EF0A4FEA9F0EB8FF0A4CFC5F02ECD3925
:0F045800FEE43CFCEAA42DCE35F0FDE43CFC2292
:1004670075F008758200EF2FFFEE33FECD33CDCC4C
:1004770033CCC58233C5829BED9AEC99E5829840CF
:100487000CF582EE9BFEED9AFDEC99FC0FD5F0D6AC
:10049700E4CEFBE4CDFAE4CCF9A88222B800C1B9D6
:1004A7000059BA002DEC8BF084CFCECDFCE5F0CB14
:1004B700F97818EF2FFFEE33FEED33FDEC33FCEB4D
:1004C70033FB10D703994004EB99FB0FD8E5E4F908
:1004D700FA227818EF2FFFEE33FEED33FDEC33FCF5
:1004E700C933C910D7059BE99A4007EC9BFCE99AE9
:1004F700F90FD8E0E4C9FAE4CCFB2275F010EF2F2E
:10050700FFEE33FEED33FDCC33CCC833C810D7072D
:100517009BEC9AE899400AED9BFDEC9AFCE899F868
:0E0527000FD5F0DAE4CDFBE4CCFAE4C8F922FB
:0E053500C3E49FFFE49EFEE49DFDE49CFC22D7
:10054300E8600FECC313FCED13FDEE13FEEF13FF96
:03055300D8F122BA
:0C055600ECF208EDF208EEF208EFF222E1
:10056200D083D082E493F208740193F20874029368
:09057200F208740393F27404739F
:1007980002099EE493A3F8E493A34003F68001F2D0
:1007A80008DFF48029E493A3F85407240CC8C33362
:1007B800C4540F4420C8834004F456800146F6DF31
:1007C800E4800B0102040810204080900921E47E97
:1007D800019360BCA3FF543F30E509541FFEE49326
:1007E800A360010ECF54C025E060A840B8E493A3ED
:1007F800FAE493A3F8E493A3C8C582C8CAC583CA18
:10080800F0A3C8C582C8CAC583CADFE9DEE780BECF
:01099D000059
:00000001FF
