:1004FE00810300810400C186C107810500810000CF
:04050E008201000066
:10058700C203D2AF120E0D7F017E00120751120C6B
:10059700E9120DC312066F30061FC20612089B78B8
:1005A70005E2700A200807D2041209F7800B7805C4
:1005B700E2700630080312082D3009D83007D5C27B
:1005C70007300315C2037865E2FF245DF874FFF274
:1005D700745C2FF874FFF280BBD2037805E2B40194
:1005E70007C2041209F780AC7805E2640270A5120D
:0405F7000A7F80A057
:0F0E0D00E5A0541F44A0F5A05380AF53A01F22AF
:10075100E4FCFDFB7A10790EF81201ECE47BE87AF7
:1007610003F9F8120A3B786612024E7866E2FB083A
:10077100E2F908E2FA08E2CBF8C3E49BFFE49AFE4F
:10078100740199FDE498FC786612024E7866E2FCE9
:1007910008E2FD08E2FE08E2FF780812023B780356
:1007A100EFF27866080808E27804F25389F0438989
:0D07B1000118E2F58C08E2F58AD2A9D28C7D
:0107BE002218
:03000B000205FBF0
:1005FB00C0E0C0F0C083C082C0D075D000C000C0C6
:0D060B0001C002C003C004C005C006C00746
:100618007803E2F58C08E2F58A12037D1209B178B5
:1006280000E204F27802E22401F218E23400F2183F
:10063800E2C394C84004E4F2D206C37802E294E824
:0C06480018E294034006E4F208F2D20726
:10065400D007D006D005D004D003D002D001D000FA
:0B066400D0D0D082D083D0F0D0E032A4
:08000300001803012359500409
:100D7300D2A37E01EE60135F6004D2A38002C2A3FC
:0C0D8300D297C297EE25E0FE80EAD2A3D2
:010D8F002241
:100DAC00E4FF7E01EE600F30A3024FFFD297C29793
:060DBC00EE25E0FE80EED2
:010DC200220E
:100DD900D293EF25E04480FF120D73AF05120D7316
:030DE900C2932290
:100DEC00D293EF25E04481FF120D73120DACC29328
:010DFC0022D4
:0A0AED007876EBF208EAF208E9F26D
:100AF700D2937FBE120D73E4FD7876E2FB0808E21D
:100B0700F92401F218E2FA3400F2120104FF120D7F
:080B1700730DEDB407E3C29376
:010B1F0022B3
:0A0B20007874EBF208EAF208E9F23B
:100B2A00D2937FBF120D73E4FD120DAC7874E2FB11
:100B3A0008E2FA08E2F98D82758300EF12014A0D84
:060B4A00EDB407E5C293C3
:010B50002282
:0A07BF007869EBF208EAF208E9F2AB
:1007C9007BFE7A00796C120B207872E22400FFE438
:1007D9003420F97869E2FB08E2FA08E2C98FF012DD
:1007E90001CD7870E2FF7869E2FB08E2FA08E2F9E4
:1007F900900002EF12014A786FE290000312014A59
:10080900786EE290000412014A786DE290000512B8
:10081900014A786CE290000612014A7871E2900070
:040829000702014A77
:10096900E47875F21201A218F290000212011D78C2
:1009790072F290000312011D7871F29000041201C5
:100989001D7870F290000512011D786FF290000633
:1009990012011D786EF290000712011D7873F27B27
:0809A900FE7A00796E020AEDEE
:100CE90078667C007DFE7BFF7A0079037E007F08B1
:100CF9001200DEC293C297E4FD7F07120DD97BFE75
:070D09007A00796602096916
:10051200C10890370101010101010101010101013D
:10052200010101019027313233263435362537381F
:100532003928301B0D27900601010101010101013B
:1005420001010101010101018116009017FFFFFF66
:0D055200FFFFFFFFFFFFFFFFFFFFFFFFFFA9
:10066F00E47866F2E47867F27867E2C39404505650
:10067F00E2FF18E2FE25E025E024372FF8E2FDEE39
:10068F0025E025E024062FF8E2FF6D6032EF6013BE
:10069F007867E2FF18E225E025E024272FF8E2FF34
:1006AF001209037867E2FF18E2FE25E025E0243700
:1006BF002FF8E2FDEE25E025E024062FF8EDF27885
:1006CF0067E204F280A27866E204F2E2C394044087
:0106DF009387
:0106E00022F7
:10037D007816E214601014601314601624037016BE
:10038D00C2B0D2B38010C2B1D2B0800AC2B2D2B163
:10039D008004C2B3D2B27816E2FF25E025E024171F
:1003AD00F8E225E0FEA2C4E4334EFEEF25E025E0A1
:1003BD002417F8EEF27816E2FF25E025E02418F870
:1003CD00E225E0FEA2C2E4334EFEEF25E025E02457
:1003DD0018F8EEF27816E2FF25E025E02419F8E290
:1003ED0025E0FEA2B5E4334EFEEF25E025E024190D
:1003FD00F8EEF27816E2FF25E025E0241AF8E22562
:10040D00E0FEA2B4E4334EFEEF25E025E0241AF819
:10041D00EEF2E4FF7816E2FE25E025E024172FF832
:10042D00E2540FFDBD0F18EE25E025E024372FF81F
:10043D007401F2EE6403701EEF701BC2088017ED9D
:10044D007014EE25E025E024372FF8E4F2EEB40326
:10045D0005EF7002D2080FEFB404B97816E204F27A
:04046D00E25403F260
:010471002268
:10055F00C102C101814800814900814700815300D8
:05056F00814A00C100FB
:10089B007848E2FF784FE2B507167849E2FF7850C7
:1008AB00E2B5070C7847E2FF7851E2B50702D201B7
:1008BB00300144784AE204F220022220000FD200D9
:1008CB00E5A0541F4480F5A07580FE800DC200E5A5
:1008DB00A0541F4480F5A07580FF53A01F784AE2F7
:1008EB00B41914E4F2D202C201E5A0541F4480F5FE
:0708FB00A07580FF53A01F50
:0109020022D2
:0B0D1000E2540FFD1F120D1B7DBF1FE2
:100D1B00EDB4BF08745D2FF874BFF222ED900DFD9A
:090D2B0093FE745D2FF8EEF22234
:1009F7003004097BFE7A00794B1207BF784FE2C4B7
:100A0700540FFD7F07120D1B784F120D107850E21F
:100A1700C4540FFD7F04120D1B7850120D1078512E
:100A2700E2C4540FFD7F01120D1B7851E2540FFDF4
:040A37001F020D1B72
:100A7F007848E2C4540FFD7F07120D1B7848120D02
:100A8F00107849E2C4540FFD7F04120D1B784912F0
:100A9F000D107847E2C4540FFD7F01120D1B7847EC
:080AAF00E2540FFD1F020D1BB4
:100D90007853E224FE600B14600C2402700D7F0176
:0C0DA00080067F0280027F03120D5522A6
:10082D007BFE7A007966120C0E120DC37966E3FE1B
:10083D0009E37804CEA2E713CE13D8F8F3EE796668
:10084D00F37F07745D2FF874FFF21FEFB402F47895
:10085D0066E2FA08E2FB7C007D0AFFAE0212016C33
:10086D0074FD2FF582740D3EF583E493785FF27C71
:10087D00007D0AAF03AE0212016C74FD2DF582747A
:0D088D000D3CF583E493785EF21874C6F21A
:01089A00223B
:100B8200ED640170160FEF540FFEBE0A06EF54F02B
:100B92002410FFEF64247017FF80140FEF540FFE30
:100BA200BE0A06EF54F02410FFEFB46002E4FF2205
:100B5100ED640170171FEF540FFEBE0F06EF54F046
:100B61004409FFEF64F970187F2380141FEF540FBD
:100B7100FEBE0F06EF54F04409FFEFB4F9027F59AE
:010B81002251
:100BB2007853E224FE600F1460142402701B784FF5
:100BC200E2FF7D01800E7850E2FFE4FD800678515D
:0E0BD200E2FFE4FD120B82EFF2C2040209F70B
:100C3C007853E224FE600F1460142402701B784871
:100C4C00E2FF7D01800E7849E2FFE4FD80067847E3
:0C0C5C00E2FFE4FD120B82EFF2020A7FBF
:100BE0007853E224FE600F1460142402701B784FC7
:100BF000E2FF7D01800E7850E2FFE4FD800678512F
:0E0C0000E2FFE4FD120B51EFF2C2040209F70D
:100C68007853E224FE600F1460142402701B784845
:100C7800E2FF7D01800E7849E2FFE4FD80067847B7
:0C0C8800E2FFE4FD120B51EFF2020A7FC4
:1006E1007805E2701D04F27853F2087C007DFE7BF0
:1006F100FE7A00794B7E007F081200DE120D900217
:100701000E277805E2640170467853E204F2E2C3F1
:1007110094045003020D90E47853F27805F2784F77
:10072100E2FF7858E2B5071B7850E2FF7859E2B54D
:1007310007117851E2FF785AE2B50707D20412098E
:10074100F780097BFE7A00794B120969120E2A2281
:100AB7007805E270107402F2785314F2120D901256
:100AC7000E27020A7F7805E2B4021A7853E204F28D
:100AD700E2C394045003020D90E47853F27805F2D0
:060AE700C202120E2A22D9
:100903007868EFF27805E27019300116D202C2015D
:10091300784AF2E5A0541F4480F5A07580FF53A0E8
:100923001F227868E2B431030206E17868E2B43446
:1009330003020AB77868E2B437137805E2B4010317
:10094300020BB27805E26402701B020C3C7868E289
:10095300B430127805E2B40103020BE07805E2B487
:060963000203120C6822E1
:100DFD00C0F9A4B0999282F880908883C6A1868E9E
:10057400816500C109885DFFFFFFFFFFFFFFFF8169
:020584005C0019
:1009B100E5A0541F44E0F5A07580FF53A01FE5A0FA
:1009C100541F44C0F5A0785CE2FF7480A80708803A
:1009D10002C313D8FCF58053A01FE5A0541F44E0C7
:1009E100F5A0745D2FF8E2F58053A01F785CE20456
:0509F100F2E25407F2E0
:0109F60022DE
:030E2700D20922CB
:030E2A00C20922D8
:100D5500EFB4010678657407F222EFB402067865F0
:0E0D65007404F222EFB4030578657401F222E3
:0B0E1C000000000000000000DFF622D4
:100D3400C2AFC2947FFA120E1C7FFA120E1CD29418
:100D44007F3C120E1CA29492053094FDD2AFA205F2
:010D5400227C
:020CC000AE077D
:100CC200C2AF7D01ED601DC2947F02120E1C5E70E8
:100CD20004C2948002D2947F3C120E1CD294ED2561
:060CE200E0FD80E0D2AF4E
:010CE80022E9
:100C9400E4FEC2AF7D01ED601EC2947F02120E1C01
:100CA400D2947F02120E1C3094024EFE7F3C120E30
:0B0CB4001CED25E0FD80DFD2AFAF0695
:010CBF002212
:100DC300120D34920420040A7FCC120CC07F44120B
:050DD3000CC0A204B3F6
:010DD80022F8
:100C0E00120D3492042004227FCC120CC07FBE122F
:100C1E000CC0120C94AC07120C94EFFEAD047C00C9
:0D0C2E00E42DFFEC3E8FF01201CDA204B3C7
:010C3B002296
:0300000002047285
:0C047200787FE4F6D8FD7581210204B902
:10000E00E709F608DFFA8046E709F208DFFA803ED4
:10001E0088828C83E709F0A3DFFA8032E309F608C1
:10002E00DFFA8078E309F208DFFA807088828C8329
:10003E00E309F0A3DFFA806489828A83E0A3F608DD
:10004E00DFFA805889828A83E0A3F208DFFA804CB7
:10005E0080D280FA80C680D4806980F2803380108E
:10006E0080A680EA809A80A880DA80E280CA8033F7
:10007E0089828A83ECFAE493A3C8C582C8CCC5836F
:10008E00CCF0A3C8C582C8CCC583CCDFE9DEE7803F
:10009E000D89828A83E493A3F608DFF9ECFAA9F0BE
:1000AE00EDFB2289828A83ECFAE0A3C8C582C8CC14
:1000BE00C583CCF0A3C8C582C8CCC583CCDFEADE2D
:1000CE00E880DB89828A83E493A3F208DFF980CC8F
:1000DE0088F0EF60010E4E60C388F0ED2402B40488
:1000EE000050B9F582EB2402B4040050AF2323452F
:0600FE00822390005E73F6
:10010400BB010689828A83E0225002E722BBFE02F9
:09011400E32289828A83E493222C
:10011D00BB010CE58229F582E5833AF583E0225097
:10012D0006E92582F8E622BBFE06E92582F8E222E1
:0D013D00E58229F582E5833AF583E49322FB
:10014A00F8BB010DE58229F582E5833AF583E8F0EB
:10015A00225006E92582C8F622BBFE05E92582C897
:02016A00F2227F
:10016C00C2D5EC30E709B2D5E4C39DFDE49CFCEEAE
:10017C0030E715B2D5E4C39FFFE49EFE12025AC3CA
:10018C00E49DFDE49CFC800312025A30D507C3E4C5
:06019C009FFFE49EFE221D
:1001A200BB010A89828A83E0F5F0A3E02250068728
:1001B200F009E71922BBFE07E3F5F009E3192289EA
:0B01C200828A83E493F5F0740193221D
:1001CD00BB010A89828A83F0E5F0A3F0225006F77D
:0F01DD0009A7F01922BBFE06F3E5F009F319227A
:1001EC00E88FF0A4CC8BF0A42CFCE98EF0A42CFCB2
:1001FC008AF0EDA42CFCEA8EF0A4CDA8F08BF0A430
:10020C002DCC3825F0FDE98FF0A42CCD35F0FCEB8E
:10021C008EF0A4FEA9F0EB8FF0A4CFC5F02ECD3953
:0F022C00FEE43CFCEAA42DCE35F0FDE43CFC22C0
:100A3B00C2D5E830E70FB2D5E4C39BFBE49AFAE4E6
:100A4B0099F9E498F8EC30E717B2D5120A71120253
:100A5B00EBE4C39BFBE49AFAE499F9E498F880037E
:100A6B001202EB30D50DE4C39FFFE49EFEE49DFD27
:040A7B00E49CFC22D9
:10023B00E8600FECC313FCED13FDEE13FEEF13FFA1
:03024B00D8F122C5
:0C024E00ECF208EDF208EEF208EFF222EC
:10047E00020587E493A3F8E493A34003F68001F208
:10048E0008DFF48029E493A3F85407240CC8C3337F
:10049E00C4540F4420C8834004F456800146F6DF4E
:1004AE00E4800B01020408102040809004FEE47EDC
:1004BE00019360BCA3FF543F30E509541FFEE49343
:1004CE00A360010ECF54C025E060A840B8E493A30A
:1004DE00FAE493A3F8E493A3C8C582C8CAC583CA35
:1004EE00F0A3C8C582C8CAC583CADFE9DEE780BEED
:010586000074
:10025A00BC000BBE0029EF8DF084FFADF022E4CC88
:10026A00F875F008EF2FFFEE33FEEC33FCEE9DEC51
:10027A00984005FCEE9DFE0FD5F0E9E4CEFD22ED97
:10028A00F8F5F0EE8420D21CFEADF075F008EF2FE1
:10029A00FFED33FD4007985006D5F0F222C398FDD2
:0502AA000FD5F0EA226F
:1002AF0075F008758200EF2FFFEE33FECD33CDCC06
:1002BF0033CCC58233C5829BED9AEC99E582984089
:1002CF000CF582EE9BFEED9AFDEC99FC0FD5F0D666
:1002DF00E4CEFBE4CDFAE4CCF9A88222B800C1B990
:1002EF000059BA002DEC8BF084CFCECDFCE5F0CBCE
:1002FF00F97818EF2FFFEE33FEED33FDEC33FCEB07
:10030F0033FB10D703994004EB99FB0FD8E5E4F9C1
:10031F00FA227818EF2FFFEE33FEED33FDEC33FCAE
:10032F00C933C910D7059BE99A4007EC9BFCE99AA2
:10033F00F90FD8E0E4C9FAE4CCFB2275F010EF2FE7
:10034F00FFEE33FEED33FDCC33CCC833C810D707E7
:10035F009BEC9AE899400AED9BFDEC9AFCE899F822
:0E036F000FD5F0DAE4CDFBE4CCFAE4C8F922B5
:00000001FF
