:0B0ECF000000000000000000DFF62221
:100DD100C2AFC2947FFA120ECF7FFA120ECFD29415
:100DE1007F3C120ECFA29492013094FDD2AFA201AA
:010DF10022DF
:020D2F00AE070D
:100D3100C2AF7D01ED601DC2947F02120ECF5E60D5
:100D410004D2948002C2947F3C120ECFD294ED253E
:060D5100E0FD80E0D2AFDE
:010D57002279
:100D0500E4FE7D01ED601EC2947F02120ECFD294E7
:100D15007F02120ECF3094024EFE7F3C120ECFEDB5
:090D250025E0FD80DFD2AFAF062E
:010D2E0022A2
:100E2C00C2AF120DD1920020000A7FCC120D2F7F81
:090E3C0044120D2FD2AFA200B345
:010E4500228A
:0A088E007863EBF208EAF208E9F2E1
:10089800C2AF120DD192002000607FCC120D2F7FC5
:1008A800BE120D2F120D05AC07120D05EF540FFEE9
:1008B800AD047C00E42DFFEC3EF97863E2FB08E22E
:1008C800FA08E2C98FF01203F97863E2FB08E2FA4A
:1008D80008E2F91203CEFDACF0EC120119E4FBFAC0
:1008E80079C8784012000E1201527863E2FB08E2E0
:0F08F800FA08E2F9EE8FF01203F9D2AFA200B3C3
:0109070022CD
:08000300001803290825000480
:100E11007E01EE60135F6004D2A38002C2A3D29769
:0A0E2100C297EE25E0FE80EAD2A39E
:010E2B0022A4
:100E4600E4FF7E01EE600F30A3024FFFD297C297F8
:060E5600EE25E0FE80EE37
:010E5C002273
:100E5D00D293EF25E04480FF120E11AF05120E1153
:030E6D00C293220B
:0A0C41007871EBF208EAF208E9F21C
:100C4B00D2937FBE120E11E4FD7871E2FB0808E22D
:100C5B00F92401F218E2FA3400F21202C9FF120E63
:080C6B00110DEDB408E3C29382
:010C7300225E
:0A0C74007800EBF208EAF208E9F25A
:100C7E00D2937FBF120E11E4FD120E467800E2FBF6
:100C8E0008E2FA08E2F98D82758300EF1203210D56
:080C9E00EDB408E5C293C2A306
:010CA600222B
:100B2400E47870F21203CE18F29000021202E27816
:100B34006DF29000031202E2786CF290000412024B
:100B4400E2786BF29000051202E2786AF2900006F5
:100B54001202E27869F29000071202E2786EF27BE8
:080B6400FE7A007969020C41E0
:0A0908007803EBF208EAF208E9F2C6
:100912007BFE7A007906120C74780CE2FF7803E20F
:10092200FB08E2FA08E2F9E48FF01203F9780AE22E
:10093200FF7803E2FB08E2FA08E2F9900002EF1204
:1009420003217809E29000031203217808E2900063
:10095200041203217807E29000051203217806E2CF
:0F096200900006120321780BE290000702032198
:100DAA0078617C007DFE7BFF7A0079037E007F08F4
:100DBA001202A3C293C297E4FD7F07120E5D7BFE67
:070DCA007A007961020B249D
:100E9200313233193435361837383917301B0D16BD
:100A8C00902F01010101010101010101010101018D
:100A9C000101900E0101010101010101010101019E
:100AAC0001010101811E00901FFFFFFFFFFFFFFFEF
:090ABC00FFFFFFFFFFFFFFFFFF3A
:10080C00E47861F2E47862F27862E2C394045066B0
:10081C00E2FF18E2FE25E025E0242F2FF8E2FDEEA2
:10082C0025E025E0240E2FF8E2FF6D6042EF6023F7
:10083C007862E2FF18E225E025E02492F582E434A8
:10084C000EF583E5822FF582E43583F583E493FF7F
:10085C00120EC17862E2FF18E2FE25E025E0242F9B
:10086C002FF8E2FDEE25E025E0240E2FF8EDF278CE
:10087C0062E204F280927861E204F2E2C3940440F2
:01088C0083E8
:01088D002248
:10057B00781EE214601014601314601624037016B6
:10058B00C2B0D2B38010C2B1D2B0800AC2B2D2B163
:10059B008004C2B3D2B2781EE2FF25E025E0241F0F
:1005AB00F8E225E0FEA2C4E4334EFEEF25E025E0A1
:1005BB00241FF8EEF2781EE2FF25E025E02420F858
:1005CB00E225E0FEA2C2E4334EFEEF25E025E02457
:1005DB0020F8EEF2781EE2FF25E025E02421F8E278
:1005EB0025E0FEA2B5E4334EFEEF25E025E0242105
:1005FB00F8EEF2781EE2FF25E025E02422F8E22552
:10060B00E0FEA2B4E4334EFEEF25E025E02422F811
:10061B00EEF2E4FF781EE2FE25E025E0241F2FF822
:10062B00E2540FFDBD0F0EEE25E025E0242F2FF831
:10063B007401F2800EED700BEE25E025E0242F2FD8
:10064B00F8E4F20FEFB404CC781EE204F2E25403A8
:01065B00F2AC
:01065C00227B
:0A0EDA00C0F9A4B0999282F880904C
:0D0AC5008840FFFFFFFFFFFFFFFF813F00A4
:100BFB00E5A0541F44E0F5A07580FF53A01FE5A0AE
:100C0B00541F44C0F5A0783FE2FF7480A80708800A
:100C1B0002C313D8FCF58053A01FE5A0541F44E07A
:100C2B00F5A074402FF8E2F58053A01F783FE20443
:050C3B00F2E25407F293
:010C40002291
:100BB400E4FEEF75F00A8474632EF8E5F0F2EF7545
:100BC400F00A84FF0EEEB408E97E0774632EF8E29F
:100BD400700974402EF874FFF2DEF0C3EE64809462
:100BE40080401374632EF8E2900EDA93FF74402E63
:060BF400F8EFF21E80E59F
:010BFA0022D8
:030AD20081480058
:100DF200D2AF120EB27F017E00120785120DAA1227
:0F0E02000E2C12080C3002FAC20212065D80F3A9
:0F0EB200E5A0541F44A0F5A05380AF53A01F220A
:04078500AB07AA060E
:100789007861120562000E1000AE02AF03E4FCFDB1
:100799007861E2FB08E2F908E2FA08E2CBF8120410
:1007A90018E47BE87A03F9F81204A3786112055674
:1007B9007861E2FB08E2F908E2FA08E2CBF8C3E45F
:1007C9009BFFE49AFE740199FDE498FC7861120597
:1007D900567861E2FC08E2FD08E2FE08E2FF7808CB
:1007E9001205437849EFF27861080808E2784AF27D
:1007F9005389F043890118E2F58C08E2F58AD2A9F8
:02080900D28C8F
:01080B0022CA
:03000B00020A36B0
:100A3600C0E0C0F0C083C082C0D075D000C000C086
:0D0A460001C002C003C004C005C006C00707
:100A53007849E2F58C08E2F58A7848E204F2E2C3C9
:0E0A630094C84004E4F2D202120BFB12057B91
:100A7100D007D006D005D004D003D002D001D000D9
:0B0A8100D0D0D082D083D0F0D0E03283
:030AD500814B0052
:10065D007BFE7A00796112088E120E2C7861E2FA17
:10066D0008E2FB7C037DE8FFAE021203987C007D5F
:10067D000A12039874DA2DF582740E3CF583E49317
:10068D007843F27C007D64AF03AE021203987C00C8
:10069D007D0A12039874DA2DF582740E3CF583E40D
:1006AD00937842F27861E2FA08E2FB7C007D0AFF62
:1006BD00AE021203987C007D0A12039874DA2DF5B0
:1006CD0082740E3CF583E4937841F27C007D0AAF91
:1006DD0003AE0212039874DA2DF582740E3CF58385
:0B06ED00E4937840F27842E2547FF280
:0106F80022DF
:100AD9003003097BFE7A00794C1209087850E2FF4D
:100AE900C4540F900EDA937847F2EF540F9318F22B
:100AF9001874BFF27851E2FFC4540F937844F2EFAF
:100B0900540F9318F21874BFF27852E2FFC4540FCD
:0B0B1900937841F2EF540F9318F22282
:0D0EC100EFB43109784BE204FFF2120BB4DC
:010ECE002201
:100971007854EBF208EAF208E9F208EDF2120E708F
:100981007FA0120CDA4005120E8180F17857E2FF48
:10099100120CDA120E707FA1120CDA7858E2D3949D
:1009A10001401F120D587854E2FB0808E2F92401B6
:1009B100F218E2FA3400F2EF12030F7858E214F25F
:1009C10080D9120D817854E2FB08E2FA08E2F9EFCE
:0609D10012030F020E816B
:1009D7007859EBF208EAF208E9F208EDF2785DE2FD
:1009E700D394004049120E707FA0120CDA40051212
:1009F7000E8180F1785CE2FF120CDA785DE2D39425
:100A07000040267859E2FB0808E2F92401F218E2CF
:100A1700FA3400F21202C9FF120CDA785DE214F21E
:0F0A270018E204F2E2540770D2120E8180AF225F
:0A0EA200120EACD2A0120EACC2A0DA
:050EAC00007F0BDFFEDA
:010EB100221E
:100E7000D2A0D2A1120EACC2A1120EACC2A0020E20
:010E8000ACC5
:100E8100C2A0C2A1120EACD2A0120EACD2A1020E0F
:010E9100ACB4
:020CDA00AE0763
:100CDC007D80ED60125E6004D2A18002C2A1120E72
:100CEC00A5EDC313FD80EBD2A1120EACD2A0A2A134
:080CFC009204120EA7A204B33A
:010D040022CC
:100D5800E4FED2A1120EAC7D80ED6015D2A0120E79
:100D6800AC30A1024EFEC2A0120EACEDC313FD8042
:080D7800E8C2A1120EA2AF06B1
:010D80002250
:100D8100E4FED2A1120EAC7D80ED6015D2A0120E50
:100D9100AC30A1024EFEC2A0120EACEDC313FD8019
:080DA100E8D2A1120EA2AF0678
:010DA9002227
:040B6C00785EEFF2CE
:100B7000120E707F90120CDA4006120E817F002256
:100B8000785EE24440FF120CDA120E707F91120C74
:100B9000DA120D58120D81785FEFF2120E81785F34
:100BA000E275F030A4FFAEF07C007DFF12034378C5
:030BB0005FEFF202
:010BB300221F
:100CA7007860EFF2E275F0FFA4FFAEF07C007D30D4
:100CB7001203437860EFF2120E707F90120CDA4045
:100CC70002800C7F40120CDA7860E2FF120CDA1215
:030CD7000E812269
:10000E00EC4D6011E8497017ED33EC3304600DE4EC
:10001E00FCFFFEFD22E933E8330470F80201BE1244
:10002E00018958046009E4CC248150062850090245
:10003E0001C82840030201C5C0E0EB4A7044B980F4
:10004E0006D0E0FB0201B4EF4E701CBD8008EBFF42
:10005E00EAFEE9FD80EBE98DF0A4FEE5F00200F783
:10006E00E9CDF9EAFEEBFFEF89F0A4FCE5F0CE89CD
:10007E00F0A42EFFE435F0CD89F0A42DFEE435F08A
:10008E008067EF4E7005BD80D780C3EF8BF0A4ACB8
:10009E00F0EE8BF0A42CFCE435F0F8EF8AF0A42CF3
:1000AE00E5F038FCE433CB8DF0A42CFCE5F03BF806
:1000BE00EE8AF0A42CFCE5F038F8E433CF89F0A4F6
:1000CE002CFCE5F038CF3400CE89F0A42FFFE5F0FC
:1000DE003EFEE433C98DF0A42EFEE5F039CD8AF054
:1000EE00A42FFFE5F03EFEE43DFD33D0E0FB5007CC
:1000FE000BBB000F0201C8EC2CFCEF33FFEE33FEFE
:06010E00ED33FD0201A02B
:1001140075F020800E75F010800575F0087D007E66
:10012400007F003392D530D503120535EC334010EF
:10013400EF33FFEE33FEED33FDEC33FCD5F0ED226F
:0E014400E5F0247EA2D513CC92E7CDCEFF22AB
:10015200EDD2E7CD33EC3392D524814006E4FFFEA5
:10016200FDFC22FCE4CFCECDCC24E0501174FF8004
:10017200EDC3CC13CCCD13CDCE13CECF13CF0470A1
:07018200F030D5DE02053567
:10018900E9D2E7C933E833F892D5EDD2E7CD33ECBC
:0701990033FC5002B2D52235
:1001A000EC30E7100FBF000C0EBE00080DBD0004C0
:1001B0000BEB6014A2D5EB13FCED92E7FD2274FF6C
:1001C000FCFDFEFF22E480F8A2D574FF13FC7D80C5
:0301D000E480EFD9
:030000000206F9FC
:0C06F900787FE4F6D8FD758120020740F0
:1001D300E709F608DFFA8046E709F208DFFA803E0E
:1001E30088828C83E709F0A3DFFA8032E309F608FB
:1001F300DFFA8078E309F208DFFA807088828C8363
:10020300E309F0A3DFFA806489828A83E0A3F60816
:10021300DFFA805889828A83E0A3F208DFFA804CF0
:1002230080D280FA80C680D4806980F280338010C7
:1002330080A680EA809A80A880DA80E280CA803330
:1002430089828A83ECFAE493A3C8C582C8CCC583A8
:10025300CCF0A3C8C582C8CCC583CCDFE9DEE78078
:100263000D89828A83E493A3F608DFF9ECFAA9F0F7
:10027300EDFB2289828A83ECFAE0A3C8C582C8CC4D
:10028300C583CCF0A3C8C582C8CCC583CCDFEADE66
:10029300E880DB89828A83E493A3F208DFF980CCC8
:1002A30088F0EF60010E4E60C388F0ED2402B404C1
:1002B3000050B9F582EB2402B4040050AF23234568
:0602C30082239002237368
:1002C900BB010689828A83E0225002E722BBFE0233
:0902D900E32289828A83E4932266
:1002E200BB010CE58229F582E5833AF583E02250D1
:1002F20006E92582F8E622BBFE06E92582F8E2221B
:0D030200E58229F582E5833AF583E4932234
:10030F00BB010689828A83F0225002F722BBFE01CD
:02031F00F322C7
:10032100F8BB010DE58229F582E5833AF583E8F012
:10033100225006E92582C8F622BBFE05E92582C8BE
:02034100F222A6
:10034300BC000BBE0029EF8DF084FFADF022E4CC9E
:10035300F875F008EF2FFFEE33FEEC33FCEE9DEC67
:10036300984005FCEE9DFE0FD5F0E9E4CEFD22EDAD
:10037300F8F5F0EE8420D21CFEADF075F008EF2FF7
:10038300FFED33FD4007985006D5F0F222C398FDE8
:050393000FD5F0EA2285
:10039800C2D5EC30E709B2D5E4C39DFDE49CFCEE80
:1003A80030E715B2D5E4C39FFFE49EFE120343C3B2
:1003B800E49DFDE49CFC800312034330D507C3E4AD
:0603C8009FFFE49EFE22EF
:1003CE00BB010A89828A83E0F5F0A3E022500687FA
:1003DE00F009E71922BBFE07E3F5F009E3192289BC
:0B03EE00828A83E493F5F074019322EF
:1003F900BB010A89828A83F0E5F0A3F0225006F74F
:0F04090009A7F01922BBFE06F3E5F009F319224B
:10041800E88FF0A4CC8BF0A42CFCE98EF0A42CFC83
:100428008AF0EDA42CFCEA8EF0A4CDA8F08BF0A401
:100438002DCC3825F0FDE98FF0A42CCD35F0FCEB60
:100448008EF0A4FEA9F0EB8FF0A4CFC5F02ECD3925
:0F045800FEE43CFCEAA42DCE35F0FDE43CFC2292
:1004670075F008758200EF2FFFEE33FECD33CDCC4C
:1004770033CCC58233C5829BED9AEC99E5829840CF
:100487000CF582EE9BFEED9AFDEC99FC0FD5F0D6AC
:10049700E4CEFBE4CDFAE4CCF9A88222B800C1B9D6
:1004A7000059BA002DEC8BF084CFCECDFCE5F0CB14
:1004B700F97818EF2FFFEE33FEED33FDEC33FCEB4D
:1004C70033FB10D703994004EB99FB0FD8E5E4F908
:1004D700FA227818EF2FFFEE33FEED33FDEC33FCF5
:1004E700C933C910D7059BE99A4007EC9BFCE99AE9
:1004F700F90FD8E0E4C9FAE4CCFB2275F010EF2F2E
:10050700FFEE33FEED33FDCC33CCC833C810D7072D
:100517009BEC9AE899400AED9BFDEC9AFCE899F868
:0E0527000FD5F0DAE4CDFBE4CCFAE4C8F922FB
:0E053500C3E49FFFE49EFEE49DFDE49CFC22D7
:10054300E8600FECC313FCED13FDEE13FEEF13FF96
:03055300D8F122BA
:0C055600ECF208EDF208EEF208EFF222E1
:10056200D083D082E493F208740193F20874029368
:09057200F208740393F27404739F
:10070500020DF2E493A3F8E493A34003F68001F20B
:1007150008DFF48029E493A3F85407240CC8C333F5
:10072500C4540F4420C8834004F456800146F6DFC4
:10073500E4800B0102040810204080900A8CE47EBE
:10074500019360BCA3FF543F30E509541FFEE493B9
:10075500A360010ECF54C025E060A840B8E493A380
:10076500FAE493A3F8E493A3C8C582C8CAC583CAAB
:10077500F0A3C8C582C8CAC583CADFE9DEE780BE63
:010AD800001D
:00000001FF
