:1004E3007F98B0C6D9E9F5FCFFFCF5E9D9C6B09809
:1004F3007F664E38251509020002091525384E6618
:1005030000102030405060708090A0B0C0D0E0F068
:10051300FFF0E0D0C0B0A090807060504030201059
:100523000008101820283038404850586068707808
:1005330080889098A0A8B0B8C0C8D0D8E0E8F0F8F8
:100543008105008107008106008108008100008188
:020553000100A5
:1006F400D2AF12076A7F017E0012030E780274FFE4
:10070400F2087404F20874E3F27F0A1203971204E5
:030714000980FB5E
:10071700784AEFF21207487F901206724002800C67
:100727007F40120672784AE2FF12067212075922B8
:1005A100EF642670427800E2FF701004F278027462
:1005B100FFF2087405F2087403F222EFB401137814
:1005C100007402F2780274FFF2087405F2087423D1
:1005D100F222EFB40211E47800F2780274FFF2081B
:0705E1007404F20874E3F258
:0105E80022F0
:0F076A00E5A0541F44A0F5A05380AF53A01F2259
:10039700EF75F020A4AEF0FBAA06E4F9F8FF7E1093
:1003A7007D0EFC12062E784B12017B784BE2FB0880
:1003B700E2F908E2FA08E2CBF8C3E49BFFE49AFE0D
:1003C700740199FDE498FC784B12017B784BE2FCB1
:1003D70008E2FD08E2FE08E2FF78081201687806E5
:1003E700EFF2784B080808E27808F253890F43893F
:1003F700107806E2F58D7808E2F58BD2ABD2BBD246
:010407008E66
:0104080022D1
:04030E00AB07AA0689
:10031200784B120187000E1000AE02AF03E4FCFD21
:10032200784BE2FB08E2F908E2FA08E2CBF81200A5
:100332004BE47BE87A03F9F81200D6784B12017B82
:10034200784BE2FB08E2F908E2FA08E2CBF8C3E4F0
:100352009BFFE49AFE740199FDE498FC784B12012C
:100362007B784BE2FC08E2FD08E2FE08E2FF780837
:100372001201687805EFF2784B080808E27807F274
:100382005389F04389017805E2F58C7807E2F58A12
:04039200D2A9D28C8E
:010396002244
:03000B000205E902
:1005E900C0E0C0F0C083C082C0D075D000C000C0D8
:1005F90001C002C003C004C005C006C0077805E2F7
:10060900F58C7807E2F58A1201A0D007D006D0054B
:10061900D004D003D002D001D000D0D0D082D08372
:05062900D0F0D0E0322A
:03001B0002047B61
:10047B00C0E0C0F0C083C082C0D075D000C000C047
:0D048B0001C002C003C004C005C006C007C8
:100498007806E2F58D7808E2F58B7802E2FB08E24F
:1004A800FA08E2F97801E2F58275830012001EFF6E
:1004B8001207177801E204F2E2C394204002E4F242
:1004C800D007D006D005D004D003D002D001D00088
:0B04D800D0D0D082D083D0F0D0E03232
:0A073700120741D2A0120741C2A030
:0607410000007F0CDFFE4A
:01074700228F
:10074800D2A0D2A1120741C2A1120741C2A002073A
:01075800415F
:10075900C2A0C2A0120741D2A0120741D2A102072A
:01076900414E
:02067200AE07D1
:10067400C2A01207417D80ED60125E6004D2A180A9
:1006840002C2A1120737EDC313FD80EBD2A11207FA
:0D06940041D2A0A2A1920012073CA200B327
:0106A1002236
:1006A200E4FED2A11207417D80ED6015D2A01207AF
:1006B2004130A1024EFEC2A0120741EDC313FD80DC
:0806C200E8C2A1120737AF06E0
:0106CA00220D
:1006CB00E4FED2A11207417D80ED6015D2A0120786
:1006DB004130A1024EFEC2A0120741EDC313FD80B3
:0806EB00E8D2A1120737AF06A7
:0106F30022E4
:10055500903A0101010101010101010101010101BE
:100565000101902A3132332634353625373839287A
:10057500301B0D2790090101010101010101010154
:10058500010101010101811900901AFFFFFFFFFF21
:0B059500FFFFFFFFFFFFFFFFFFFFFF66
:10040900E4784BF2E4784CF2784CE2C39404505609
:10041900E2FF18E2FE25E025E0243A2FF8E2FDEE9E
:1004290025E025E024092FF8E2FF6D6032EF601323
:10043900784CE2FF18E225E025E0242A2FF8E2FFB4
:100449001205A1784CE2FF18E2FE25E025E0243AE6
:100459002FF8E2FDEE25E025E024092FF8EDF278EA
:100469004CE204F280A2784BE204F2E2C394044025
:0104790093EF
:01047A00225F
:1001A0007819E2146010146013146016240370169A
:1001B000C2B0D2B38010C2B1D2B0800AC2B2D2B142
:1001C0008004C2B3D2B27819E2FF25E025E0241AF8
:1001D000F8E225E0FEA2C4E4334EFEEF25E025E080
:1001E000241AF8EEF27819E2FF25E025E0241BF846
:1001F000E225E0FEA2C2E4334EFEEF25E025E02436
:100200001BF8EEF27819E2FF25E025E0241CF8E265
:1002100025E0FEA2B5E4334EFEEF25E025E0241CE8
:10022000F8EEF27819E2FF25E025E0241DF8E2253A
:10023000E0FEA2B4E4334EFEEF25E025E0241DF8F5
:10024000EEF2E4FF7819E2FE25E025E0241A2FF80B
:10025000E2540FFDBD0F0EEE25E025E0243A2FF805
:100260007401F2800EED700BEE25E025E0243A2FAC
:10027000F8E4F20FEFB404CC7819E204F2E254038C
:01028000F28B
:01028100225A
:0300000002028277
:0C028200787FE4F6D8FD7581200202C9E7
:10001E00BB010CE58229F582E5833AF583E0225097
:10002E0006E92582F8E622BBFE06E92582F8E222E1
:0D003E00E58229F582E5833AF583E49322FB
:10004B00E88FF0A4CC8BF0A42CFCE98EF0A42CFC54
:10005B008AF0EDA42CFCEA8EF0A4CDA8F08BF0A4D2
:10006B002DCC3825F0FDE98FF0A42CCD35F0FCEB31
:10007B008EF0A4FEA9F0EB8FF0A4CFC5F02ECD39F6
:0F008B00FEE43CFCEAA42DCE35F0FDE43CFC2263
:10009A0075F008758200EF2FFFEE33FECD33CDCC1D
:1000AA0033CCC58233C5829BED9AEC99E5829840A0
:1000BA000CF582EE9BFEED9AFDEC99FC0FD5F0D67D
:1000CA00E4CEFBE4CDFAE4CCF9A88222B800C1B9A7
:1000DA000059BA002DEC8BF084CFCECDFCE5F0CBE5
:1000EA00F97818EF2FFFEE33FEED33FDEC33FCEB1E
:1000FA0033FB10D703994004EB99FB0FD8E5E4F9D9
:10010A00FA227818EF2FFFEE33FEED33FDEC33FCC5
:10011A00C933C910D7059BE99A4007EC9BFCE99AB9
:10012A00F90FD8E0E4C9FAE4CCFB2275F010EF2FFE
:10013A00FFEE33FEED33FDCC33CCC833C810D707FE
:10014A009BEC9AE899400AED9BFDEC9AFCE899F839
:0E015A000FD5F0DAE4CDFBE4CCFAE4C8F922CC
:10062E00C2D5E830E70FB2D5E4C39BFBE49AFAE4F7
:10063E0099F9E498F8EC30E717B2D5120664120077
:10064E00D6E4C39BFBE49AFAE499F9E498F88003A4
:10065E001200D630D50DE4C39FFFE49EFEE49DFD4F
:04066E00E49CFC22EA
:10016800E8600FECC313FCED13FDEE13FEEF13FF75
:03017800D8F12299
:0C017B00ECF208EDF208EEF208EFF222C0
:10018700D083D082E493F208740193F20874029347
:09019700F208740393F27404737E
:10028E000206F4E493A3F8E493A34003F68001F28C
:10029E0008DFF48029E493A3F85407240CC8C33371
:1002AE00C4540F4420C8834004F456800146F6DF40
:1002BE00E4800B0102040810204080900543E47E88
:1002CE00019360BCA3FF543F30E509541FFEE49335
:1002DE00A360010ECF54C025E060A840B8E493A3FC
:1002EE00FAE493A3F8E493A3C8C582C8CAC583CA27
:1002FE00F0A3C8C582C8CAC583CADFE9DEE780BEDF
:0105A000005A
:00000001FF
