:06000E00810000810100E9
:10036200D2AF1205227F017E001202547F807E25C9
:100372007D007C001203DB1204CE7F501204EA924D
:1003820000A200E43324307845F208740DF20874B8
:0F0392000AF27BFE7A0079457D0312047280D84F
:0F052200E5A0541F44A0F5A05380AFE4F5A0223C
:04025400AB07AA0644
:1002580078481201AF000E1000AE02AF03E4FCFDB7
:100268007848E2FB08E2F908E2FA08E2CBF8120063
:1002780073E47BE87A03F9F81200FE78481201A3C8
:100288007848E2FB08E2F908E2FA08E2CBF8C3E4AE
:100298009BFFE49AFE740199FDE498FC78481201EA
:1002A800A37848E2FC08E2FD08E2FE08E2FF7808CD
:1002B8001201907800EFF27848080808E27801F215
:1002C8005389F043890118E2F58C08E2F58AD2A92E
:0202D800D28CC6
:0102DA002201
:100441007870EBF208EAF208E9F27870E2FB08E270
:10045100FA08E2F9AF050D8F82758300740D120061
:1004610051AF050D8F82758300740A120051020489
:010471007218
:03000B000202DB13
:1002DB00C0E0C0F0C083C082C0D075D000C000C0E9
:1002EB0001C002C003C004C005C006C0077800E20D
:1002FB00F58C08E2F58A7F011204A0D007D006D056
:10030B0005D004D003D002D001D000D0D0D082D001
:06031B0083D0F0D0E032B7
:05000300007F0BDFFE91
:0100080022D5
:10050000D2A0D2A1120003C2A1120003C2A0020015
:0105100003E7
:10051100C2A0C2A1120003D2A0120003D2A1020004
:0105210003D6
:0203A100AE07A5
:1003A3007D80ED601C5E7004C2A18002D2A11200A8
:1003B30003D2A0120003C2A0120003EDC313FD80F9
:1003C300E1D2A1120003D2A0A2A19202120003C2A1
:0703D300A0120003A202B317
:0103DA002200
:0204EA00AE075B
:1004EC00120500AF06EF25E0FF1203A192011205E1
:0304FC0011A20149
:0104FF0022DA
:0D001400C103C1048144008102008103008A
:1003DB0053877F759850538EBF538EFE53890F43AF
:1003EB008920AB07AA06A905A804E47F807E70FDCF
:1003FB00FC1200FEEFF404F58D858D8BC2ABD2ACF5
:03040B00D28E226C
:100472007873EBF208EAF208E9F2AF051DEF601DAE
:10048200C2047873E2FB0808E2F92401F218E2FAE6
:0E0492003400F2120026F5992004DF80FB22D0
:0A0321007870EBF208EAF208E9F246
:10032B007844E2FFEDD39F4002AD07E4FFEFC39D9E
:10033B00501E74042FF8E2FE7870E2FB0808E2F915
:10034B002401F218E2FA3400F2EE12003F0F80DDC6
:06035B00E47844F2AF0556
:010361002279
:1004A0007844E2FED3940040207802E26E6006EECB
:1004B000F2E408F2227803E2C3941E5010E22FF215
:0D04C000E2C3941E4007D20322E47802F24A
:0104CD00220C
:1004CE00300318C2037BFE7A0079487D281203217F
:0B04DE007BFE7A007948AD0712044154
:0104E90022F0
:0300230002040EC6
:10040E00C0E0C0D075D000C000C007309815C298AB
:10041E007844E2C39440500BE2FF04F274042FF8C8
:10042E00E599F2309904C299D204D007D000D0D009
:03043E00D0E032D9
:030000000201C832
:0C01C800787FE4F6D8FD75812002020F5C
:10002600BB010689828A83E0225002E722BBFE02D8
:09003600E32289828A83E493220B
:10003F00BB010689828A83F0225002F722BBFE01A0
:02004F00F3229A
:10005100F8BB010DE58229F582E5833AF583E8F0E5
:10006100225006E92582C8F622BBFE05E92582C891
:02007100F22279
:10007300E88FF0A4CC8BF0A42CFCE98EF0A42CFC2C
:100083008AF0EDA42CFCEA8EF0A4CDA8F08BF0A4AA
:100093002DCC3825F0FDE98FF0A42CCD35F0FCEB09
:1000A3008EF0A4FEA9F0EB8FF0A4CFC5F02ECD39CE
:0F00B300FEE43CFCEAA42DCE35F0FDE43CFC223B
:1000C20075F008758200EF2FFFEE33FECD33CDCCF5
:1000D20033CCC58233C5829BED9AEC99E582984078
:1000E2000CF582EE9BFEED9AFDEC99FC0FD5F0D655
:1000F200E4CEFBE4CDFAE4CCF9A88222B800C1B97F
:100102000059BA002DEC8BF084CFCECDFCE5F0CBBC
:10011200F97818EF2FFFEE33FEED33FDEC33FCEBF5
:1001220033FB10D703994004EB99FB0FD8E5E4F9B0
:10013200FA227818EF2FFFEE33FEED33FDEC33FC9D
:10014200C933C910D7059BE99A4007EC9BFCE99A91
:10015200F90FD8E0E4C9FAE4CCFB2275F010EF2FD6
:10016200FFEE33FEED33FDCC33CCC833C810D707D6
:100172009BEC9AE899400AED9BFDEC9AFCE899F811
:0E0182000FD5F0DAE4CDFBE4CCFAE4C8F922A4
:10019000E8600FECC313FCED13FDEE13FEEF13FF4D
:0301A000D8F12271
:0C01A300ECF208EDF208EEF208EFF22298
:1001AF00D083D082E493F208740193F2087402931F
:0901BF00F208740393F274047356
:1001D400020362E493A3F8E493A34003F68001F2DC
:1001E40008DFF48029E493A3F85407240CC8C3332C
:1001F400C4540F4420C8834004F456800146F6DFFB
:10020400E4800B010204081020408090000EE47E7C
:10021400019360BCA3FF543F30E509541FFEE493EF
:10022400A360010ECF54C025E060A840B8E493A3B6
:10023400FAE493A3F8E493A3C8C582C8CAC583CAE1
:10024400F0A3C8C582C8CAC583CADFE9DEE780BE99
:0100210000DE
:00000001FF
