:07070F0082000000810200DE
:1008E400D2AF120A187F017E001206141209A9124F
:1008F400058A120782300108C20130020312046C17
:0D0904003000EFC2001209A912098880E539
:0F0A1800E5A0541F44A0F5A05380AF53A01F22A8
:04061400AB07AA0680
:10061800785E120372000E1000AE02AF03E4FCFD18
:10062800785EE2FB08E2F908E2FA08E2CBF8120287
:1006380028E47BE87A03F9F81202B3785E120366BD
:10064800785EE2FB08E2F908E2FA08E2CBF8C3E4D4
:100658009BFFE49AFE740199FDE498FC785E12030E
:1006680066785EE2FC08E2FD08E2FE08E2FF780830
:100678001203537803EFF2785E080808E27804F270
:100688005389F043890118E2F58C08E2F58AD2A96A
:02069800D28C02
:01069A00223D
:03000B0002069B4F
:10069B00C0E0C0F0C083C082C0D075D000C000C025
:0D06AB0001C002C003C004C005C006C007A6
:1006B8007803E2F58C08E2F58A7801E22401F21861
:1006C800E23400F27802E204F2C318E294E818E295
:1006D80094034006E4F208F2D2017802E2C394C817
:0C06E8004004E4F2D20012083C12038B24
:1006F400D007D006D005D004D003D002D001D0005A
:0B070400D0D0D082D083D0F0D0E03203
:100716008A06C0F9A4B0999282F880908810FFFFEB
:09072600FFFFFFFFFFFF8105004A
:10083C00E5A0541F44E0F5A07580FF53A01FE5A070
:10084C00541F44C0F5A07805E2FF7480A807088007
:10085C0002C313D8FCF58053A01FE5A0541F44E03D
:10086C00F5A074102FF8E2F58053A01F7805E20470
:05087C00F2E25407F256
:010881002254
:0A072F00C102821A000082180000C7
:100988007F011207F4EFC3940CE5A0541F44805074
:1009980007F5A07580FE8005F5A07580FF53A01FA0
:0109A800222C
:1009A900781774FFF27806E2FF7816F2547FF2782E
:0909B9000BE27815F218EFF222AE
:1009C200E4F580E5A0541F44A0F5A043801053A095
:0209D2001F22E2
:1009D400E4F580E5A0541F44A0F5A05380EF53A094
:0209E4001F22D0
:10058A00781AE2FC08E2FDE4120119E4FBFAF978B0
:10059A003F12000E1201527818EEF208EFF218E23A
:1005AA00FA08E2FB7C037DE8FFAE021201D374066F
:1005BA002FF8E27813F27C007D64AF03AE021201D9
:1005CA00D37C007D0A1201D374062DF8E27812F268
:1005DA007818E2FA08E2FB7C007D0AFFAE021201FB
:1005EA00D37C007D0A1201D374062DF8E27811F249
:1005FA007C007D0AAF03AE021201D374062DF8E225
:0A060A007810F27812E2547FF22219
:10046C00781BE2240AF218E23400F2C308E2940F7B
:10047C0018E29427400F7427F208740FF2C202128C
:10048C0009D412058A781AE2FA08E2FB7C037DE8AB
:10049C00FFAE021201D374062FF8E27813F27C003F
:1004AC007D64AF03AE021201D37C007D0A1201D32E
:1004BC0074062DF8E27812F2781AE2FA08E2FB7C64
:1004CC00007D0AFFAE021201D37C007D0A1201D31B
:1004DC0074062DF8E27811F27C007D0AAF03AE02AF
:1004EC001201D374062DF8E27810F27812E2547FE0
:0204FC00F222EA
:1008B5007860EFF2BF3116200224E4781AF208F2CC
:1008C5007818F208F212046CD2020209C27860E2CA
:0F08D500B4340B300208C2021209D412058A2271
:0A0A0800120A12D2A0120A12C2A0B4
:050A1200007F0BDFFE78
:010A170022BC
:1009E600D2A0D2A1120A12C2A1120A12C2A0020AEF
:0109F60012EE
:1009F700C2A0C2A1120A12D2A0120A12D2A1020ADE
:010A070012DC
:02091100AE072F
:100913007D80ED60125E6004D2A18002C2A1120A42
:100923000BEDC313FD80EBD2A1120A12D2A0A2A138
:080933009203120A0DA203B3A6
:01093B002299
:10093C00E4FED2A17D80ED6015D2A0120A1230A186
:10094C00024EFEC2A0120A12EDC313FD80E8D2A122
:05095C00120A08AF06BD
:010961002273
:10096200E4FED2A17D80ED6015D2A0120A1230A160
:10097200024EFEC2A0120A12EDC313FD80E8C2A10C
:05098200120A08AF0697
:01098700224D
:0407F400785EEFF24A
:1007F8001209E67F9012091140061209F77F0022BC
:10080800785EE24440FF1209111209E67F9112094D
:100818001112096212093C785FEFF21209F7785F4A
:10082800E275F030A4FFAEF07C007DFF1201D378B2
:030838005FEFF27D
:01083B00229A
:10088200781CEFF2E275F0FFA4FFAEF07C007D3041
:100892001201D3781CEFF21209E67F90120911407F
:1008A20002800C7F40120911781CE2FF120911121A
:0308B20009F72221
:10073900904E0101010101010101010101010101C4
:100749000101903E313233193435361837383917AB
:10075900301B0D16901D010101010101010101016B
:10076900010101010101902EFFFFFFFFFFFFFFFFC4
:08077900FFFFFFFFFFFFFFFF80
:10078200E4785EF2E4785FF2785FE2C39404505654
:10079200E2FF18E2FE25E025E0244E2FF8E2FDEE0E
:1007A20025E025E0241D2FF8E2FF6D6032EF601393
:1007B200785FE2FF18E225E025E0243E2FF8E2FF11
:1007C2001208B5785FE2FF18E2FE25E025E0244E2C
:1007D2002FF8E2FDEE25E025E0241D2FF8EDF2785A
:1007E2005FE204F280A2785EE204F2E2C394044083
:0107F2009373
:0107F30022E3
:10038B00782DE21460101460131460162403701699
:10039B00C2B0D2B38010C2B1D2B0800AC2B2D2B155
:1003AB008004C2B3D2B2782DE2FF25E025E0242EE3
:1003BB00F8E225E0FEA2C4E4334EFEEF25E025E093
:1003CB00242EF8EEF2782DE2FF25E025E0242FF81D
:1003DB00E225E0FEA2C2E4334EFEEF25E025E02449
:1003EB002FF8EEF2782DE2FF25E025E02430F8E23D
:1003FB0025E0FEA2B5E4334EFEEF25E025E02430E8
:10040B00F8EEF2782DE2FF25E025E02431F8E22525
:10041B00E0FEA2B4E4334EFEEF25E025E02431F8F4
:10042B00EEF2E4FF782DE2FE25E025E0242E2FF8F6
:10043B00E2540FFD700DEE25E025E0244E2FF8E47D
:10044B00F2800FBD0F0CEE25E025E0244E2FF87443
:10045B0001F20FEFB404CD782DE204F2E25403F273
:01046B00226E
:10000E00EC4D6011E8497017ED33EC3304600DE4EC
:10001E00FCFFFEFD22E933E8330470F80201BE1244
:10002E00018958046009E4CC248150062850090245
:10003E0001C82840030201C5C0E0EB4A7044B980F4
:10004E0006D0E0FB0201B4EF4E701CBD8008EBFF42
:10005E00EAFEE9FD80EBE98DF0A4FEE5F00200F783
:10006E00E9CDF9EAFEEBFFEF89F0A4FCE5F0CE89CD
:10007E00F0A42EFFE435F0CD89F0A42DFEE435F08A
:10008E008067EF4E7005BD80D780C3EF8BF0A4ACB8
:10009E00F0EE8BF0A42CFCE435F0F8EF8AF0A42CF3
:1000AE00E5F038FCE433CB8DF0A42CFCE5F03BF806
:1000BE00EE8AF0A42CFCE5F038F8E433CF89F0A4F6
:1000CE002CFCE5F038CF3400CE89F0A42FFFE5F0FC
:1000DE003EFEE433C98DF0A42EFEE5F039CD8AF054
:1000EE00A42FFFE5F03EFEE43DFD33D0E0FB5007CC
:1000FE000BBB000F0201C8EC2CFCEF33FFEE33FEFE
:06010E00ED33FD0201A02B
:1001140075F020800E75F010800575F0087D007E66
:10012400007F003392D530D503120345EC334010E1
:10013400EF33FFEE33FEED33FDEC33FCD5F0ED226F
:0E014400E5F0247EA2D513CC92E7CDCEFF22AB
:10015200EDD2E7CD33EC3392D524814006E4FFFEA5
:10016200FDFC22FCE4CFCECDCC24E0501174FF8004
:10017200EDC3CC13CCCD13CDCE13CECF13CF0470A1
:07018200F030D5DE02034559
:10018900E9D2E7C933E833F892D5EDD2E7CD33ECBC
:0701990033FC5002B2D52235
:1001A000EC30E7100FBF000C0EBE00080DBD0004C0
:1001B0000BEB6014A2D5EB13FCED92E7FD2274FF6C
:1001C000FCFDFEFF22E480F8A2D574FF13FC7D80C5
:0301D000E480EFD9
:030000000204FEF9
:0C04FE00787FE4F6D8FD758120020545EA
:1001D300BC000BBE0029EF8DF084FFADF022E4CC10
:1001E300F875F008EF2FFFEE33FEEC33FCEE9DECD9
:1001F300984005FCEE9DFE0FD5F0E9E4CEFD22ED1F
:10020300F8F5F0EE8420D21CFEADF075F008EF2F68
:10021300FFED33FD4007985006D5F0F222C398FD59
:050223000FD5F0EA22F6
:10022800E88FF0A4CC8BF0A42CFCE98EF0A42CFC75
:100238008AF0EDA42CFCEA8EF0A4CDA8F08BF0A4F3
:100248002DCC3825F0FDE98FF0A42CCD35F0FCEB52
:100258008EF0A4FEA9F0EB8FF0A4CFC5F02ECD3917
:0F026800FEE43CFCEAA42DCE35F0FDE43CFC2284
:1002770075F008758200EF2FFFEE33FECD33CDCC3E
:1002870033CCC58233C5829BED9AEC99E5829840C1
:100297000CF582EE9BFEED9AFDEC99FC0FD5F0D69E
:1002A700E4CEFBE4CDFAE4CCF9A88222B800C1B9C8
:1002B7000059BA002DEC8BF084CFCECDFCE5F0CB06
:1002C700F97818EF2FFFEE33FEED33FDEC33FCEB3F
:1002D70033FB10D703994004EB99FB0FD8E5E4F9FA
:1002E700FA227818EF2FFFEE33FEED33FDEC33FCE7
:1002F700C933C910D7059BE99A4007EC9BFCE99ADB
:10030700F90FD8E0E4C9FAE4CCFB2275F010EF2F1F
:10031700FFEE33FEED33FDCC33CCC833C810D7071F
:100327009BEC9AE899400AED9BFDEC9AFCE899F85A
:0E0337000FD5F0DAE4CDFBE4CCFAE4C8F922ED
:0E034500C3E49FFFE49EFEE49DFDE49CFC22C9
:10035300E8600FECC313FCED13FDEE13FEEF13FF88
:03036300D8F122AC
:0C036600ECF208EDF208EEF208EFF222D3
:10037200D083D082E493F208740193F2087402935A
:09038200F208740393F274047391
:10050A000208E4E493A3F8E493A34003F68001F21B
:10051A0008DFF48029E493A3F85407240CC8C333F2
:10052A00C4540F4420C8834004F456800146F6DFC1
:10053A00E4800B010204081020408090070FE47E3B
:10054A00019360BCA3FF543F30E509541FFEE493B6
:10055A00A360010ECF54C025E060A840B8E493A37D
:10056A00FAE493A3F8E493A3C8C582C8CAC583CAA8
:10057A00F0A3C8C582C8CAC583CADFE9DEE780BE60
:010781000077
:00000001FF
