:10058700C0F9A4B0999282F880908883C6A1868E1C
:10053100810A00810B00C1008802FFFFFFFFFFFF5E
:08054100FFFF810000810100B1
:1003A700780C74AAF2D2AF1205977F017E00120370
:1003B700201204EF780474BFF27807F23000FDC210
:1003C700007BFE7A00790D12048F780DE2FF18E2A8
:1003D7006F60E9780FE2FEC4540F900587937809A0
:1003E700F2EE540F9318F2780EE2FEC4540F93788E
:1003F70006F2EE540F9318F2780DE2FEC4540F93F1
:0F0407007803F2EE540F9318F2780CEFF280ADF9
:0F059700E5A0541F44A0F5A05380AF53A01F222E
:04032000AB07AA0677
:10032400781512027B000E1000AE02AF03E4FCFD50
:100334007815E2FB08E2F908E2FA08E2CBF81201C8
:100344003FE47BE87A03F9F81201CA781512026FC8
:100354007815E2FB08E2F908E2FA08E2CBF8C3E414
:100364009BFFE49AFE740199FDE498FC781512024F
:100374006F7815E2FC08E2FD08E2FE08E2FF780867
:1003840012025C780AEFF27815080808E2780BF29A
:100394005389F043890118E2F58C08E2F58AD2A961
:0203A400D28CF9
:0103A6002234
:10041600E5A0541F44E0F5A07580FF53A01FE5A09A
:10042600541F44C0F5A07800E2FF7480A807088036
:1004360002C313D8FCF58053A01FE5A0541F44E067
:10044600F5A074022FF8E2F58053A01F7800E204AD
:05045600F2E25407F280
:01045B00227E
:03000B000204C02C
:0B04C000C0E0C0D075D000C000C00735
:1004CB00780AE2F58C08E2F58A1204167801E20448
:0B04DB00F2E2C394C84004E4F2D20037
:0904E600D007D000D0D0D0E032E4
:07000300002211170306188B
:100516007E01EE60135F6004D2A38002C2A3D2976D
:0A052600C297EE25E0FE80EAD2A3A2
:0105300022A8
:10054A00E4FF7E01EE600F30A3024FFFD297C297FD
:06055A00EE25E0FE80EE3C
:010560002278
:10056100D293EF25E04480FF120516AF0512051660
:03057100C2932210
:10057400D293EF25E04481FF12051612054AC29377
:02058400C2A310
:010586002252
:0A045C00781CEBF208EAF208E9F25E
:10046600D2937FBE120516E4FD781CE2FB0808E273
:10047600F92401F218E2FA3400F2120104FF12051F
:08048600160DEDB407E3C2936B
:01048E00224B
:0A048F007815EBF208EAF208E9F232
:10049900D2937FBF120516E4FD12054A7815E2FBD7
:1004A90008E2FA08E2F98D82758300EF12011D0D49
:0604B900EDB407E5C2935B
:0104BF00221A
:1004EF0078157C007DFE7BFF7A0079037E007F0705
:1004FF001200DEC293C297E4FD7F071205617BFEF7
:07050F007A00791502045C7B
:0300000002029465
:0C029400787FE4F6D8FD7581200202DBC3
:10000E00E709F608DFFA8046E709F208DFFA803ED4
:10001E0088828C83E709F0A3DFFA8032E309F608C1
:10002E00DFFA8078E309F208DFFA807088828C8329
:10003E00E309F0A3DFFA806489828A83E0A3F608DD
:10004E00DFFA805889828A83E0A3F208DFFA804CB7
:10005E0080D280FA80C680D4806980F2803380108E
:10006E0080A680EA809A80A880DA80E280CA8033F7
:10007E0089828A83ECFAE493A3C8C582C8CCC5836F
:10008E00CCF0A3C8C582C8CCC583CCDFE9DEE7803F
:10009E000D89828A83E493A3F608DFF9ECFAA9F0BE
:1000AE00EDFB2289828A83ECFAE0A3C8C582C8CC14
:1000BE00C583CCF0A3C8C582C8CCC583CCDFEADE2D
:1000CE00E880DB89828A83E493A3F208DFF980CC8F
:1000DE0088F0EF60010E4E60C388F0ED2402B40488
:1000EE000050B9F582EB2402B4040050AF2323452F
:0600FE00822390005E73F6
:10010400BB010689828A83E0225002E722BBFE02F9
:09011400E32289828A83E493222C
:10011D00F8BB010DE58229F582E5833AF583E8F018
:10012D00225006E92582C8F622BBFE05E92582C8C4
:02013D00F222AC
:10013F00E88FF0A4CC8BF0A42CFCE98EF0A42CFC5F
:10014F008AF0EDA42CFCEA8EF0A4CDA8F08BF0A4DD
:10015F002DCC3825F0FDE98FF0A42CCD35F0FCEB3C
:10016F008EF0A4FEA9F0EB8FF0A4CFC5F02ECD3901
:0F017F00FEE43CFCEAA42DCE35F0FDE43CFC226E
:10018E0075F008758200EF2FFFEE33FECD33CDCC28
:10019E0033CCC58233C5829BED9AEC99E5829840AB
:1001AE000CF582EE9BFEED9AFDEC99FC0FD5F0D688
:1001BE00E4CEFBE4CDFAE4CCF9A88222B800C1B9B2
:1001CE000059BA002DEC8BF084CFCECDFCE5F0CBF0
:1001DE00F97818EF2FFFEE33FEED33FDEC33FCEB29
:1001EE0033FB10D703994004EB99FB0FD8E5E4F9E4
:1001FE00FA227818EF2FFFEE33FEED33FDEC33FCD1
:10020E00C933C910D7059BE99A4007EC9BFCE99AC4
:10021E00F90FD8E0E4C9FAE4CCFB2275F010EF2F09
:10022E00FFEE33FEED33FDCC33CCC833C810D70709
:10023E009BEC9AE899400AED9BFDEC9AFCE899F844
:0E024E000FD5F0DAE4CDFBE4CCFAE4C8F922D7
:10025C00E8600FECC313FCED13FDEE13FEEF13FF80
:03026C00D8F122A4
:0C026F00ECF208EDF208EEF208EFF222CB
:10027B00D083D082E493F208740193F20874029352
:09028B00F208740393F274047389
:1002A0000203A7E493A3F8E493A34003F68001F2CA
:1002B00008DFF48029E493A3F85407240CC8C3335F
:1002C000C4540F4420C8834004F456800146F6DF2E
:1002D000E4800B0102040810204080900531E47E88
:1002E000019360BCA3FF543F30E509541FFEE49323
:1002F000A360010ECF54C025E060A840B8E493A3EA
:10030000FAE493A3F8E493A3C8C582C8CAC583CA14
:10031000F0A3C8C582C8CAC583CADFE9DEE780BECC
:0105490000B1
:00000001FF
