:09041F008101008102008100004E
:10059100D2AF1205D57F017E001203261203AD8072
:0105A100FB5E
:100571007847EFF21205B37F901204EF4002800C2E
:100581007F401204EF7847E2FF1204EF1205C42204
:0404B8007846EFF2A1
:1004BC00BF260C7800E2C394325027E204801078F7
:1004CC0046E2B4281D7800E2D394004015E214F201
:1004DC00E275F0FFA4FFAEF07C007D3212000E122C
:0204EC00057198
:0104EE0022EB
:0F05D500E5A0541F44A0F5A05380AF53A01F22F0
:04032600AB07AA0671
:10032A00784412019F000E1000AE02AF03E4FCFDF8
:10033A007844E2FB08E2F908E2FA08E2CBF8120094
:10034A0063E47BE87A03F9F81200EE784412019329
:10035A007844E2FB08E2F908E2FA08E2CBF8C3E4DF
:10036A009BFFE49AFE740199FDE498FC784412011B
:10037A00937844E2FC08E2FD08E2FE08E2FF78080E
:10038A001201807801EFF27844080808E27802F254
:10039A005389F043890118E2F58C08E2F58AD2A95B
:0203AA00D28CF3
:0103AC00222E
:03000B0002047478
:10047400C0E0C0F0C083C082C0D075D000C000C04E
:1004840001C002C003C004C005C006C0077801E271
:10049400F58C08E2F58A1201B8D007D006D005D051
:1004A40004D003D002D001D000D0D0D082D083D0E9
:0404B400F0D0E03272
:0A05A2001205ACD2A01205ACC2A0F5
:0605AC0000007F0CDFFEE1
:0105B2002226
:1005B300D2A0D2A11205ACC2A11205ACC2A0020501
:0105C300AC8B
:1005C400C2A0C2A01205ACD2A01205ACD2A10205F1
:0105D400AC7A
:0204EF00AE0756
:1004F100C2A01205AC7D80ED60125E6004D2A180C5
:1005010002C2A11205A2EDC313FD80EBD2A1120517
:0D051100ACD2A0A2A192001205A7A200B3D7
:01051E0022BA
:10051F00E4FED2A11205AC7D80ED6015D2A01205CC
:10052F00AC30A1024EFEC2A01205ACEDC313FD808C
:08053F00E8C2A11205A2AF06FB
:010547002291
:10054800E4FED2A11205AC7D80ED6015D2A01205A3
:10055800AC30A1024EFEC2A01205ACEDC313FD8063
:08056800E8D2A11205A2AF06C2
:010570002268
:1004280090340101010101010101010101010101F2
:1004380001019024313233263435362537383928AE
:10044800301B0D2790030101010101010101010188
:100458000101010101018113009014FFFFFFFFFF5B
:0B046800FFFFFFFFFFFFFFFFFFFFFF94
:1003AD00E47844F2E47845F27845E2C3940450567B
:1003BD00E2FF18E2FE25E025E024342FF8E2FDEE01
:1003CD0025E025E024032FF8E2FF6D6032EF601386
:1003DD007845E2FF18E225E025E024242FF8E2FF1E
:1003ED001204B87845E2FF18E2FE25E025E024343A
:1003FD002FF8E2FDEE25E025E024032FF8EDF2784D
:10040D0045E204F280A27844E204F2E2C39404408F
:01041D00934B
:01041E0022BB
:1001B8007813E21460101460131460162403701688
:1001C800C2B0D2B38010C2B1D2B0800AC2B2D2B12A
:1001D8008004C2B3D2B27813E2FF25E025E02414EC
:1001E800F8E225E0FEA2C4E4334EFEEF25E025E068
:1001F8002414F8EEF27813E2FF25E025E02415F840
:10020800E225E0FEA2C2E4334EFEEF25E025E0241D
:1002180015F8EEF27813E2FF25E025E02416F8E25F
:1002280025E0FEA2B5E4334EFEEF25E025E02416D6
:10023800F8EEF27813E2FF25E025E02417F8E2252E
:10024800E0FEA2B4E4334EFEEF25E025E02417F8E3
:10025800EEF2E4FF7813E2FE25E025E024142FF8FF
:10026800E2540FFDBD0F0EEE25E025E024342FF8F3
:100278007401F2800EED700BEE25E025E024342F9A
:10028800F8E4F20FEFB404CC7813E204F2E254037A
:01029800F273
:010299002242
:0300000002029A5F
:0C029A00787FE4F6D8FD7581200202E1B7
:10000E00BC000BBE0029EF8DF084FFADF022E4CCD6
:10001E00F875F008EF2FFFEE33FEEC33FCEE9DEC9F
:10002E00984005FCEE9DFE0FD5F0E9E4CEFD22EDE5
:10003E00F8F5F0EE8420D21CFEADF075F008EF2F2F
:10004E00FFED33FD4007985006D5F0F222C398FD20
:05005E000FD5F0EA22BD
:10006300E88FF0A4CC8BF0A42CFCE98EF0A42CFC3C
:100073008AF0EDA42CFCEA8EF0A4CDA8F08BF0A4BA
:100083002DCC3825F0FDE98FF0A42CCD35F0FCEB19
:100093008EF0A4FEA9F0EB8FF0A4CFC5F02ECD39DE
:0F00A300FEE43CFCEAA42DCE35F0FDE43CFC224B
:1000B20075F008758200EF2FFFEE33FECD33CDCC05
:1000C20033CCC58233C5829BED9AEC99E582984088
:1000D2000CF582EE9BFEED9AFDEC99FC0FD5F0D665
:1000E200E4CEFBE4CDFAE4CCF9A88222B800C1B98F
:1000F2000059BA002DEC8BF084CFCECDFCE5F0CBCD
:10010200F97818EF2FFFEE33FEED33FDEC33FCEB05
:1001120033FB10D703994004EB99FB0FD8E5E4F9C0
:10012200FA227818EF2FFFEE33FEED33FDEC33FCAD
:10013200C933C910D7059BE99A4007EC9BFCE99AA1
:10014200F90FD8E0E4C9FAE4CCFB2275F010EF2FE6
:10015200FFEE33FEED33FDCC33CCC833C810D707E6
:100162009BEC9AE899400AED9BFDEC9AFCE899F821
:0E0172000FD5F0DAE4CDFBE4CCFAE4C8F922B4
:10018000E8600FECC313FCED13FDEE13FEEF13FF5D
:03019000D8F12281
:0C019300ECF208EDF208EEF208EFF222A8
:10019F00D083D082E493F208740193F2087402932F
:0901AF00F208740393F274047366
:1002A600020591E493A3F8E493A34003F68001F2D8
:1002B60008DFF48029E493A3F85407240CC8C33359
:1002C600C4540F4420C8834004F456800146F6DF28
:1002D600E4800B010204081020408090041FE47E95
:1002E600019360BCA3FF543F30E509541FFEE4931D
:1002F600A360010ECF54C025E060A840B8E493A3E4
:10030600FAE493A3F8E493A3C8C582C8CAC583CA0E
:10031600F0A3C8C582C8CAC583CADFE9DEE780BEC6
:010473000088
:00000001FF
