:100967008A01C0F9A4B0999282F88090880BFFFFA2
:09097700FFFFFFFFFFFF810000FC
:100F8800E5A0541F44E0F5A07580FF53A01FE5A01D
:100F9800541F44C0F5A07800E2FF7480A8070880B9
:100FA80002C313D8FCF58053A01FE5A0541F44E0EA
:100FB800F5A0740B2FF8E2F58053A01F7800E20427
:050FC800F2E25407F203
:010FCD002201
:100F4100E4FEEF75F00A8474132EF8E5F0F2EF7504
:100F5100F00A84FF0EEEB408E97E0774132EF8E25E
:100F61007009740B2EF874FFF2DEF0C3EE64809406
:100F710080401374132EF8E22401F8E2FF740B2E63
:060F8100F8EFF21E80E50E
:010F87002247
:100980008142FFC101C103C102C104C10584340019
:10099000000000843900000000843D000000008158
:1009A0004100813800C10081320081310081330073
:1009B000813000811B01811C01821D0000821F000B
:0C09C0000081210082220000822400003F
:10056E00D2AF12143F7F017E00120AA81213EC12B2
:10057E0012C77BFE7A007979788B7401F2E4FD1252
:10058E000CFA7BFE7A007978788B7401F2FD120CEE
:10059E00FA120B2F300130C2017842E2700C7882D1
:1005AE00E27007D20B120DBF801D7842E2B4010A31
:1005BE007884E27005120FCE800D7842E2B4020705
:1005CE00A206920B1203B8200003020676C2007F29
:1005DE0003120EF97841EFF27879E26F70107838E5
:1005EE00E2FF7841E2D39F4005E4783280187878B4
:1005FE00E2FF7841E2FE6F70697838E2FFEEC39F4A
:10060E00506078327401F27BFE7A007928120C91D8
:10061E00782CE27831F2782DE27833F2782EE27887
:10062E0030F27BFE7A007932788E7401F27D0212FE
:10063E000D607BFE7A007931788E7401F27D0312A3
:10064E000D607BFE7A007933788E7401F27D041290
:10065E000D607BFE7A007930788E7401F27D051282
:10066E000D607841E27838F230020E200303020565
:10067E009FC20312125802059F20040302059F20F9
:0D068E00050302059FC20512107102059FB1
:10125800781BE2B40114E4F27883E2FF240BF874FB
:10126800FFF2740A2FF874FFF222781B7401F2C29D
:041278000B120DBF89
:01127C00224F
:10107100781CE2B40122E4F27885E2FF240BF874D3
:10108100FFF2740A2FF874FFF274092FF874FFF25B
:1010910074082FF874FFF222781C7401F2120E1CEE
:0110A100222C
:0F143F00E5A0541F44A0F5A05380AF53A01F2277
:1013EC00758CFF758AFF5389F0438904D2A9D28C7E
:0113FC0022CE
:040AA800AB07AA06E8
:100AAC00788712039F000E1000AE02AF03E4FCFD2A
:100ABC007887E2FB08E2F908E2FA08E2CBF81202C6
:100ACC0063E47BE87A03F9F81202EE788712039359
:100ADC007887E2FB08E2F908E2FA08E2CBF8C3E413
:100AEC009BFFE49AFE740199FDE498FC788712034D
:100AFC00937887E2FC08E2FD08E2FE08E2FF780842
:100B0C001203807826EFF27887080808E27827F23B
:100B1C0053890F43891018E2F58D08E2F58BD2AB9F
:020B2C00D28E67
:010B2E0022A4
:03000B00020E687A
:100E6800C0E0C0F0C083C082C0D075D000C000C050
:100E780004C005C006C0077834E2FC08E2FD08E2B9
:100E8800FE08E22401FFE43EFEE43DFDE43CFC787C
:100E980034120393D007D006D005D004D000D0D0A8
:090EA800D082D083D0F0D0E032FA
:03001B000207A336
:1007A300C0E0C0F0C083C082C0D075D000C000C01C
:0D07B30001C002C003C004C005C006C0079D
:1007C0007826E2F58D08E2F58B7821E204F2E2C3A7
:1007D00094C84004E4F2D2017823E22401F218E242
:1007E0003400F27825E22401F218E23400F2782095
:1007F000E22401F218E23400F218E22401F218E2D5
:100800003400F2C37823E294E818E294034006E44B
:10081000F208F2D203C37825E294E818E294034088
:1008200006E4F208F2D205C37820E294E818E294D4
:1008300003401FE4F208F27834E2FC08E2FD08E22B
:10084000FE08E2FF7839120393783412039F000008
:100850000000C3781EE294E818E294034006E4F234
:0A08600008F2D200120F881208857A
:10086A00D007D006D005D004D003D002D001D000E2
:0B087A00D0D0D082D083D0F0D0E0328C
:10141F00313233193435361837383917301B0D162A
:1009CC009064010101010101010101010101010119
:1009DC00010190430101010101010101010101012A
:1009EC00010101018153009054FFFFFFFFFFFFFF46
:0909FC00FFFFFFFFFFFFFFFFFFFB
:100B2F00E47887F2E47888F27888E2C39404506618
:100B3F00E2FF18E2FE25E025E024642FF8E2FDEE47
:100B4F0025E025E024432FF8E2FF6D6026EF6023B8
:100B5F007888E2FF18E225E025E0241FF582E434CF
:100B6F0014F583E5822FF582E43583F583E493FF53
:100B7F0012069B7888E2FF18E2FE25E025E0246448
:100B8F002FF8E2FDEE25E025E024432FF8EDF27873
:100B9F0088E204F280927887E204F2E2C394044080
:010BAF0083C2
:010BB0002222
:100885007853E21460101460131460162403701674
:10089500C2B0D2B38010C2B1D2B0800AC2B2D2B156
:1008A5008004C2B3D2B27853E2FF25E025E0245498
:1008B500F8E225E0FEA2C4E4334EFEEF25E025E094
:1008C5002454F8EEF27853E2FF25E025E02455F8AC
:1008D500E225E0FEA2C2E4334EFEEF25E025E0244A
:1008E50055F8EEF27853E2FF25E025E02456F8E2CC
:1008F50025E0FEA2B5E4334EFEEF25E025E02456C3
:10090500F8EEF27853E2FF25E025E02457F8E225DA
:10091500E0FEA2B4E4334EFEEF25E025E02457F8CF
:10092500EEF2E4FF7853E2FE25E025E024542FF8AB
:10093500E2540FFDBD0F0EEE25E025E024642FF8EF
:100945007401F2800EED700BEE25E025E024642F96
:10095500F8E4F20FEFB404CC7853E204F2E2540366
:01096500F29F
:01096600226E
:0800030000180515121500029A
:101363007E01EE60135F6004D2A38002C2A3D29712
:0A137300C297EE25E0FE80EAD2A347
:01137D00224D
:10139900E4FF7E01EE600F30A3024FFFD297C297A0
:0613A900EE25E0FE80EEDF
:0113AF00221B
:0A100B007897EBF208EAF208E9F228
:10101500D2937FBE121363E4FD7897E2FB0808E2E2
:10102500F92401F218E2FA3400F2120114FF121346
:08103500630DEDB408E3C29362
:01103D002290
:0A10A2007895EBF208EAF208E9F293
:1010AC00D2937FBF121363E4FD1213997895E2FB80
:1010BC0008E2FA08E2F98D82758300EF12016C0DDB
:0610CC00EDB408E5C2933B
:0110D20022FB
:100EB100E47896F212021918F290000212012D78CC
:100EC10093F290000312012D7892F2900004120126
:100ED1002D7891F290000512012D7890F290000684
:100EE10012012D788FF290000712012D7894F27B78
:080EF100FE7A00798F02100B5C
:0A0C9100788AEBF208EAF208E9F2B3
:100C9B007BFE7A00798D1210A27893E2FF788AE2BC
:100CAB00FB08E2FA08E2F9E48FF01202447891E2D1
:100CBB00FF788AE2FB08E2FA08E2F9900002EF12F1
:100CCB00016C7890E290000312016C788FE2900037
:100CDB000412016C788EE290000512016C788DE2A3
:0F0CEB0090000612016C7892E290000702016CF3
:1012C70078877C007DFE7BFF7A0079037E007F08AC
:1012D7001200EEC293C2977BFE7A007987020EB1A5
:100A050081791481780A8182008183008184008143
:060A15008500C106C107C7
:100DBF00300B097BFE7A00797A120C91787EE2FF74
:100DCF00C4540F2401F8E27812F2EF540F2401F803
:100DDF00E27811F21874BFF2787FE2FFC4540F2447
:100DEF0001F8E2780FF2EF540F2401F8E2780EF2D7
:100DFF001874BFF27880E2FFC4540F2401F8E27830
:0D0E0F000CF2EF540F2401F8E2780BF222F0
:100C22007BFE7A0079741211311213B07974E3FEEB
:100C320009E37804CEA2E713CE13D8F8F3EE797461
:100C4200F37874E2FE08E2FFD39400EE64809480AD
:100C52004010EF9463EE64809480500608EEF20830
:100C6200EFF27876E2FA08E2FB7C007D0AFFAE0240
:100C72001201E374012FF8E2780CF27C007D0AAFD6
:0E0C820003AE021201E374012DF8E2780BF2CA
:010C90002241
:100FCE00781274BFF27802E27811F21874BFF21838
:100FDE0074FFF27801E2FF780BF208EFF27F031252
:100FEE000EF9EF75F00A84740125F0F8E2780DF22F
:0C0FFE00EF75F00A842401F8E2780EF28E
:01100A0022C3
:100E1C007801E2FF780BF208EFF2780FEFF208EFAF
:100E2C00F27878E2FF75F00A84740125F0F8E27824
:100E3C000DF2EF75F00A842401F8E2780EF278795D
:100E4C00E2FF75F00A84740125F0F8E27811F2EFF4
:0C0E5C0075F00A842401F8E27812F222FA
:1003B800781274BFF27803E27811F21874BFF23041
:1003C8000B0302047FE47B0AFAF9F8C0007839E2EB
:1003D800FC08E2FD08E2FE08E2FFD0001202EE741B
:1003E800012BF8E2780BF2E47B0AFAF9F8C00078FE
:1003F80039E2FC08E2FD08E2FE08E2FFD000120242
:10040800EEE47B0AFAF9F81202EE74012BF8E278AE
:100418000CF2E47B64FAF9F8C0007839E2FC08E2EF
:10042800FD08E2FE08E2FFD0001202EEE47B0AFAC1
:10043800F9F81202EE74012BF8E2780DF2E47BE889
:100448007A03F9F8C0007839E2FC08E2FD08E2FE18
:1004580008E2FFD0001202EEE47B0AFAF9F8120271
:10046800EE74012BF8E2780EF2E47B107A27F9F8A3
:10047800C000783902054C7839E2FB08E2F908E255
:10048800FA08E2CBF87F407E427D0F7C001202EE34
:10049800783D120393E47B0AFAF9F8C000783DE24C
:1004A800FC08E2FD08E2FE08E2FFD0001202EE744A
:1004B800012BF8E2780BF2E47B0AFAF9F8C000782D
:1004C8003DE2FC08E2FD08E2FE08E2FFD00012026D
:1004D800EEE47B0AFAF9F81202EE74012BF8E278DE
:1004E8000CF2E47B64FAF9F8C000783DE2FC08E21B
:1004F800FD08E2FE08E2FFD0001202EEE47B0AFAF1
:10050800F9F81202EE74012BF8E2780DF2E47BE8B8
:100518007A03F9F8C000783DE2FC08E2FD08E2FE43
:1005280008E2FFD0001202EEE47B0AFAF9F81202A0
:10053800EE74012BF8E2780EF2E47B107A27F9F8D2
:10054800C000783DE2FC08E2FD08E2FE08E2FFD0C8
:10055800001202EEE47B0AFAF9F81202EE74012B9B
:06056800F8E2780FF22218
:100BB100200B1A781274FFF218F218F218F218F2D8
:100BC10018F27801E2780CF27832E2804C300B5066
:100BD1007831E2FFC4540F2401F8E27812F2EF54A5
:100BE1000F2401F8E27811F21874BFF27833E2FFB2
:100BF100C4540F2401F8E2780FF2EF540F2401F8E6
:100C0100E2780EF21874BFF27830E2FFC4540F2478
:100C110001F8E2780CF2EF540F2401F8E2780BF2BC
:010C210022B0
:1013C600200604D2068005300602C206A206920B4B
:0313D6000203B857
:1013D900200704D2078005300702C207A207920B33
:0313E900020BB143
:1012E7000FEF540FFEBE0A06EF54F02410FF300B29
:1012F70008EFB4240AE4FF8006EFB46002E4FF229B
:101307001FEF540FFEBE0F06EF54F04409FF300BDA
:1013170008EFB4F90A7F238006EFB4F9027F592258
:10118A007882E224FE600F1460142402701B787EB9
:10119A00E2FFD20B800E787FE2FFC20B80067880D6
:0A11AA00E2FFC20B1212E7EFF2227F
:1011B4007882E224FE600F1460142402701B787E8F
:1011C400E2FFD20B800E787FE2FFC20B80067880AC
:0A11D400E2FFC20B121307EFF22234
:10127D007882E2FFB40105087407F222EFB402068A
:10128D0078837404F222EFB4030678837401F2229A
:05129D00E47883F22259
:10137E007884E2FFB40105087407F222EFB4020686
:0B138E0078857403F222E47885F222D7
:1010D3007884E2FEB401117879E22405F2E2C39444
:1010E3005F4018745FF28013EEB402127878E22442
:0F10F30005F2E2C3945F4003745FF2120E1C22F9
:101102007884E2FEB401117879E224FBF2E2D3940E
:101112000550187405F28013EEB402127878E224B6
:0F112200FBF2E2D3940550037405F2120E1C2267
:101327007BFE7A007979788E7401F2E4FD120D6004
:0F1337007BFE7A007978788E7401F2FD020D60EA
:10069B007889EFF2BF3118E47842F230020BC202D4
:1006AB007BFE7A00797A120EB1E47882F2802078A0
:1006BB0089E26430704E7842E2FE7016200202D25C
:1006CB00027882E204F2E2C3940440037401F20262
:1006DB00127DEEB40118200402D2047884E204F2F5
:1006EB00E2C3940340037401F212137E80657842D7
:1006FB00E2B402030213C67842E26403600302070A
:10070B00A20213D97889E2643270207842E2700A2F
:10071B007882E2600512118A80257842E2640170CA
:10072B00767884E260711210D380287889E2643580
:10073B0070247842E2700D7882E260081211B4C224
:10074B000B020DBF7842E26401704C7884E2604783
:10075B00121102020E1C7889E2B43417784274012C
:10076B00F2300405C204121327120FCEE47884F280
:10077B0002137E7889E2B4370C78427402F2A20637
:10078B00920B0203B87889E2B4380C78427403F206
:08079B00A207920B120BB12220
:0B000E000000000000000000DFF622F0
:10134600C2947FFA12000E7FFA12000ED2947F3CEE
:0C13560012000EA29492083094FDA20830
:011362002268
:0212A200AE0795
:1012A4007D01ED601DC2947F0212000E5E6004D2C7
:1012B400948002C2947F3C12000ED294ED25E0FD8E
:0212C40080E0C8
:0112C6002205
:10123000E4FE7D01ED601EC2947F0212000ED29486
:101240007F0212000E3094024EFE7F3C12000EED23
:0712500025E0FD80DFAF0681
:011257002274
:1013B000121346920920090A7FCC1212A27F44120E
:0513C00012A2A209B316
:0113C5002205
:10113100121346920A200A227FCC1212A27FBE12FB
:1011410012A2121230AC07121230EFFEAD047C0075
:0D115100E42DFFEC3E8FF0120244A20AB321
:01115E00226E
:0A142F00121439D2A0121439C2A021
:05143900007F0BDFFE47
:01143E00228B
:1013FD00D2A0D2A1121439C2A1121439C2A0021462
:01140D0039A5
:10140E00C2A0C2A1121439D2A0121439D2A1021450
:01141E003994
:02115F00AE07D9
:101161007D80ED60125E6004D2A18002C2A11214E2
:101171002FEDC313FD80EBD2A1121439D2A0A2A18D
:08118100920B121434A20BB30F
:011189002243
:1011DE00E4FED2A11214397D80ED6015D2A0121456
:1011EE003930A1024EFEC2A0121439EDC313FD8098
:0811FE00E8C2A112142FAF0694
:0112060022C5
:10120700E4FED2A11214397D80ED6015D2A012142C
:101217003930A1024EFEC2A0121439EDC313FD806E
:08122700E8D2A112142FAF065A
:01122F00229C
:100CFA007887EBF208EAF208E9F208EDF21213FD3E
:100D0A007FA012115F400512140E80F1788AE2FF6B
:100D1A0012115F1213FD7FA112115F788BE2D39437
:100D2A0001401F1211DE7887E2FB0808E2F924016C
:100D3A00F218E2FA3400F2EF12015A788BE214F256
:100D4A0080D91212077887E2FB08E2FA08E2F9EF83
:060D5A0012015A02140E02
:100D6000788AEBF208EAF208E9F208EDF2788EE20E
:100D7000D3940040491213FD7FA012115F40051269
:100D8000140E80F1788DE2FF12115F788EE2D39419
:100D9000004026788AE2FB0808E2F92401F218E212
:100DA000FA3400F2120114FF12115F788EE214F28D
:0F0DB00018E204F2E2540770D212140E80AF2240
:040EF900788AEFF212
:100EFD001213FD7F9012115F400612140E7F002217
:100F0D00788AE24440FF12115F1213FD7F91121196
:100F1D005F1211DE121207788BEFF212140E788B1E
:100F2D00E275F030A4FFAEF07C007DFF12018E78EB
:030F3D008BEFF245
:010F4000228E
:10103E007886EFF2E275F0FFA4FFAEF07C007D3013
:10104E0012018E7886EFF21213FD7F9012115F401F
:10105E0002800C7F4012115F7886E2FF12115F1240
:03106E00140E223B
:03000000020A1CD5
:0C0A1C00787FE4F6D8FD758121020A63A2
:10001E00E709F608DFFA8046E709F208DFFA803EC4
:10002E0088828C83E709F0A3DFFA8032E309F608B1
:10003E00DFFA8078E309F208DFFA807088828C8319
:10004E00E309F0A3DFFA806489828A83E0A3F608CD
:10005E00DFFA805889828A83E0A3F208DFFA804CA7
:10006E0080D280FA80C680D4806980F2803380107E
:10007E0080A680EA809A80A880DA80E280CA8033E7
:10008E0089828A83ECFAE493A3C8C582C8CCC5835F
:10009E00CCF0A3C8C582C8CCC583CCDFE9DEE7802F
:1000AE000D89828A83E493A3F608DFF9ECFAA9F0AE
:1000BE00EDFB2289828A83ECFAE0A3C8C582C8CC04
:1000CE00C583CCF0A3C8C582C8CCC583CCDFEADE1D
:1000DE00E880DB89828A83E493A3F208DFF980CC7F
:1000EE0088F0EF60010E4E60C388F0ED2402B40478
:1000FE000050B9F582EB2402B4040050AF2323451F
:06010E00822390006E73D5
:10011400BB010689828A83E0225002E722BBFE02E9
:09012400E32289828A83E493221C
:10012D00BB010CE58229F582E5833AF583E0225087
:10013D0006E92582F8E622BBFE06E92582F8E222D1
:0D014D00E58229F582E5833AF583E49322EB
:10015A00BB010689828A83F0225002F722BBFE0184
:02016A00F3227E
:10016C00F8BB010DE58229F582E5833AF583E8F0C9
:10017C00225006E92582C8F622BBFE05E92582C875
:02018C00F2225D
:10018E00BC000BBE0029EF8DF084FFADF022E4CC55
:10019E00F875F008EF2FFFEE33FEEC33FCEE9DEC1E
:1001AE00984005FCEE9DFE0FD5F0E9E4CEFD22ED64
:1001BE00F8F5F0EE8420D21CFEADF075F008EF2FAE
:1001CE00FFED33FD4007985006D5F0F222C398FD9F
:0501DE000FD5F0EA223C
:1001E300C2D5EC30E709B2D5E4C39DFDE49CFCEE37
:1001F30030E715B2D5E4C39FFFE49EFE12018EC320
:10020300E49DFDE49CFC800312018E30D507C3E41A
:060213009FFFE49EFE22A5
:10021900BB010A89828A83E0F5F0A3E022500687B0
:10022900F009E71922BBFE07E3F5F009E319228972
:0B023900828A83E493F5F074019322A5
:10024400BB010A89828A83F0E5F0A3F0225006F705
:0F02540009A7F01922BBFE06F3E5F009F3192202
:10026300E88FF0A4CC8BF0A42CFCE98EF0A42CFC3A
:100273008AF0EDA42CFCEA8EF0A4CDA8F08BF0A4B8
:100283002DCC3825F0FDE98FF0A42CCD35F0FCEB17
:100293008EF0A4FEA9F0EB8FF0A4CFC5F02ECD39DC
:0F02A300FEE43CFCEAA42DCE35F0FDE43CFC2249
:1002B20075F008758200EF2FFFEE33FECD33CDCC03
:1002C20033CCC58233C5829BED9AEC99E582984086
:1002D2000CF582EE9BFEED9AFDEC99FC0FD5F0D663
:1002E200E4CEFBE4CDFAE4CCF9A88222B800C1B98D
:1002F2000059BA002DEC8BF084CFCECDFCE5F0CBCB
:10030200F97818EF2FFFEE33FEED33FDEC33FCEB03
:1003120033FB10D703994004EB99FB0FD8E5E4F9BE
:10032200FA227818EF2FFFEE33FEED33FDEC33FCAB
:10033200C933C910D7059BE99A4007EC9BFCE99A9F
:10034200F90FD8E0E4C9FAE4CCFB2275F010EF2FE4
:10035200FFEE33FEED33FDCC33CCC833C810D707E4
:100362009BEC9AE899400AED9BFDEC9AFCE899F81F
:0E0372000FD5F0DAE4CDFBE4CCFAE4C8F922B2
:10038000E8600FECC313FCED13FDEE13FEEF13FF5B
:03039000D8F1227F
:0C039300ECF208EDF208EEF208EFF222A6
:10039F00D083D082E493F208740193F2087402932D
:0903AF00F208740393F274047364
:100A280002056EE493A3F8E493A34003F68001F271
:100A380008DFF48029E493A3F85407240CC8C333CF
:100A4800C4540F4420C8834004F456800146F6DF9E
:100A5800E4800B0102040810204080900967E47EBE
:100A6800019360BCA3FF543F30E509541FFEE49393
:100A7800A360010ECF54C025E060A840B8E493A35A
:100A8800FAE493A3F8E493A3C8C582C8CAC583CA85
:100A9800F0A3C8C582C8CAC583CADFE9DEE780BE3D
:010A1B0000DA
:00000001FF
