:0B000E000000000000000000DFF622F0
:10087500C2AFC2947FFA12000E7FFA12000ED29414
:100885007F3C12000EA29492033094FDD2AFA203D6
:010895002240
:02084C00AE07F5
:10084E00C2AF7D01ED601DC2947F0212000E5E608C
:10085E0004D2948002C2947F3C12000ED294ED25F5
:06086E00E0FD80E0D2AFC6
:010874002261
:10082000E4FEC2AF7D01ED601EC2947F0212000E95
:10083000D2947F0212000E30940242067F3C1200D6
:0B0840000EED25E0FD80DFD2AFAF061B
:01084B00228A
:1008EB00120875920220020A7FCC12084C7F441228
:0508FB00084CA202B34D
:0109000022D4
:1007F20012087592022002227FCC12084C7FBE1290
:10080200084C120820AC07120820EFFEAD047C0051
:0D081200E42DFFEC3E8FF0120054A202B363
:01081F0022B6
:10092700313233193435361837383917301B0D162D
:1006710090000101010101010101010101010101DB
:10068100010110210101010101010101010101012A
:10069100010101010131001032FFFFFFFFFFFFFFE8
:0906A100FFFFFFFFFFFFFFFFFF59
:1004D600E4F508E4F509E50825E025E0240025090A
:1004E600F8E2FFE50825E025E024212509F8E6FEE7
:1004F6006F603DEE6020E50825E025E02427F582C3
:10050600E43409F583E5822509F582E43583F5832C
:10051600E493FF1207C3E50825E025E0240025093A
:10052600F8E2FFE50825E025E024212509F8A607DD
:100536000509E509C39404409D0508E508C394042C
:020546004091E2
:010548002290
:1001F800E53114601014601314601624037016C2DD
:10020800B0D2B38010C2B1D2B0800AC2B2D2B1802B
:1002180004C2B3D2B2E53125E025E02432F8E62560
:10022800E0FFA2C4E4334FFFE53125E025E02432A6
:10023800F8A607E53125E025E02433F8E625E0FFB8
:10024800A2C2E4334FFFE53125E025E02433F8A6C8
:1002580007E53125E025E02433F8E625E0FFA2B5DF
:10026800E4334FFFE53125E025E02434F8A607E51F
:100278003125E025E02435F8E625E0FFA2B4E43393
:100288004FFFE53125E025E02435F8A607E4FFE532
:100298003125E025E024322FF8E6540FFEBE0F0F7B
:1002A800E53125E025E024002FF87401F2800FEEF7
:1002B800700CE53125E025E024002FF8E4F20FBFAB
:0702C80004CD0531533103A1
:0102CF00220C
:0A094600C0F9A4B0999282F88090E5
:0D06AA000843FFFFFFFFFFFFFFFF014200BD
:10074F00E5A0541F44E0F5A07580FF53A01FE5A05E
:10075F00541F44C0F5A0AF427480A807088002C39D
:10076F0013D8FCF58053A01FE5A0541F44E0F5A05B
:10077F0074432542F8E6F58053A01F054253420704
:01078F002247
:10079000E4FEEF75F00A84740B2EF8A6F0EF75F006
:1007A0000A84FF0EBE04EB7E03740B2EF8E690095C
:1007B0004693FF74432EF8A6071EC3EE6480948010
:0207C00050E700
:0107C2002214
:0B06B700014D00C181024B0000C1009A
:1006C800D2AF1209377F017E001205AE1208EB7F08
:1006D800141202D0E4FF1209017F011208B71204B4
:1006E800D6300119C201E518D394004004151880CA
:1006F80004C2ABC2B4200405AF181207903004DE60
:0507080012054980D933
:0F093700E5A0541F44A0F5A07580AF53A01F2268
:1005AE00750B00750A1075090E750800E4FCFDAB9D
:1005BE000BAA0AA909A808120073E47BE87A03F9CA
:1005CE00F81200FE8F0B8E0A8D098C08C3E4950B72
:1005DE00F50BE4950AF50A74019509F509E49508F9
:1005EE00F508AF0BAE0AAD09FC78081201908F4EDC
:1005FE00850B4F5389F0438901854E8C854F8AD2E6
:03060E00A9D28CE2
:0106110022C6
:0202D0008F0895
:1002D200750C00750B10750A0E750900AF0CAE0B8C
:1002E200AD0AAC09E47BE87A03F9F81200FE8F0C40
:1002F2008E0B8D0A8C09AF08E4FCFDFEAB0CAA0B39
:10030200A90AA809120073E47B64FAF9F81200FE44
:100312008F108E0F8D0E8C0DC3E50C9510F514E524
:100322000B950FF513E50A950EF512E509950DF5F6
:1003320011C3E49510F510E4950FF50F7401950EB5
:10034200F50EE4950DF50DC3E49514F514E495133B
:10035200F51374019512F512E49511F511AF10AE73
:100362000FAD0EAC0D78081201908F50851051AF71
:1003720014AE13AD12AC1178081201908F5285148D
:100382005353890F43891085508D85518BC2ABD24F
:030392008EC2B464
:010395002245
:020396008F0BCB
:10039800750F00750E10750D0E750C00AF0FAE0EB3
:1003A800AD0DAC0CE47BE87A03F9F81200FE8F0F70
:1003B8008E0E8D0D8C0CAF0BE4FCFDFEAB0FAA0E60
:1003C800A90DA80C120073E47B64FAF9F81200FE78
:1003D8008F138E128D118C10C3E50F9513F517E549
:1003E8000E9512F516E50D9511F515E50C9510F518
:1003F80014C3E49513F513E49512F51274019511DD
:10040800F511E49510F510C3E49517F517E4951662
:10041800F51674019515F515E49514F514AF13AE9A
:1004280012AD11AC1078081201908F50851351AF9E
:1004380017AE16AD15AC1478081201908F528517B7
:010448005360
:010449002290
:03000B00020612D8
:10061200C0E0C0F0C083C082C0D075D000C000C0AE
:0D06220001C002C003C004C005C006C0072F
:10062F00854E8C854F8A054CE54C7002054B1201A7
:10063F00F812074FC3E54C94E8E54B940340087557
:07064F004B00754C00D201C5
:10065600D007D006D005D004D003D002D001D000F8
:0B066600D0D0D082D083D0F0D0E032A2
:03001B000208D206
:1008D20020000BD20085528D85538BC2B432C200E8
:0808E20085508D85518BD2B4C5
:0108EA0032DB
:0506C200C10401180055
:100549007B007A00790B1207F21208EBE50CAE0B6F
:100559007804CEA2E713CE13D8F8F50C8E0B754AA2
:10056900BF90094AE493F5497548BF7547FF754639
:10057900FFAF0C7C007D0A12001E74462FF58274B1
:10058900093EF583E493F545AE0BAF0C7C007D0A7B
:1005990012001E74462DF58274093CF583E493F527
:0405A900447543C68C
:0105AD00222B
:10090100754ABFEF90094793F5497548BF7547FF91
:05091100AF1802079081
:1008960020AB02D2ABE518D394784002800B743CAF
:1008A6002518F518D394784003E4F518AF18020715
:0108B60090B1
:1008B700E5A0541F4480F5A0EF70047580FF22BFA8
:0B08C70003047580FB22EFF4F5802293
:10070D00E54D7011754D017F011209017F1E120318
:10071D00967F028029E54DB40111754D027F0212BD
:10072D0009017F461203967F038013E54DB4021134
:10073D00E4F54DFF1209017F141203967F01120893
:02074D00B722D1
:10091600C2ABE4F518AF18120790C2B4E4FF0208A0
:01092600B719
:1007C3008F0AE50AB4300302070DE50AB4370302C2
:1007D3000896E50AB43403020916E50AB4310F207A
:0F07E3000405D204020549C204AF4D12090122D8
:0300000002044AAD
:0C044A00787FE4F6D8FD75815302049120
:10001E00C2D5EC30E709B2D5E4C39DFDE49CFCEEFD
:10002E0030E715B2D5E4C39FFFE49EFE1201A3C3D1
:10003E00E49DFDE49CFC80031201A330D507C3E4CC
:06004E009FFFE49EFE226C
:10005400BB010A89828A83F0E5F0A3F0225006F7F7
:0F00640009A7F01922BBFE06F3E5F009F31922F4
:10007300E88FF0A4CC8BF0A42CFCE98EF0A42CFC2C
:100083008AF0EDA42CFCEA8EF0A4CDA8F08BF0A4AA
:100093002DCC3825F0FDE98FF0A42CCD35F0FCEB09
:1000A3008EF0A4FEA9F0EB8FF0A4CFC5F02ECD39CE
:0F00B300FEE43CFCEAA42DCE35F0FDE43CFC223B
:1000C20075F008758200EF2FFFEE33FECD33CDCCF5
:1000D20033CCC58233C5829BED9AEC99E582984078
:1000E2000CF582EE9BFEED9AFDEC99FC0FD5F0D655
:1000F200E4CEFBE4CDFAE4CCF9A88222B800C1B97F
:100102000059BA002DEC8BF084CFCECDFCE5F0CBBC
:10011200F97818EF2FFFEE33FEED33FDEC33FCEBF5
:1001220033FB10D703994004EB99FB0FD8E5E4F9B0
:10013200FA227818EF2FFFEE33FEED33FDEC33FC9D
:10014200C933C910D7059BE99A4007EC9BFCE99A91
:10015200F90FD8E0E4C9FAE4CCFB2275F010EF2FD6
:10016200FFEE33FEED33FDCC33CCC833C810D707D6
:100172009BEC9AE899400AED9BFDEC9AFCE899F811
:0E0182000FD5F0DAE4CDFBE4CCFAE4C8F922A4
:10019000E8600FECC313FCED13FDEE13FEEF13FF4D
:0301A000D8F12271
:100456000206C8E493A3F8E493A34003F68001F2EE
:1004660008DFF48029E493A3F85407240CC8C333A7
:10047600C4540F4420C8834004F456800146F6DF76
:10048600E4800B0102040810204080900671E47E8F
:10049600019360BCA3FF543F30E509541FFEE4936B
:1004A600A360010ECF54C025E060A840B8E493A332
:1004B600FAE493A3F8E493A3C8C582C8CAC583CA5D
:1004C600F0A3C8C582C8CAC583CADFE9DEE780BE15
:0106C7000032
:1001A300BC000BBE0029EF8DF084FFADF022E4CC40
:1001B300F875F008EF2FFFEE33FEEC33FCEE9DEC09
:1001C300984005FCEE9DFE0FD5F0E9E4CEFD22ED4F
:1001D300F8F5F0EE8420D21CFEADF075F008EF2F99
:1001E300FFED33FD4007985006D5F0F222C398FD8A
:0501F3000FD5F0EA2227
:00000001FF
