:0606CA0081000081010027
:10038800D2AF1207107F017E001203017F807E2505
:100398007D007C0012053A7BFE7A0079457862740C
:1003A80005F27D90120401786174FEF2087400F27F
:1003B800087445F2087405F27BFE7A00794A120146
:1003C800C87BFE7A00794A12000EAD077BFE7A00E0
:1003D800794A1205D1E4FF74452FF8E2042FF20F91
:1003E800EFB405F37BFE7A00794578627405F27DF7
:0903F800901204671206AE80FBAE
:0F071000E5A0541F44A0F5A05380AFE4F5A0224C
:04030100AB07AA0696
:10030500785E1201AF000E1000AE02AF03E4FCFDF3
:10031500785EE2FB08E2F908E2FA08E2CBF812009F
:1003250073E47BE87A03F9F81200FE785E1201A304
:10033500785EE2FB08E2F908E2FA08E2CBF8C3E4EA
:100345009BFFE49AFE740199FDE498FC785E120126
:10035500A3785EE2FC08E2FD08E2FE08E2FF780809
:100365001201907800EFF2785E080808E27801F251
:100375005389F043890118E2F58C08E2F58AD2A980
:02038500D28C18
:010387002253
:1005A0007886EBF208EAF208E9F27886E2FB08E2E4
:1005B000FA08E2F9AF050D8F82758300740D120001
:1005C00051AF050D8F82758300740A120051020528
:0105D000D159
:0A01C800785EEBF208EAF208E9F2B3
:1001D2007864E2FF14F2EF70030202677861E2FBD7
:1001E20008E2FA08E2F9120026C4540FFFD3940978
:1001F200EF5004243080022437FE785EE2FB0808C8
:10020200E2F92401F218E2FA3400F2EE12003F7829
:1002120061E2FB08E2FA08E2F9120026540FFFD36A
:100222009409EF5004243080022437FF785EE2FB09
:100232000808E2F92401F218E2FA3400F2EF12009F
:100242003F785EE2FB0808E2F92401F218E2FA3490
:1002520000F2742012003F7863E22401F218E234C3
:1002620000F20201D2785EE2FB08E2FA08E2F9E467
:0302720002003F48
:10040100785EEBF208EAF208E9F208EDF21206DE94
:100411007FA012062D40051206EF80F17861E2FF00
:1004210012062D1206DE7FA112062D7862E2D39408
:1004310001401F120658785EE2FB0808E2F9240128
:10044100F218E2FA3400F2EF12003F7862E214F29D
:1004510080D9120683785EE2FB08E2FA08E2F9EF3E
:0604610012003F0206EF4D
:10046700785EEBF208EAF208E9F208EDF27862E268
:10047700FF14F2EF60351206DE7FA012062D40054D
:100487001206EF80F17861E2FF04F212062D785E22
:10049700E2FB0808E2F92401F218E2FA3400F2124A
:0C04A7000026FF12062D1206EF80C22274
:03000B000204B339
:1004B300C0E0C0F0C083C082C0D075D000C000C00F
:1004C30001C002C003C004C005C006C0077800E233
:1004D300F58C08E2F58A7F011205FFD007D006D01C
:1004E30005D004D003D002D001D000D0D0D082D028
:0604F30083D0F0D0E032DE
:0A07000012070AD2A012070AC2A0D5
:05070A00007F0BDFFE83
:01070F0022C7
:1006DE00D2A0D2A112070AC2A112070AC2A0020713
:0106EE000A01
:1006EF00C2A0C2A112070AD2A012070AD2A1020702
:0106FF000AF0
:02062D00AE0716
:10062F007D80ED60125E7004C2A18002D2A112071C
:10063F0000EDC313FD80EBD2A112070AD2A0A2A135
:08064F009202120705A202B39A
:010657002280
:10065800D2A112070A7D80ED6019D2A012070A30D4
:10066800A1044EFE8004EDF45EFE120705EDC313EF
:0A067800FD80E4C2A1120700AF06E6
:010682002255
:10068300D2A112070A7D80ED6019D2A012070A30A9
:10069300A1044EFE8004EDF45EFE120705EDC313C4
:0A06A300FD80E4D2A1120700AF06AB
:0106AD00222A
:0D06D000C100C101814400810200810300CE
:10053A0053877F759850538EBF538EFE53890F434E
:10054A008920AB07AA06A905A804E47F807E70FD6E
:10055A00FC1200FEEFF404F58D858D8BC2ABD2AC94
:03056A00D28E220C
:1005D1007889EBF208EAF208E9F2AF051DEF601D38
:1005E100C2017889E2FB0808E2F92401F218E2FA73
:0E05F1003400F2120026F5992001DF80FB2273
:0A04F9007886EBF208EAF208E9F257
:100503007844E2FFEDD39F4002AD07E4FFEFC39DC4
:10051300501E74042FF8E2FE7886E2FB0808E2F925
:100523002401F218E2FA3400F2EE12003F0F80DDEC
:06053300E47844F2AF057C
:01053900229F
:1005FF007844E2FED3940040207802E26E6006EE6B
:10060F00F2E408F2227803E2C3941E5010E22FF2B4
:0D061F00E2C3941E4007D20022E47802F2EC
:01062C0022AB
:1006AE00300018C2007BFE7A00795E7D281204F9B4
:0B06BE007BFE7A00795EAD071205A0FC
:0106C900220E
:0300230002056D66
:10056D00C0E0C0D075D000C000C007309815C2984B
:10057D007844E2C39440500BE2FF04F274042FF868
:10058D00E599F2309904C299D201D007D000D0D0AC
:03059D00D0E03279
:0300000002027584
:0C027500787FE4F6D8FD7581200202BC01
:10002600BB010689828A83E0225002E722BBFE02D8
:09003600E32289828A83E493220B
:10003F00BB010689828A83F0225002F722BBFE01A0
:02004F00F3229A
:10005100F8BB010DE58229F582E5833AF583E8F0E5
:10006100225006E92582C8F622BBFE05E92582C891
:02007100F22279
:10007300E88FF0A4CC8BF0A42CFCE98EF0A42CFC2C
:100083008AF0EDA42CFCEA8EF0A4CDA8F08BF0A4AA
:100093002DCC3825F0FDE98FF0A42CCD35F0FCEB09
:1000A3008EF0A4FEA9F0EB8FF0A4CFC5F02ECD39CE
:0F00B300FEE43CFCEAA42DCE35F0FDE43CFC223B
:1000C20075F008758200EF2FFFEE33FECD33CDCCF5
:1000D20033CCC58233C5829BED9AEC99E582984078
:1000E2000CF582EE9BFEED9AFDEC99FC0FD5F0D655
:1000F200E4CEFBE4CDFAE4CCF9A88222B800C1B97F
:100102000059BA002DEC8BF084CFCECDFCE5F0CBBC
:10011200F97818EF2FFFEE33FEED33FDEC33FCEBF5
:1001220033FB10D703994004EB99FB0FD8E5E4F9B0
:10013200FA227818EF2FFFEE33FEED33FDEC33FC9D
:10014200C933C910D7059BE99A4007EC9BFCE99A91
:10015200F90FD8E0E4C9FAE4CCFB2275F010EF2FD6
:10016200FFEE33FEED33FDCC33CCC833C810D707D6
:100172009BEC9AE899400AED9BFDEC9AFCE899F811
:0E0182000FD5F0DAE4CDFBE4CCFAE4C8F922A4
:10019000E8600FECC313FCED13FDEE13FEEF13FF4D
:0301A000D8F12271
:0C01A300ECF208EDF208EEF208EFF22298
:1001AF00D083D082E493F208740193F2087402931F
:0901BF00F208740393F274047356
:10000E00E4FFFE120026600C0FEF70010E09E9707E
:05001E00F20A80EF2250
:10028100020388E493A3F8E493A34003F68001F208
:1002910008DFF48029E493A3F85407240CC8C3337E
:1002A100C4540F4420C8834004F456800146F6DF4D
:1002B100E4800B01020408102040809006CAE47E0D
:1002C100019360BCA3FF543F30E509541FFEE49342
:1002D100A360010ECF54C025E060A840B8E493A309
:1002E100FAE493A3F8E493A3C8C582C8CAC583CA34
:1002F100F0A3C8C582C8CAC583CADFE9DEE780BEEC
:0106DD00001C
:00000001FF
