:0B0A7B000000000000000000DFF62279
:1009DD00C2947FFA120A7B7FFA120A7BD2947F3C73
:0C09ED00120A7BA29492013094FDA2013A
:0109F90022DB
:02099800AE07A8
:10099A007D01ED601DC2947F02120A7B5E6004D263
:1009AA00948002C2947F3C120A7BD294ED25E0FD2A
:0209BA0080E0DB
:0109BC002218
:10097000E4FE7D01ED601EC2947F02120A7BD294D8
:100980007F02120A7B3094024EFE7F3C120A7BEDFE
:0709900025E0FD80DFAF064A
:01099700223D
:100A48001209DD920020000A7FCC1209987F441217
:050A58000998A200B3A3
:010A5D002276
:100942001209DD92022002227FCC1209987FBE1288
:100952000998120970AC07120970EFFEAD047C0011
:0D096200E42DFFEC3E8FF01201CDA202B398
:01096F002265
:08000300001803301144000550
:100A16007E01EE60135F6004D2A38002C2A3D29768
:0A0A2600C297EE25E0FE80EAD2A39D
:010A300022A3
:100A3100E4FF7E01EE600F30A3024FFFD297C29711
:060A4100EE25E0FE80EE50
:010A4700228C
:0A08DC007883EBF208EAF208E9F273
:1008E600D2937FBE120A16E4FD7883E2FB0808E283
:1008F600F92401F218E2FA3400F2120104FF120A96
:08090600160DEDB408E3C293E5
:01090E0022C6
:0A090F007800EBF208EAF208E9F2C2
:10091900D2937FBF120A16E4FD120A317800E2FB76
:1009290008E2FA08E2F98D82758300EF12014A0D97
:08093900EDB408E5C293C2A36E
:010941002293
:10080700E47882F21201A218F290000212011D7818
:100817007FF290000312011D787EF290000412010E
:100827001D787DF290000512011D787CF29000067C
:1008370012011D787BF290000712011D7880F27B70
:08084700FE7A00797B0208DC57
:0A06DE007803EBF208EAF208E9F2F3
:1006E8007BFE7A00790612090F780CE2FF7803E2A4
:1006F800FB08E2FA08E2F9E48FF01201CD780AE289
:10070800FF7803E2FB08E2FA08E2F9900002EF1230
:10071800014A7809E290000312014A7808E2900041
:100728000412014A7807E290000512014A7806E2AD
:0F07380090000612014A780BE290000702014A76
:1009BD0078737C007DFE7BFF7A0079037E007F08D3
:1009CD001200DEC293C2977BFE7A0079730208078C
:10067000903F01010101010101010101010101019D
:100680000101902F31323319343536183738391784
:10069000301B0D16900E0101010101010101010144
:1006A000010101010101811E00901FFFFFFFFFFFFB
:0B06B000FFFFFFFFFFFFFFFFFFFFFF4A
:1005FE00E47873F2E47874F27874E2C3940450569B
:10060E00E2FF18E2FE25E025E0243F2FF8E2FDEEA2
:10061E0025E025E0240E2FF8E2FF6D6016EF601343
:10062E007874E2FF18E225E025E0242F2FF8E2FF90
:10063E00120A6D7874E2FF18E2FE25E025E0243FF1
:10064E002FF8E2FDEE25E025E0240E2FF8EDF278EE
:10065E0074E204F280A27873E204F2E2C3940440DE
:01066E0093F8
:01066F002268
:10039600781EE2146010146013146016240370169D
:1003A600C2B0D2B38010C2B1D2B0800AC2B2D2B14A
:1003B6008004C2B3D2B2781EE2FF25E025E0241FF6
:1003C600F8E225E0FEA2C4E4334EFEEF25E025E088
:1003D600241FF8EEF2781EE2FF25E025E02420F83F
:1003E600E225E0FEA2C2E4334EFEEF25E025E0243E
:1003F60020F8EEF2781EE2FF25E025E02421F8E25F
:1004060025E0FEA2B5E4334EFEEF25E025E02421EB
:10041600F8EEF2781EE2FF25E025E02422F8E22538
:10042600E0FEA2B4E4334EFEEF25E025E02422F8F8
:10043600EEF2E4FF781EE2FE25E025E0241F2FF809
:10044600E2540FFDBD0F0EEE25E025E0243F2FF808
:100456007401F2800EED700BEE25E025E0243F2FAF
:10046600F8E4F20FEFB404CC781EE204F2E254038F
:01047600F293
:010477002262
:1006BB008A50C0F9A4B0999282F88090885AFFFFB3
:0906CB00FFFFFFFFFFFF814F005C
:10089600E5A0541F44E0F5A07580FF53A01FE5A016
:1008A600541F44C0F5A0784FE2FF7480A807088063
:1008B60002C313D8FCF58053A01FE5A0541F44E0E3
:1008C600F5A0745A2FF8E2F58053A01F784FE20482
:0508D600F2E25407F2FC
:0108DB0022FA
:10084F00E4FEEF75F00A8474752EF8E5F0F2EF759B
:10085F00F00A84FF0EEEB408E97E0774752EF8E2F5
:10086F007009745A2EF874FFF2DEF0C3EE648094B0
:10087F0080401374752EF8E22450F8E2FF745A2E5C
:06088F00F8EFF21E80E507
:010895002240
:0606D400C1038262000078
:1009FA00D2AF120A5E7F017E001205041209BD12EF
:0C0A0A000A481205FE3003FAC20380F611
:0F0A5E00E5A0541F44A0F5A05380AF53A01F2262
:04050400AB07AA0691
:100508007873120328000E1000AE02AF03E4FCFD5E
:100518007873E2FB08E2F908E2FA08E2CBF8120184
:10052800ECE47BE87A03F9F8120277787312031C7B
:100538007873E2FB08E2F908E2FA08E2CBF8C3E4D0
:100548009BFFE49AFE740199FDE498FC787312030A
:100558001C7873E2FC08E2FD08E2FE08E2FF780876
:100568001203097864EFF27873080808E27865F2F4
:100578005389F043890118E2F58C08E2F58AD2A97B
:02058800D28C13
:01058A00224E
:03000B00020747A2
:10074700C0E0C0F0C083C082C0D075D000C000C078
:0D07570001C002C003C004C005C006C007F9
:100764007864E2F58C08E2F58A7863E22401F218F1
:10077400E23400F2C308E294C818E294004006E4AC
:0B078400F208F2D2031208961203964E
:10078F00D007D006D005D004D003D002D001D000BE
:0B079F00D0D0D082D083D0F0D0E03268
:0306DA00816A0032
:1007AA003004097BFE7A00796B1206DE786FE2FF6D
:1007BA00C4540F2450F8E27861F2EF540F2450F831
:1007CA00E27860F21874BFF27870E2FFC4540F2422
:1007DA0050F8E2785EF2EF540F2450F8E2785DF2B6
:1007EA001874BFF27871E2FFC4540F2450F8E2780B
:0D07FA005BF2EF540F2450F8E2785AF2221F
:10058B007BFE7A007966120942120A487966E3FE0D
:10059B0009E37804CEA2E713CE13D8F8F3EE79660D
:1005AB00F37866E2FE08E2FFD39400EE6480948059
:1005BB004010EF9463EE64809480500608EEF208CE
:1005CB00EFF27868E2FA08E2FB7C007D0AFFAE02EC
:1005DB0012016C74502FF8E2785CF27C007D0AAF4C
:1005EB0003AE0212016C74502DF8E2785BF21874B2
:0205FB00C6F246
:0105FD0022DB
:0D0A6D00EFB43009786AE204FFF212084F7E
:010A7A002259
:030000000204787F
:0C047800787FE4F6D8FD7581200204BFF7
:10000E00E709F608DFFA8046E709F208DFFA803ED4
:10001E0088828C83E709F0A3DFFA8032E309F608C1
:10002E00DFFA8078E309F208DFFA807088828C8329
:10003E00E309F0A3DFFA806489828A83E0A3F608DD
:10004E00DFFA805889828A83E0A3F208DFFA804CB7
:10005E0080D280FA80C680D4806980F2803380108E
:10006E0080A680EA809A80A880DA80E280CA8033F7
:10007E0089828A83ECFAE493A3C8C582C8CCC5836F
:10008E00CCF0A3C8C582C8CCC583CCDFE9DEE7803F
:10009E000D89828A83E493A3F608DFF9ECFAA9F0BE
:1000AE00EDFB2289828A83ECFAE0A3C8C582C8CC14
:1000BE00C583CCF0A3C8C582C8CCC583CCDFEADE2D
:1000CE00E880DB89828A83E493A3F208DFF980CC8F
:1000DE0088F0EF60010E4E60C388F0ED2402B40488
:1000EE000050B9F582EB2402B4040050AF2323452F
:0600FE00822390005E73F6
:10010400BB010689828A83E0225002E722BBFE02F9
:09011400E32289828A83E493222C
:10011D00BB010CE58229F582E5833AF583E0225097
:10012D0006E92582F8E622BBFE06E92582F8E222E1
:0D013D00E58229F582E5833AF583E49322FB
:10014A00F8BB010DE58229F582E5833AF583E8F0EB
:10015A00225006E92582C8F622BBFE05E92582C897
:02016A00F2227F
:10016C00C2D5EC30E709B2D5E4C39DFDE49CFCEEAE
:10017C0030E715B2D5E4C39FFFE49EFE120341C3E2
:10018C00E49DFDE49CFC800312034130D507C3E4DD
:06019C009FFFE49EFE221D
:1001A200BB010A89828A83E0F5F0A3E02250068728
:1001B200F009E71922BBFE07E3F5F009E3192289EA
:0B01C200828A83E493F5F0740193221D
:1001CD00BB010A89828A83F0E5F0A3F0225006F77D
:0F01DD0009A7F01922BBFE06F3E5F009F319227A
:1001EC00E88FF0A4CC8BF0A42CFCE98EF0A42CFCB2
:1001FC008AF0EDA42CFCEA8EF0A4CDA8F08BF0A430
:10020C002DCC3825F0FDE98FF0A42CCD35F0FCEB8E
:10021C008EF0A4FEA9F0EB8FF0A4CFC5F02ECD3953
:0F022C00FEE43CFCEAA42DCE35F0FDE43CFC22C0
:10023B0075F008758200EF2FFFEE33FECD33CDCC7A
:10024B0033CCC58233C5829BED9AEC99E5829840FD
:10025B000CF582EE9BFEED9AFDEC99FC0FD5F0D6DA
:10026B00E4CEFBE4CDFAE4CCF9A88222B800C1B904
:10027B000059BA002DEC8BF084CFCECDFCE5F0CB42
:10028B00F97818EF2FFFEE33FEED33FDEC33FCEB7B
:10029B0033FB10D703994004EB99FB0FD8E5E4F936
:1002AB00FA227818EF2FFFEE33FEED33FDEC33FC23
:1002BB00C933C910D7059BE99A4007EC9BFCE99A17
:1002CB00F90FD8E0E4C9FAE4CCFB2275F010EF2F5C
:1002DB00FFEE33FEED33FDCC33CCC833C810D7075C
:1002EB009BEC9AE899400AED9BFDEC9AFCE899F897
:0E02FB000FD5F0DAE4CDFBE4CCFAE4C8F9222A
:10030900E8600FECC313FCED13FDEE13FEEF13FFD2
:03031900D8F122F6
:0C031C00ECF208EDF208EEF208EFF2221D
:10032800D083D082E493F208740193F208740293A4
:09033800F208740393F2740473DB
:100484000209FAE493A3F8E493A34003F68001F28B
:1004940008DFF48029E493A3F85407240CC8C33379
:1004A400C4540F4420C8834004F456800146F6DF48
:1004B400E4800B0102040810204080900670E47E62
:1004C400019360BCA3FF543F30E509541FFEE4933D
:1004D400A360010ECF54C025E060A840B8E493A304
:1004E400FAE493A3F8E493A3C8C582C8CAC583CA2F
:1004F400F0A3C8C582C8CAC583CADFE9DEE780BEE7
:0106DD00001C
:10034100BC000BBE0029EF8DF084FFADF022E4CCA0
:10035100F875F008EF2FFFEE33FEEC33FCEE9DEC69
:10036100984005FCEE9DFE0FD5F0E9E4CEFD22EDAF
:10037100F8F5F0EE8420D21CFEADF075F008EF2FF9
:10038100FFED33FD4007985006D5F0F222C398FDEA
:050391000FD5F0EA2287
:00000001FF
