:1006CE00C0F9A4B0999282F880908883C6A1868ED4
:1006A0008802FFFFFFFFFFFFFFFF810A00810B00B1
:0806B000C1008100008101007E
:10068700D2AF1206DE1206ED7F017E001205893019
:0906970000FDC20012042B80F6E4
:0F06DE00E5A0541F44A0F5A05380AF53A01F22E6
:04058900AB07AA060C
:10058D00780C120412000E1000AE02AF03E4FCFD55
:10059D00780CE2FB08E2F908E2FA08E2CBF8120265
:1005AD00C8E47BE87A03F9F8120353780C120406B9
:1005BD00780CE2FB08E2F908E2FA08E2CBF8C3E4B2
:1005CD009BFFE49AFE740199FDE498FC780C1204EB
:1005DD0006780CE2FC08E2FD08E2FE08E2FF78086E
:1005ED001203F3780AEFF2780C080808E2780BF2A0
:1005FD005389F043890118E2F58C08E2F58AD2A9F6
:02060D00D28C8D
:01060F0022C8
:10061000E5A0541F44E0F5A07580FF53A01FE5A09E
:10062000541F44C0F5A07800E2FF7480A80708803A
:1006300002C313D8FCF58053A01FE5A0541F44E06B
:10064000F5A074022FF8E2F58053A01F7800E204B1
:05065000F2E25407F284
:010655002282
:03000B0002065694
:0B065600C0E0C0D075D000C000C0079D
:10066100780AE2F58C08E2F58A7801E204F21206D2
:0D067100107801E2C394C84004E4F2D20006
:09067E00D007D000D0D0D0E0324A
:0600030000007F21DFFE7A
:0100090022D4
:0B06ED0053890F438910C28FC28E2278
:1006B9007E08AF061EEF600CD290120003C29012A2
:0406C900000380EEBC
:0106CD00220A
:10042B001206B9E4F58DF58BD28E309103308FFA2D
:10043B00C28E308F0EC28F780274BFF208F208F2B0
:10044B0008F222AF8DEFFEAD8B7C00E42DFFEC3E6E
:10045B00FEAD07FCE41201B97B5C7A8F7902784020
:10046B0012000E7B7C7AF27930784112011712015F
:10047B00F2AB07AA067C007D0A12027374CE2DF52F
:10048B008274063CF583E4937802F27C007D0AAF1C
:10049B0003AE021202737C007D0A12027374CE2D1E
:1004AB00F58274063CF583E4937803F2547FF27C77
:1004BB00007D64AF03AE021202737C007D0A120250
:1004CB007374CE2DF58274063CF583E4937804F2B5
:1004DB00AE02AF037C037DE81202737C007D0A122F
:1004EB00027374CE2DF58274063CF583E493780584
:0104FB00F20E
:0104FC0022DD
:10000E00EC4D6011E8497017ED33EC3304600DE4EC
:10001E00FCFFFEFD22E933E8330470F802025E12A3
:10002E00022958046009E4CC2481500628500902A4
:10003E000268284003020265C0E0EB4A7044B980B2
:10004E0006D0E0FB020254EF4E701CBD8008EBFFA1
:10005E00EAFEE9FD80EBE98DF0A4FEE5F00200F783
:10006E00E9CDF9EAFEEBFFEF89F0A4FCE5F0CE89CD
:10007E00F0A42EFFE435F0CD89F0A42DFEE435F08A
:10008E008067EF4E7005BD80D780C3EF8BF0A4ACB8
:10009E00F0EE8BF0A42CFCE435F0F8EF8AF0A42CF3
:1000AE00E5F038FCE433CB8DF0A42CFCE5F03BF806
:1000BE00EE8AF0A42CFCE5F038F8E433CF89F0A4F6
:1000CE002CFCE5F038CF3400CE89F0A42FFFE5F0FC
:1000DE003EFEE433C98DF0A42EFEE5F039CD8AF054
:1000EE00A42FFFE5F03EFEE43DFD33D0E0FB5007CC
:1000FE000BBB000F020268EC2CFCEF33FFEE33FE5D
:06010E00ED33FD0202408A
:10011400020268EC5D046005E85904700302025EA3
:10012400120229580460F6EC4860F2EC7004FDFEFB
:10013400FF22C860DB2481C85009C39860025006BE
:100144000202659850CAF582E9294B4A7005AB82D0
:1001540002025475F0007C1A7880C3EF9BEE9AED8E
:1001640099400DC3EF9BFFEE9AFEED99FDE842F036
:10017400DC23ACF0D0E0FFD0E0FED0E0FDAB822089
:10018400E7101BEB60BAEC2CFCEF33FFEE33FEED13
:1001940033FD020240E803F830E705C0F075F000D3
:1001A400EF2FFFEE33FEED33FD40B830E7C280AAF7
:1001B40075F020800E75F010800575F0087D007EC6
:1001C400007F003392D530D5031203E5EC334010A1
:1001D400EF33FFEE33FEED33FDEC33FCD5F0ED22CF
:0E01E400E5F0247EA2D513CC92E7CDCEFF220B
:1001F200EDD2E7CD33EC3392D524814006E4FFFE05
:10020200FDFC22FCE4CFCECDCC24E0501174FF8063
:10021200EDC3CC13CCCD13CDCE13CECF13CF047000
:07022200F030D5DE0203E518
:10022900E9D2E7C933E833F892D5EDD2E7CD33EC1B
:0702390033FC5002B2D52294
:10024000EC30E7100FBF000C0EBE00080DBD00041F
:100250000BEB6014A2D5EB13FCED92E7FD2274FFCB
:10026000FCFDFEFF22E480F8A2D574FF13FC7D8024
:03027000E480EF38
:030000000204FDFA
:0C04FD00787FE4F6D8FD758120020544EC
:10027300BC000BBE0029EF8DF084FFADF022E4CC6F
:10028300F875F008EF2FFFEE33FEEC33FCEE9DEC38
:10029300984005FCEE9DFE0FD5F0E9E4CEFD22ED7E
:1002A300F8F5F0EE8420D21CFEADF075F008EF2FC8
:1002B300FFED33FD4007985006D5F0F222C398FDB9
:0502C3000FD5F0EA2256
:1002C800E88FF0A4CC8BF0A42CFCE98EF0A42CFCD5
:1002D8008AF0EDA42CFCEA8EF0A4CDA8F08BF0A453
:1002E8002DCC3825F0FDE98FF0A42CCD35F0FCEBB2
:1002F8008EF0A4FEA9F0EB8FF0A4CFC5F02ECD3977
:0F030800FEE43CFCEAA42DCE35F0FDE43CFC22E3
:1003170075F008758200EF2FFFEE33FECD33CDCC9D
:1003270033CCC58233C5829BED9AEC99E582984020
:100337000CF582EE9BFEED9AFDEC99FC0FD5F0D6FD
:10034700E4CEFBE4CDFAE4CCF9A88222B800C1B927
:100357000059BA002DEC8BF084CFCECDFCE5F0CB65
:10036700F97818EF2FFFEE33FEED33FDEC33FCEB9E
:1003770033FB10D703994004EB99FB0FD8E5E4F959
:10038700FA227818EF2FFFEE33FEED33FDEC33FC46
:10039700C933C910D7059BE99A4007EC9BFCE99A3A
:1003A700F90FD8E0E4C9FAE4CCFB2275F010EF2F7F
:1003B700FFEE33FEED33FDCC33CCC833C810D7077F
:1003C7009BEC9AE899400AED9BFDEC9AFCE899F8BA
:0E03D7000FD5F0DAE4CDFBE4CCFAE4C8F9224D
:0E03E500C3E49FFFE49EFEE49DFDE49CFC2229
:1003F300E8600FECC313FCED13FDEE13FEEF13FFE8
:03040300D8F1220B
:0C040600ECF208EDF208EEF208EFF22232
:10041200D083D082E493F208740193F208740293B9
:09042200F208740393F2740473F0
:10050900020687E493A3F8E493A34003F68001F27B
:1005190008DFF48029E493A3F85407240CC8C333F3
:10052900C4540F4420C8834004F456800146F6DFC2
:10053900E4800B01020408102040809006A0E47EAC
:10054900019360BCA3FF543F30E509541FFEE493B7
:10055900A360010ECF54C025E060A840B8E493A37E
:10056900FAE493A3F8E493A3C8C582C8CAC583CAA9
:10057900F0A3C8C582C8CAC583CADFE9DEE780BE61
:0106B8000041
:00000001FF
